{
	"contracts/PVCMeta.sol": {
		"PVCMETA": {
			"abi": [
				{
					"inputs": [],
					"stateMutability": "nonpayable",
					"type": "constructor"
				},
				{
					"anonymous": false,
					"inputs": [
						{
							"indexed": true,
							"internalType": "address",
							"name": "owner",
							"type": "address"
						},
						{
							"indexed": true,
							"internalType": "address",
							"name": "spender",
							"type": "address"
						},
						{
							"indexed": false,
							"internalType": "uint256",
							"name": "value",
							"type": "uint256"
						}
					],
					"name": "Approval",
					"type": "event"
				},
				{
					"anonymous": false,
					"inputs": [
						{
							"indexed": true,
							"internalType": "address",
							"name": "previousOwner",
							"type": "address"
						},
						{
							"indexed": true,
							"internalType": "address",
							"name": "newOwner",
							"type": "address"
						}
					],
					"name": "OwnershipTransferred",
					"type": "event"
				},
				{
					"anonymous": false,
					"inputs": [
						{
							"indexed": false,
							"internalType": "address",
							"name": "account",
							"type": "address"
						}
					],
					"name": "Paused",
					"type": "event"
				},
				{
					"anonymous": false,
					"inputs": [
						{
							"indexed": true,
							"internalType": "address",
							"name": "from",
							"type": "address"
						},
						{
							"indexed": true,
							"internalType": "address",
							"name": "to",
							"type": "address"
						},
						{
							"indexed": false,
							"internalType": "uint256",
							"name": "value",
							"type": "uint256"
						}
					],
					"name": "Transfer",
					"type": "event"
				},
				{
					"anonymous": false,
					"inputs": [
						{
							"indexed": false,
							"internalType": "address",
							"name": "account",
							"type": "address"
						}
					],
					"name": "Unpaused",
					"type": "event"
				},
				{
					"inputs": [
						{
							"internalType": "address[]",
							"name": "recipients",
							"type": "address[]"
						},
						{
							"internalType": "uint256[]",
							"name": "tokenAmount",
							"type": "uint256[]"
						}
					],
					"name": "airdropACTIVE",
					"outputs": [
						{
							"internalType": "bool",
							"name": "",
							"type": "bool"
						}
					],
					"stateMutability": "nonpayable",
					"type": "function"
				},
				{
					"inputs": [
						{
							"internalType": "address",
							"name": "owner",
							"type": "address"
						},
						{
							"internalType": "address",
							"name": "spender",
							"type": "address"
						}
					],
					"name": "allowance",
					"outputs": [
						{
							"internalType": "uint256",
							"name": "",
							"type": "uint256"
						}
					],
					"stateMutability": "view",
					"type": "function"
				},
				{
					"inputs": [
						{
							"internalType": "address",
							"name": "spender",
							"type": "address"
						},
						{
							"internalType": "uint256",
							"name": "amount",
							"type": "uint256"
						}
					],
					"name": "approve",
					"outputs": [
						{
							"internalType": "bool",
							"name": "",
							"type": "bool"
						}
					],
					"stateMutability": "nonpayable",
					"type": "function"
				},
				{
					"inputs": [
						{
							"internalType": "address",
							"name": "account",
							"type": "address"
						}
					],
					"name": "balanceOf",
					"outputs": [
						{
							"internalType": "uint256",
							"name": "",
							"type": "uint256"
						}
					],
					"stateMutability": "view",
					"type": "function"
				},
				{
					"inputs": [
						{
							"internalType": "uint256",
							"name": "amount",
							"type": "uint256"
						}
					],
					"name": "burn",
					"outputs": [],
					"stateMutability": "nonpayable",
					"type": "function"
				},
				{
					"inputs": [
						{
							"internalType": "address",
							"name": "account",
							"type": "address"
						},
						{
							"internalType": "uint256",
							"name": "amount",
							"type": "uint256"
						}
					],
					"name": "burnFrom",
					"outputs": [],
					"stateMutability": "nonpayable",
					"type": "function"
				},
				{
					"inputs": [],
					"name": "decimals",
					"outputs": [
						{
							"internalType": "uint8",
							"name": "",
							"type": "uint8"
						}
					],
					"stateMutability": "view",
					"type": "function"
				},
				{
					"inputs": [
						{
							"internalType": "address",
							"name": "spender",
							"type": "address"
						},
						{
							"internalType": "uint256",
							"name": "subtractedValue",
							"type": "uint256"
						}
					],
					"name": "decreaseAllowance",
					"outputs": [
						{
							"internalType": "bool",
							"name": "",
							"type": "bool"
						}
					],
					"stateMutability": "nonpayable",
					"type": "function"
				},
				{
					"inputs": [
						{
							"internalType": "address",
							"name": "spender",
							"type": "address"
						},
						{
							"internalType": "uint256",
							"name": "addedValue",
							"type": "uint256"
						}
					],
					"name": "increaseAllowance",
					"outputs": [
						{
							"internalType": "bool",
							"name": "",
							"type": "bool"
						}
					],
					"stateMutability": "nonpayable",
					"type": "function"
				},
				{
					"inputs": [],
					"name": "name",
					"outputs": [
						{
							"internalType": "string",
							"name": "",
							"type": "string"
						}
					],
					"stateMutability": "view",
					"type": "function"
				},
				{
					"inputs": [],
					"name": "owner",
					"outputs": [
						{
							"internalType": "address",
							"name": "",
							"type": "address"
						}
					],
					"stateMutability": "view",
					"type": "function"
				},
				{
					"inputs": [],
					"name": "pause",
					"outputs": [],
					"stateMutability": "nonpayable",
					"type": "function"
				},
				{
					"inputs": [],
					"name": "paused",
					"outputs": [
						{
							"internalType": "bool",
							"name": "",
							"type": "bool"
						}
					],
					"stateMutability": "view",
					"type": "function"
				},
				{
					"inputs": [],
					"name": "renounceOwnership",
					"outputs": [],
					"stateMutability": "nonpayable",
					"type": "function"
				},
				{
					"inputs": [],
					"name": "symbol",
					"outputs": [
						{
							"internalType": "string",
							"name": "",
							"type": "string"
						}
					],
					"stateMutability": "view",
					"type": "function"
				},
				{
					"inputs": [],
					"name": "totalSupply",
					"outputs": [
						{
							"internalType": "uint256",
							"name": "",
							"type": "uint256"
						}
					],
					"stateMutability": "view",
					"type": "function"
				},
				{
					"inputs": [
						{
							"internalType": "address",
							"name": "recipient",
							"type": "address"
						},
						{
							"internalType": "uint256",
							"name": "amount",
							"type": "uint256"
						}
					],
					"name": "transfer",
					"outputs": [
						{
							"internalType": "bool",
							"name": "",
							"type": "bool"
						}
					],
					"stateMutability": "nonpayable",
					"type": "function"
				},
				{
					"inputs": [
						{
							"internalType": "address",
							"name": "sender",
							"type": "address"
						},
						{
							"internalType": "address",
							"name": "recipient",
							"type": "address"
						},
						{
							"internalType": "uint256",
							"name": "amount",
							"type": "uint256"
						}
					],
					"name": "transferFrom",
					"outputs": [
						{
							"internalType": "bool",
							"name": "",
							"type": "bool"
						}
					],
					"stateMutability": "nonpayable",
					"type": "function"
				},
				{
					"inputs": [
						{
							"internalType": "address",
							"name": "newOwner",
							"type": "address"
						}
					],
					"name": "transferOwnership",
					"outputs": [],
					"stateMutability": "nonpayable",
					"type": "function"
				},
				{
					"inputs": [],
					"name": "unpause",
					"outputs": [],
					"stateMutability": "nonpayable",
					"type": "function"
				}
			],
			"devdoc": {
				"kind": "dev",
				"methods": {
					"allowance(address,address)": {
						"details": "See {IERC20-allowance}."
					},
					"approve(address,uint256)": {
						"details": "See {IERC20-approve}. Requirements: - `spender` cannot be the zero address."
					},
					"balanceOf(address)": {
						"details": "See {IERC20-balanceOf}."
					},
					"burn(uint256)": {
						"details": "Destroys `amount` tokens from the caller. See {ERC20-_burn}."
					},
					"burnFrom(address,uint256)": {
						"details": "Destroys `amount` tokens from `account`, deducting from the caller's allowance. See {ERC20-_burn} and {ERC20-allowance}. Requirements: - the caller must have allowance for ``accounts``'s tokens of at least `amount`."
					},
					"decimals()": {
						"details": "Returns the number of decimals used to get its user representation. For example, if `decimals` equals `2`, a balance of `505` tokens should be displayed to a user as `5.05` (`505 / 10 ** 2`). Tokens usually opt for a value of 18, imitating the relationship between Ether and Wei. This is the value {ERC20} uses, unless this function is overridden; NOTE: This information is only used for _display_ purposes: it in no way affects any of the arithmetic of the contract, including {IERC20-balanceOf} and {IERC20-transfer}."
					},
					"decreaseAllowance(address,uint256)": {
						"details": "Atomically decreases the allowance granted to `spender` by the caller. This is an alternative to {approve} that can be used as a mitigation for problems described in {IERC20-approve}. Emits an {Approval} event indicating the updated allowance. Requirements: - `spender` cannot be the zero address. - `spender` must have allowance for the caller of at least `subtractedValue`."
					},
					"increaseAllowance(address,uint256)": {
						"details": "Atomically increases the allowance granted to `spender` by the caller. This is an alternative to {approve} that can be used as a mitigation for problems described in {IERC20-approve}. Emits an {Approval} event indicating the updated allowance. Requirements: - `spender` cannot be the zero address."
					},
					"name()": {
						"details": "Returns the name of the token."
					},
					"owner()": {
						"details": "Returns the address of the current owner."
					},
					"paused()": {
						"details": "Returns true if the contract is paused, and false otherwise."
					},
					"renounceOwnership()": {
						"details": "Leaves the contract without owner. It will not be possible to call `onlyOwner` functions anymore. Can only be called by the current owner. NOTE: Renouncing ownership will leave the contract without an owner, thereby removing any functionality that is only available to the owner."
					},
					"symbol()": {
						"details": "Returns the symbol of the token, usually a shorter version of the name."
					},
					"totalSupply()": {
						"details": "See {IERC20-totalSupply}."
					},
					"transfer(address,uint256)": {
						"details": "See {IERC20-transfer}. Requirements: - `recipient` cannot be the zero address. - the caller must have a balance of at least `amount`."
					},
					"transferFrom(address,address,uint256)": {
						"details": "See {IERC20-transferFrom}. Emits an {Approval} event indicating the updated allowance. This is not required by the EIP. See the note at the beginning of {ERC20}. Requirements: - `sender` and `recipient` cannot be the zero address. - `sender` must have a balance of at least `amount`. - the caller must have allowance for ``sender``'s tokens of at least `amount`."
					},
					"transferOwnership(address)": {
						"details": "Transfers ownership of the contract to a new account (`newOwner`). Can only be called by the current owner."
					}
				},
				"version": 1
			},
			"evm": {
				"assembly": "    /* \"contracts/PVCMeta.sol\":21909:23295  contract PVCMETA is ERC20, ERC20Burnable, Pausable, Ownable {\r... */\n  mstore(0x40, 0x80)\n    /* \"contracts/PVCMeta.sol\":21976:22081  constructor() ERC20(\"PVC META\", \"PVC\") {\r... */\n  callvalue\n  dup1\n  iszero\n  tag_1\n  jumpi\n  0x00\n  dup1\n  revert\ntag_1:\n  pop\n    /* \"contracts/PVCMeta.sol\":8324:8440  constructor(string memory name_, string memory symbol_) {\r... */\n  mload(0x40)\n  dup1\n  0x40\n  add\n  0x40\n  mstore\n  dup1\n  0x08\n  dup2\n  mstore\n  0x20\n  add\n  0x505643204d455441000000000000000000000000000000000000000000000000\n  dup2\n  mstore\n  pop\n  mload(0x40)\n  dup1\n  0x40\n  add\n  0x40\n  mstore\n  dup1\n  0x03\n  dup2\n  mstore\n  0x20\n  add\n  0x5056430000000000000000000000000000000000000000000000000000000000\n  dup2\n  mstore\n  pop\n    /* \"contracts/PVCMeta.sol\":8399:8404  name_ */\n  dup2\n    /* \"contracts/PVCMeta.sol\":8391:8396  _name */\n  0x03\n    /* \"contracts/PVCMeta.sol\":8391:8404  _name = name_ */\n  swap1\n  dup1\n  mload\n  swap1\n  0x20\n  add\n  swap1\n  tag_7\n  swap3\n  swap2\n  swap1\n  tag_8\n  jump\t// in\ntag_7:\n  pop\n    /* \"contracts/PVCMeta.sol\":8425:8432  symbol_ */\n  dup1\n    /* \"contracts/PVCMeta.sol\":8415:8422  _symbol */\n  0x04\n    /* \"contracts/PVCMeta.sol\":8415:8432  _symbol = symbol_ */\n  swap1\n  dup1\n  mload\n  swap1\n  0x20\n  add\n  swap1\n  tag_9\n  swap3\n  swap2\n  swap1\n  tag_8\n  jump\t// in\ntag_9:\n  pop\n    /* \"contracts/PVCMeta.sol\":8324:8440  constructor(string memory name_, string memory symbol_) {\r... */\n  pop\n  pop\n    /* \"contracts/PVCMeta.sol\":4629:4634  false */\n  0x00\n    /* \"contracts/PVCMeta.sol\":4619:4626  _paused */\n  0x05\n  0x00\n    /* \"contracts/PVCMeta.sol\":4619:4634  _paused = false */\n  0x0100\n  exp\n  dup2\n  sload\n  dup2\n  0xff\n  mul\n  not\n  and\n  swap1\n  dup4\n  iszero\n  iszero\n  mul\n  or\n  swap1\n  sstore\n  pop\n    /* \"contracts/PVCMeta.sol\":20488:20511  _setOwner(_msgSender()) */\n  tag_12\n    /* \"contracts/PVCMeta.sol\":20498:20510  _msgSender() */\n  tag_13\n    /* \"contracts/PVCMeta.sol\":20498:20508  _msgSender */\n  shl(0x20, tag_14)\n    /* \"contracts/PVCMeta.sol\":20498:20510  _msgSender() */\n  0x20\n  shr\n  jump\t// in\ntag_13:\n    /* \"contracts/PVCMeta.sol\":20488:20497  _setOwner */\n  shl(0x20, tag_15)\n    /* \"contracts/PVCMeta.sol\":20488:20511  _setOwner(_msgSender()) */\n  0x20\n  shr\n  jump\t// in\ntag_12:\n    /* \"contracts/PVCMeta.sol\":22025:22073  _mint(msg.sender, 1500000000 * 10 ** decimals()) */\n  tag_17\n    /* \"contracts/PVCMeta.sol\":22031:22041  msg.sender */\n  caller\n    /* \"contracts/PVCMeta.sol\":22062:22072  decimals() */\n  tag_18\n    /* \"contracts/PVCMeta.sol\":22062:22070  decimals */\n  shl(0x20, tag_19)\n    /* \"contracts/PVCMeta.sol\":22062:22072  decimals() */\n  0x20\n  shr\n  jump\t// in\ntag_18:\n    /* \"contracts/PVCMeta.sol\":22056:22058  10 */\n  0x0a\n    /* \"contracts/PVCMeta.sol\":22056:22072  10 ** decimals() */\n  tag_20\n  swap2\n  swap1\n  tag_21\n  jump\t// in\ntag_20:\n    /* \"contracts/PVCMeta.sol\":22043:22053  1500000000 */\n  0x59682f00\n    /* \"contracts/PVCMeta.sol\":22043:22072  1500000000 * 10 ** decimals() */\n  tag_22\n  swap2\n  swap1\n  tag_23\n  jump\t// in\ntag_22:\n    /* \"contracts/PVCMeta.sol\":22025:22030  _mint */\n  shl(0x20, tag_24)\n    /* \"contracts/PVCMeta.sol\":22025:22073  _mint(msg.sender, 1500000000 * 10 ** decimals()) */\n  0x20\n  shr\n  jump\t// in\ntag_17:\n    /* \"contracts/PVCMeta.sol\":21909:23295  contract PVCMETA is ERC20, ERC20Burnable, Pausable, Ownable {\r... */\n  jump(tag_25)\n    /* \"contracts/PVCMeta.sol\":742:840  function _msgSender() internal view virtual returns (address) {\r... */\ntag_14:\n    /* \"contracts/PVCMeta.sol\":795:802  address */\n  0x00\n    /* \"contracts/PVCMeta.sol\":822:832  msg.sender */\n  caller\n    /* \"contracts/PVCMeta.sol\":815:832  return msg.sender */\n  swap1\n  pop\n    /* \"contracts/PVCMeta.sol\":742:840  function _msgSender() internal view virtual returns (address) {\r... */\n  swap1\n  jump\t// out\n    /* \"contracts/PVCMeta.sol\":21700:21873  function _setOwner(address newOwner) private {\r... */\ntag_15:\n    /* \"contracts/PVCMeta.sol\":21756:21772  address oldOwner */\n  0x00\n    /* \"contracts/PVCMeta.sol\":21775:21781  _owner */\n  0x05\n  0x01\n  swap1\n  sload\n  swap1\n  0x0100\n  exp\n  swap1\n  div\n  0xffffffffffffffffffffffffffffffffffffffff\n  and\n    /* \"contracts/PVCMeta.sol\":21756:21781  address oldOwner = _owner */\n  swap1\n  pop\n    /* \"contracts/PVCMeta.sol\":21801:21809  newOwner */\n  dup2\n    /* \"contracts/PVCMeta.sol\":21792:21798  _owner */\n  0x05\n  0x01\n    /* \"contracts/PVCMeta.sol\":21792:21809  _owner = newOwner */\n  0x0100\n  exp\n  dup2\n  sload\n  dup2\n  0xffffffffffffffffffffffffffffffffffffffff\n  mul\n  not\n  and\n  swap1\n  dup4\n  0xffffffffffffffffffffffffffffffffffffffff\n  and\n  mul\n  or\n  swap1\n  sstore\n  pop\n    /* \"contracts/PVCMeta.sol\":21856:21864  newOwner */\n  dup2\n    /* \"contracts/PVCMeta.sol\":21825:21865  OwnershipTransferred(oldOwner, newOwner) */\n  0xffffffffffffffffffffffffffffffffffffffff\n  and\n    /* \"contracts/PVCMeta.sol\":21846:21854  oldOwner */\n  dup2\n    /* \"contracts/PVCMeta.sol\":21825:21865  OwnershipTransferred(oldOwner, newOwner) */\n  0xffffffffffffffffffffffffffffffffffffffff\n  and\n  0x8be0079c531659141344cd1fd0a4f28419497f9722a3daafe3b4186f6b6457e0\n  mload(0x40)\n  mload(0x40)\n  dup1\n  swap2\n  sub\n  swap1\n  log3\n    /* \"contracts/PVCMeta.sol\":21745:21873  {\r... */\n  pop\n    /* \"contracts/PVCMeta.sol\":21700:21873  function _setOwner(address newOwner) private {\r... */\n  pop\n  jump\t// out\n    /* \"contracts/PVCMeta.sol\":9472:9564  function decimals() public view virtual override returns (uint8) {\r... */\ntag_19:\n    /* \"contracts/PVCMeta.sol\":9530:9535  uint8 */\n  0x00\n    /* \"contracts/PVCMeta.sol\":9555:9556  9 */\n  0x09\n    /* \"contracts/PVCMeta.sol\":9548:9556  return 9 */\n  swap1\n  pop\n    /* \"contracts/PVCMeta.sol\":9472:9564  function decimals() public view virtual override returns (uint8) {\r... */\n  swap1\n  jump\t// out\n    /* \"contracts/PVCMeta.sol\":14869:15268  function _mint(address account, uint256 amount) internal virtual {\r... */\ntag_24:\n    /* \"contracts/PVCMeta.sol\":14972:14973  0 */\n  0x00\n    /* \"contracts/PVCMeta.sol\":14953:14974  account != address(0) */\n  0xffffffffffffffffffffffffffffffffffffffff\n  and\n    /* \"contracts/PVCMeta.sol\":14953:14960  account */\n  dup3\n    /* \"contracts/PVCMeta.sol\":14953:14974  account != address(0) */\n  0xffffffffffffffffffffffffffffffffffffffff\n  and\n  eq\n  iszero\n    /* \"contracts/PVCMeta.sol\":14945:15010  require(account != address(0), \"ERC20: mint to the zero address\") */\n  tag_30\n  jumpi\n  mload(0x40)\n  0x08c379a000000000000000000000000000000000000000000000000000000000\n  dup2\n  mstore\n  0x04\n  add\n  tag_31\n  swap1\n  tag_32\n  jump\t// in\ntag_31:\n  mload(0x40)\n  dup1\n  swap2\n  sub\n  swap1\n  revert\ntag_30:\n    /* \"contracts/PVCMeta.sol\":15023:15072  _beforeTokenTransfer(address(0), account, amount) */\n  tag_33\n    /* \"contracts/PVCMeta.sol\":15052:15053  0 */\n  0x00\n    /* \"contracts/PVCMeta.sol\":15056:15063  account */\n  dup4\n    /* \"contracts/PVCMeta.sol\":15065:15071  amount */\n  dup4\n    /* \"contracts/PVCMeta.sol\":15023:15043  _beforeTokenTransfer */\n  shl(0x20, tag_34)\n    /* \"contracts/PVCMeta.sol\":15023:15072  _beforeTokenTransfer(address(0), account, amount) */\n  0x20\n  shr\n  jump\t// in\ntag_33:\n    /* \"contracts/PVCMeta.sol\":15101:15107  amount */\n  dup1\n    /* \"contracts/PVCMeta.sol\":15085:15097  _totalSupply */\n  0x02\n  0x00\n    /* \"contracts/PVCMeta.sol\":15085:15107  _totalSupply += amount */\n  dup3\n  dup3\n  sload\n  tag_35\n  swap2\n  swap1\n  tag_36\n  jump\t// in\ntag_35:\n  swap3\n  pop\n  pop\n  dup2\n  swap1\n  sstore\n  pop\n    /* \"contracts/PVCMeta.sol\":15140:15146  amount */\n  dup1\n    /* \"contracts/PVCMeta.sol\":15118:15127  _balances */\n  0x00\n    /* \"contracts/PVCMeta.sol\":15118:15136  _balances[account] */\n  dup1\n    /* \"contracts/PVCMeta.sol\":15128:15135  account */\n  dup5\n    /* \"contracts/PVCMeta.sol\":15118:15136  _balances[account] */\n  0xffffffffffffffffffffffffffffffffffffffff\n  and\n  0xffffffffffffffffffffffffffffffffffffffff\n  and\n  dup2\n  mstore\n  0x20\n  add\n  swap1\n  dup2\n  mstore\n  0x20\n  add\n  0x00\n  keccak256\n  0x00\n    /* \"contracts/PVCMeta.sol\":15118:15146  _balances[account] += amount */\n  dup3\n  dup3\n  sload\n  tag_37\n  swap2\n  swap1\n  tag_36\n  jump\t// in\ntag_37:\n  swap3\n  pop\n  pop\n  dup2\n  swap1\n  sstore\n  pop\n    /* \"contracts/PVCMeta.sol\":15183:15190  account */\n  dup2\n    /* \"contracts/PVCMeta.sol\":15162:15199  Transfer(address(0), account, amount) */\n  0xffffffffffffffffffffffffffffffffffffffff\n  and\n    /* \"contracts/PVCMeta.sol\":15179:15180  0 */\n  0x00\n    /* \"contracts/PVCMeta.sol\":15162:15199  Transfer(address(0), account, amount) */\n  0xffffffffffffffffffffffffffffffffffffffff\n  and\n  0xddf252ad1be2c89b69c2b068fc378daa952ba7f163c4a11628f55a4df523b3ef\n    /* \"contracts/PVCMeta.sol\":15192:15198  amount */\n  dup4\n    /* \"contracts/PVCMeta.sol\":15162:15199  Transfer(address(0), account, amount) */\n  mload(0x40)\n  tag_38\n  swap2\n  swap1\n  tag_39\n  jump\t// in\ntag_38:\n  mload(0x40)\n  dup1\n  swap2\n  sub\n  swap1\n  log3\n    /* \"contracts/PVCMeta.sol\":15212:15260  _afterTokenTransfer(address(0), account, amount) */\n  tag_40\n    /* \"contracts/PVCMeta.sol\":15240:15241  0 */\n  0x00\n    /* \"contracts/PVCMeta.sol\":15244:15251  account */\n  dup4\n    /* \"contracts/PVCMeta.sol\":15253:15259  amount */\n  dup4\n    /* \"contracts/PVCMeta.sol\":15212:15231  _afterTokenTransfer */\n  shl(0x20, tag_41)\n    /* \"contracts/PVCMeta.sol\":15212:15260  _afterTokenTransfer(address(0), account, amount) */\n  0x20\n  shr\n  jump\t// in\ntag_40:\n    /* \"contracts/PVCMeta.sol\":14869:15268  function _mint(address account, uint256 amount) internal virtual {\r... */\n  pop\n  pop\n  jump\t// out\n    /* \"contracts/PVCMeta.sol\":23093:23292  function _beforeTokenTransfer(address from, address to, uint256 amount)\r... */\ntag_34:\n    /* \"contracts/PVCMeta.sol\":5068:5076  paused() */\n  tag_43\n    /* \"contracts/PVCMeta.sol\":5068:5074  paused */\n  shl(0x20, tag_44)\n    /* \"contracts/PVCMeta.sol\":5068:5076  paused() */\n  0x20\n  shr\n  jump\t// in\ntag_43:\n    /* \"contracts/PVCMeta.sol\":5067:5076  !paused() */\n  iszero\n    /* \"contracts/PVCMeta.sol\":5059:5097  require(!paused(), \"Pausable: paused\") */\n  tag_45\n  jumpi\n  mload(0x40)\n  0x08c379a000000000000000000000000000000000000000000000000000000000\n  dup2\n  mstore\n  0x04\n  add\n  tag_46\n  swap1\n  tag_47\n  jump\t// in\ntag_46:\n  mload(0x40)\n  dup1\n  swap2\n  sub\n  swap1\n  revert\ntag_45:\n    /* \"contracts/PVCMeta.sol\":23240:23284  super._beforeTokenTransfer(from, to, amount) */\n  tag_49\n    /* \"contracts/PVCMeta.sol\":23267:23271  from */\n  dup4\n    /* \"contracts/PVCMeta.sol\":23273:23275  to */\n  dup4\n    /* \"contracts/PVCMeta.sol\":23277:23283  amount */\n  dup4\n    /* \"contracts/PVCMeta.sol\":23240:23266  super._beforeTokenTransfer */\n  or(tag_0_102, shl(0x20, tag_50))\n    /* \"contracts/PVCMeta.sol\":23240:23284  super._beforeTokenTransfer(from, to, amount) */\n  0x20\n  shr\n  jump\t// in\ntag_49:\n    /* \"contracts/PVCMeta.sol\":23093:23292  function _beforeTokenTransfer(address from, address to, uint256 amount)\r... */\n  pop\n  pop\n  pop\n  jump\t// out\n    /* \"contracts/PVCMeta.sol\":18339:18463  function _afterTokenTransfer(\r... */\ntag_41:\n  pop\n  pop\n  pop\n  jump\t// out\n    /* \"contracts/PVCMeta.sol\":4742:4828  function paused() public view virtual returns (bool) {\r... */\ntag_44:\n    /* \"contracts/PVCMeta.sol\":4789:4793  bool */\n  0x00\n    /* \"contracts/PVCMeta.sol\":4813:4820  _paused */\n  0x05\n  0x00\n  swap1\n  sload\n  swap1\n  0x0100\n  exp\n  swap1\n  div\n  0xff\n  and\n    /* \"contracts/PVCMeta.sol\":4806:4820  return _paused */\n  swap1\n  pop\n    /* \"contracts/PVCMeta.sol\":4742:4828  function paused() public view virtual returns (bool) {\r... */\n  swap1\n  jump\t// out\n    /* \"contracts/PVCMeta.sol\":17610:17735  function _beforeTokenTransfer(\r... */\ntag_50:\n  pop\n  pop\n  pop\n  jump\t// out\n    /* \"contracts/PVCMeta.sol\":21909:23295  contract PVCMETA is ERC20, ERC20Burnable, Pausable, Ownable {\r... */\ntag_8:\n  dup3\n  dup1\n  sload\n  tag_54\n  swap1\n  tag_55\n  jump\t// in\ntag_54:\n  swap1\n  0x00\n  mstore\n  keccak256(0x00, 0x20)\n  swap1\n  0x1f\n  add\n  0x20\n  swap1\n  div\n  dup2\n  add\n  swap3\n  dup3\n  tag_57\n  jumpi\n  0x00\n  dup6\n  sstore\n  jump(tag_56)\ntag_57:\n  dup3\n  0x1f\n  lt\n  tag_58\n  jumpi\n  dup1\n  mload\n  not(0xff)\n  and\n  dup4\n  dup1\n  add\n  or\n  dup6\n  sstore\n  jump(tag_56)\ntag_58:\n  dup3\n  dup1\n  add\n  0x01\n  add\n  dup6\n  sstore\n  dup3\n  iszero\n  tag_56\n  jumpi\n  swap2\n  dup3\n  add\ntag_59:\n  dup3\n  dup2\n  gt\n  iszero\n  tag_60\n  jumpi\n  dup3\n  mload\n  dup3\n  sstore\n  swap2\n  0x20\n  add\n  swap2\n  swap1\n  0x01\n  add\n  swap1\n  jump(tag_59)\ntag_60:\ntag_56:\n  pop\n  swap1\n  pop\n  tag_61\n  swap2\n  swap1\n  tag_62\n  jump\t// in\ntag_61:\n  pop\n  swap1\n  jump\t// out\ntag_62:\ntag_63:\n  dup1\n  dup3\n  gt\n  iszero\n  tag_64\n  jumpi\n  0x00\n  dup2\n  0x00\n  swap1\n  sstore\n  pop\n  0x01\n  add\n  jump(tag_63)\ntag_64:\n  pop\n  swap1\n  jump\t// out\n    /* \"#utility.yul\":7:373   */\ntag_66:\n    /* \"#utility.yul\":149:152   */\n  0x00\n    /* \"#utility.yul\":170:237   */\n  tag_68\n    /* \"#utility.yul\":234:236   */\n  0x10\n    /* \"#utility.yul\":229:232   */\n  dup4\n    /* \"#utility.yul\":170:237   */\n  tag_69\n  jump\t// in\ntag_68:\n    /* \"#utility.yul\":163:237   */\n  swap2\n  pop\n    /* \"#utility.yul\":246:339   */\n  tag_70\n    /* \"#utility.yul\":335:338   */\n  dup3\n    /* \"#utility.yul\":246:339   */\n  tag_71\n  jump\t// in\ntag_70:\n    /* \"#utility.yul\":364:366   */\n  0x20\n    /* \"#utility.yul\":359:362   */\n  dup3\n    /* \"#utility.yul\":355:367   */\n  add\n    /* \"#utility.yul\":348:367   */\n  swap1\n  pop\n    /* \"#utility.yul\":7:373   */\n  swap2\n  swap1\n  pop\n  jump\t// out\n    /* \"#utility.yul\":379:745   */\ntag_72:\n    /* \"#utility.yul\":521:524   */\n  0x00\n    /* \"#utility.yul\":542:609   */\n  tag_74\n    /* \"#utility.yul\":606:608   */\n  0x1f\n    /* \"#utility.yul\":601:604   */\n  dup4\n    /* \"#utility.yul\":542:609   */\n  tag_69\n  jump\t// in\ntag_74:\n    /* \"#utility.yul\":535:609   */\n  swap2\n  pop\n    /* \"#utility.yul\":618:711   */\n  tag_75\n    /* \"#utility.yul\":707:710   */\n  dup3\n    /* \"#utility.yul\":618:711   */\n  tag_76\n  jump\t// in\ntag_75:\n    /* \"#utility.yul\":736:738   */\n  0x20\n    /* \"#utility.yul\":731:734   */\n  dup3\n    /* \"#utility.yul\":727:739   */\n  add\n    /* \"#utility.yul\":720:739   */\n  swap1\n  pop\n    /* \"#utility.yul\":379:745   */\n  swap2\n  swap1\n  pop\n  jump\t// out\n    /* \"#utility.yul\":751:869   */\ntag_77:\n    /* \"#utility.yul\":838:862   */\n  tag_79\n    /* \"#utility.yul\":856:861   */\n  dup2\n    /* \"#utility.yul\":838:862   */\n  tag_80\n  jump\t// in\ntag_79:\n    /* \"#utility.yul\":833:836   */\n  dup3\n    /* \"#utility.yul\":826:863   */\n  mstore\n    /* \"#utility.yul\":751:869   */\n  pop\n  pop\n  jump\t// out\n    /* \"#utility.yul\":875:1294   */\ntag_47:\n    /* \"#utility.yul\":1041:1045   */\n  0x00\n    /* \"#utility.yul\":1079:1081   */\n  0x20\n    /* \"#utility.yul\":1068:1077   */\n  dup3\n    /* \"#utility.yul\":1064:1082   */\n  add\n    /* \"#utility.yul\":1056:1082   */\n  swap1\n  pop\n    /* \"#utility.yul\":1128:1137   */\n  dup2\n    /* \"#utility.yul\":1122:1126   */\n  dup2\n    /* \"#utility.yul\":1118:1138   */\n  sub\n    /* \"#utility.yul\":1114:1115   */\n  0x00\n    /* \"#utility.yul\":1103:1112   */\n  dup4\n    /* \"#utility.yul\":1099:1116   */\n  add\n    /* \"#utility.yul\":1092:1139   */\n  mstore\n    /* \"#utility.yul\":1156:1287   */\n  tag_82\n    /* \"#utility.yul\":1282:1286   */\n  dup2\n    /* \"#utility.yul\":1156:1287   */\n  tag_66\n  jump\t// in\ntag_82:\n    /* \"#utility.yul\":1148:1287   */\n  swap1\n  pop\n    /* \"#utility.yul\":875:1294   */\n  swap2\n  swap1\n  pop\n  jump\t// out\n    /* \"#utility.yul\":1300:1719   */\ntag_32:\n    /* \"#utility.yul\":1466:1470   */\n  0x00\n    /* \"#utility.yul\":1504:1506   */\n  0x20\n    /* \"#utility.yul\":1493:1502   */\n  dup3\n    /* \"#utility.yul\":1489:1507   */\n  add\n    /* \"#utility.yul\":1481:1507   */\n  swap1\n  pop\n    /* \"#utility.yul\":1553:1562   */\n  dup2\n    /* \"#utility.yul\":1547:1551   */\n  dup2\n    /* \"#utility.yul\":1543:1563   */\n  sub\n    /* \"#utility.yul\":1539:1540   */\n  0x00\n    /* \"#utility.yul\":1528:1537   */\n  dup4\n    /* \"#utility.yul\":1524:1541   */\n  add\n    /* \"#utility.yul\":1517:1564   */\n  mstore\n    /* \"#utility.yul\":1581:1712   */\n  tag_84\n    /* \"#utility.yul\":1707:1711   */\n  dup2\n    /* \"#utility.yul\":1581:1712   */\n  tag_72\n  jump\t// in\ntag_84:\n    /* \"#utility.yul\":1573:1712   */\n  swap1\n  pop\n    /* \"#utility.yul\":1300:1719   */\n  swap2\n  swap1\n  pop\n  jump\t// out\n    /* \"#utility.yul\":1725:1947   */\ntag_39:\n    /* \"#utility.yul\":1818:1822   */\n  0x00\n    /* \"#utility.yul\":1856:1858   */\n  0x20\n    /* \"#utility.yul\":1845:1854   */\n  dup3\n    /* \"#utility.yul\":1841:1859   */\n  add\n    /* \"#utility.yul\":1833:1859   */\n  swap1\n  pop\n    /* \"#utility.yul\":1869:1940   */\n  tag_86\n    /* \"#utility.yul\":1937:1938   */\n  0x00\n    /* \"#utility.yul\":1926:1935   */\n  dup4\n    /* \"#utility.yul\":1922:1939   */\n  add\n    /* \"#utility.yul\":1913:1919   */\n  dup5\n    /* \"#utility.yul\":1869:1940   */\n  tag_77\n  jump\t// in\ntag_86:\n    /* \"#utility.yul\":1725:1947   */\n  swap3\n  swap2\n  pop\n  pop\n  jump\t// out\n    /* \"#utility.yul\":1953:2122   */\ntag_69:\n    /* \"#utility.yul\":2037:2048   */\n  0x00\n    /* \"#utility.yul\":2071:2077   */\n  dup3\n    /* \"#utility.yul\":2066:2069   */\n  dup3\n    /* \"#utility.yul\":2059:2078   */\n  mstore\n    /* \"#utility.yul\":2111:2115   */\n  0x20\n    /* \"#utility.yul\":2106:2109   */\n  dup3\n    /* \"#utility.yul\":2102:2116   */\n  add\n    /* \"#utility.yul\":2087:2116   */\n  swap1\n  pop\n    /* \"#utility.yul\":1953:2122   */\n  swap3\n  swap2\n  pop\n  pop\n  jump\t// out\n    /* \"#utility.yul\":2128:2433   */\ntag_36:\n    /* \"#utility.yul\":2168:2171   */\n  0x00\n    /* \"#utility.yul\":2187:2207   */\n  tag_89\n    /* \"#utility.yul\":2205:2206   */\n  dup3\n    /* \"#utility.yul\":2187:2207   */\n  tag_80\n  jump\t// in\ntag_89:\n    /* \"#utility.yul\":2182:2207   */\n  swap2\n  pop\n    /* \"#utility.yul\":2221:2241   */\n  tag_90\n    /* \"#utility.yul\":2239:2240   */\n  dup4\n    /* \"#utility.yul\":2221:2241   */\n  tag_80\n  jump\t// in\ntag_90:\n    /* \"#utility.yul\":2216:2241   */\n  swap3\n  pop\n    /* \"#utility.yul\":2375:2376   */\n  dup3\n    /* \"#utility.yul\":2307:2373   */\n  0xffffffffffffffffffffffffffffffffffffffffffffffffffffffffffffffff\n    /* \"#utility.yul\":2303:2377   */\n  sub\n    /* \"#utility.yul\":2300:2301   */\n  dup3\n    /* \"#utility.yul\":2297:2378   */\n  gt\n    /* \"#utility.yul\":2294:2401   */\n  iszero\n  tag_91\n  jumpi\n    /* \"#utility.yul\":2381:2399   */\n  tag_92\n  tag_93\n  jump\t// in\ntag_92:\n    /* \"#utility.yul\":2294:2401   */\ntag_91:\n    /* \"#utility.yul\":2425:2426   */\n  dup3\n    /* \"#utility.yul\":2422:2423   */\n  dup3\n    /* \"#utility.yul\":2418:2427   */\n  add\n    /* \"#utility.yul\":2411:2427   */\n  swap1\n  pop\n    /* \"#utility.yul\":2128:2433   */\n  swap3\n  swap2\n  pop\n  pop\n  jump\t// out\n    /* \"#utility.yul\":2439:3287   */\ntag_94:\n    /* \"#utility.yul\":2500:2505   */\n  0x00\n    /* \"#utility.yul\":2507:2511   */\n  dup1\n    /* \"#utility.yul\":2531:2537   */\n  dup3\n    /* \"#utility.yul\":2522:2537   */\n  swap2\n  pop\n    /* \"#utility.yul\":2555:2560   */\n  dup4\n    /* \"#utility.yul\":2546:2560   */\n  swap1\n  pop\n    /* \"#utility.yul\":2569:3281   */\ntag_96:\n    /* \"#utility.yul\":2590:2591   */\n  0x01\n    /* \"#utility.yul\":2580:2588   */\n  dup6\n    /* \"#utility.yul\":2577:2592   */\n  gt\n    /* \"#utility.yul\":2569:3281   */\n  iszero\n  tag_98\n  jumpi\n    /* \"#utility.yul\":2685:2689   */\n  dup1\n    /* \"#utility.yul\":2680:2683   */\n  dup7\n    /* \"#utility.yul\":2676:2690   */\n  div\n    /* \"#utility.yul\":2670:2674   */\n  dup2\n    /* \"#utility.yul\":2667:2691   */\n  gt\n    /* \"#utility.yul\":2664:2714   */\n  iszero\n  tag_99\n  jumpi\n    /* \"#utility.yul\":2694:2712   */\n  tag_100\n  tag_93\n  jump\t// in\ntag_100:\n    /* \"#utility.yul\":2664:2714   */\ntag_99:\n    /* \"#utility.yul\":2744:2745   */\n  0x01\n    /* \"#utility.yul\":2734:2742   */\n  dup6\n    /* \"#utility.yul\":2730:2746   */\n  and\n    /* \"#utility.yul\":2727:3178   */\n  iszero\n  tag_101\n  jumpi\n    /* \"#utility.yul\":3159:3163   */\n  dup1\n    /* \"#utility.yul\":3152:3157   */\n  dup3\n    /* \"#utility.yul\":3148:3164   */\n  mul\n    /* \"#utility.yul\":3139:3164   */\n  swap2\n  pop\n    /* \"#utility.yul\":2727:3178   */\ntag_101:\n    /* \"#utility.yul\":3209:3213   */\n  dup1\n    /* \"#utility.yul\":3203:3207   */\n  dup2\n    /* \"#utility.yul\":3199:3214   */\n  mul\n    /* \"#utility.yul\":3191:3214   */\n  swap1\n  pop\n    /* \"#utility.yul\":3239:3271   */\n  tag_102\n    /* \"#utility.yul\":3262:3270   */\n  dup6\n    /* \"#utility.yul\":3239:3271   */\n  tag_103\n  jump\t// in\ntag_102:\n    /* \"#utility.yul\":3227:3271   */\n  swap5\n  pop\n    /* \"#utility.yul\":2569:3281   */\n  jump(tag_96)\ntag_98:\n    /* \"#utility.yul\":2439:3287   */\n  swap5\n  pop\n  swap5\n  swap3\n  pop\n  pop\n  pop\n  jump\t// out\n    /* \"#utility.yul\":3293:3574   */\ntag_21:\n    /* \"#utility.yul\":3351:3356   */\n  0x00\n    /* \"#utility.yul\":3375:3398   */\n  tag_105\n    /* \"#utility.yul\":3393:3397   */\n  dup3\n    /* \"#utility.yul\":3375:3398   */\n  tag_80\n  jump\t// in\ntag_105:\n    /* \"#utility.yul\":3367:3398   */\n  swap2\n  pop\n    /* \"#utility.yul\":3419:3444   */\n  tag_106\n    /* \"#utility.yul\":3435:3443   */\n  dup4\n    /* \"#utility.yul\":3419:3444   */\n  tag_107\n  jump\t// in\ntag_106:\n    /* \"#utility.yul\":3407:3444   */\n  swap3\n  pop\n    /* \"#utility.yul\":3463:3567   */\n  tag_108\n    /* \"#utility.yul\":3500:3566   */\n  0xffffffffffffffffffffffffffffffffffffffffffffffffffffffffffffffff\n    /* \"#utility.yul\":3490:3498   */\n  dup5\n    /* \"#utility.yul\":3484:3488   */\n  dup5\n    /* \"#utility.yul\":3463:3567   */\n  tag_109\n  jump\t// in\ntag_108:\n    /* \"#utility.yul\":3454:3567   */\n  swap1\n  pop\n    /* \"#utility.yul\":3293:3574   */\n  swap3\n  swap2\n  pop\n  pop\n  jump\t// out\n    /* \"#utility.yul\":3580:4653   */\ntag_109:\n    /* \"#utility.yul\":3634:3639   */\n  0x00\n    /* \"#utility.yul\":3825:3833   */\n  dup3\n    /* \"#utility.yul\":3815:3855   */\n  tag_111\n  jumpi\n    /* \"#utility.yul\":3846:3847   */\n  0x01\n    /* \"#utility.yul\":3837:3847   */\n  swap1\n  pop\n    /* \"#utility.yul\":3848:3853   */\n  jump(tag_110)\n    /* \"#utility.yul\":3815:3855   */\ntag_111:\n    /* \"#utility.yul\":3874:3878   */\n  dup2\n    /* \"#utility.yul\":3864:3900   */\n  tag_112\n  jumpi\n    /* \"#utility.yul\":3891:3892   */\n  0x00\n    /* \"#utility.yul\":3882:3892   */\n  swap1\n  pop\n    /* \"#utility.yul\":3893:3898   */\n  jump(tag_110)\n    /* \"#utility.yul\":3864:3900   */\ntag_112:\n    /* \"#utility.yul\":3960:3964   */\n  dup2\n    /* \"#utility.yul\":4008:4009   */\n  0x01\n    /* \"#utility.yul\":4003:4030   */\n  dup2\n  eq\n  tag_114\n  jumpi\n    /* \"#utility.yul\":4044:4045   */\n  0x02\n    /* \"#utility.yul\":4039:4230   */\n  dup2\n  eq\n  tag_115\n  jumpi\n    /* \"#utility.yul\":3953:4230   */\n  jump(tag_113)\n    /* \"#utility.yul\":4003:4030   */\ntag_114:\n    /* \"#utility.yul\":4021:4022   */\n  0x01\n    /* \"#utility.yul\":4012:4022   */\n  swap2\n  pop\n    /* \"#utility.yul\":4023:4028   */\n  pop\n  jump(tag_110)\n    /* \"#utility.yul\":4039:4230   */\ntag_115:\n    /* \"#utility.yul\":4084:4087   */\n  0xff\n    /* \"#utility.yul\":4074:4082   */\n  dup5\n    /* \"#utility.yul\":4071:4088   */\n  gt\n    /* \"#utility.yul\":4068:4111   */\n  iszero\n  tag_116\n  jumpi\n    /* \"#utility.yul\":4091:4109   */\n  tag_117\n  tag_93\n  jump\t// in\ntag_117:\n    /* \"#utility.yul\":4068:4111   */\ntag_116:\n    /* \"#utility.yul\":4140:4148   */\n  dup4\n    /* \"#utility.yul\":4137:4138   */\n  0x02\n    /* \"#utility.yul\":4133:4149   */\n  exp\n    /* \"#utility.yul\":4124:4149   */\n  swap2\n  pop\n    /* \"#utility.yul\":4175:4178   */\n  dup5\n    /* \"#utility.yul\":4168:4173   */\n  dup3\n    /* \"#utility.yul\":4165:4179   */\n  gt\n    /* \"#utility.yul\":4162:4202   */\n  iszero\n  tag_118\n  jumpi\n    /* \"#utility.yul\":4182:4200   */\n  tag_119\n  tag_93\n  jump\t// in\ntag_119:\n    /* \"#utility.yul\":4162:4202   */\ntag_118:\n    /* \"#utility.yul\":4215:4220   */\n  pop\n  jump(tag_110)\n    /* \"#utility.yul\":3953:4230   */\ntag_113:\n  pop\n    /* \"#utility.yul\":4339:4341   */\n  0x20\n    /* \"#utility.yul\":4329:4337   */\n  dup4\n    /* \"#utility.yul\":4326:4342   */\n  lt\n    /* \"#utility.yul\":4320:4323   */\n  0x0133\n    /* \"#utility.yul\":4314:4318   */\n  dup4\n    /* \"#utility.yul\":4311:4324   */\n  lt\n    /* \"#utility.yul\":4307:4343   */\n  and\n    /* \"#utility.yul\":4289:4291   */\n  0x4e\n    /* \"#utility.yul\":4279:4287   */\n  dup5\n    /* \"#utility.yul\":4276:4292   */\n  lt\n    /* \"#utility.yul\":4271:4273   */\n  0x0b\n    /* \"#utility.yul\":4265:4269   */\n  dup5\n    /* \"#utility.yul\":4262:4274   */\n  lt\n    /* \"#utility.yul\":4258:4293   */\n  and\n    /* \"#utility.yul\":4242:4353   */\n  or\n    /* \"#utility.yul\":4239:4485   */\n  iszero\n  tag_120\n  jumpi\n    /* \"#utility.yul\":4395:4403   */\n  dup3\n    /* \"#utility.yul\":4389:4393   */\n  dup3\n    /* \"#utility.yul\":4385:4404   */\n  exp\n    /* \"#utility.yul\":4376:4404   */\n  swap1\n  pop\n    /* \"#utility.yul\":4430:4433   */\n  dup4\n    /* \"#utility.yul\":4423:4428   */\n  dup2\n    /* \"#utility.yul\":4420:4434   */\n  gt\n    /* \"#utility.yul\":4417:4457   */\n  iszero\n  tag_121\n  jumpi\n    /* \"#utility.yul\":4437:4455   */\n  tag_122\n  tag_93\n  jump\t// in\ntag_122:\n    /* \"#utility.yul\":4417:4457   */\ntag_121:\n    /* \"#utility.yul\":4470:4475   */\n  jump(tag_110)\n    /* \"#utility.yul\":4239:4485   */\ntag_120:\n    /* \"#utility.yul\":4510:4552   */\n  tag_123\n    /* \"#utility.yul\":4548:4551   */\n  dup5\n    /* \"#utility.yul\":4538:4546   */\n  dup5\n    /* \"#utility.yul\":4532:4536   */\n  dup5\n    /* \"#utility.yul\":4529:4530   */\n  0x01\n    /* \"#utility.yul\":4510:4552   */\n  tag_94\n  jump\t// in\ntag_123:\n    /* \"#utility.yul\":4495:4552   */\n  swap3\n  pop\n  swap1\n  pop\n    /* \"#utility.yul\":4584:4588   */\n  dup2\n    /* \"#utility.yul\":4579:4582   */\n  dup5\n    /* \"#utility.yul\":4575:4589   */\n  div\n    /* \"#utility.yul\":4568:4573   */\n  dup2\n    /* \"#utility.yul\":4565:4590   */\n  gt\n    /* \"#utility.yul\":4562:4613   */\n  iszero\n  tag_124\n  jumpi\n    /* \"#utility.yul\":4593:4611   */\n  tag_125\n  tag_93\n  jump\t// in\ntag_125:\n    /* \"#utility.yul\":4562:4613   */\ntag_124:\n    /* \"#utility.yul\":4642:4646   */\n  dup2\n    /* \"#utility.yul\":4635:4640   */\n  dup2\n    /* \"#utility.yul\":4631:4647   */\n  mul\n    /* \"#utility.yul\":4622:4647   */\n  swap1\n  pop\n    /* \"#utility.yul\":3580:4653   */\ntag_110:\n  swap4\n  swap3\n  pop\n  pop\n  pop\n  jump\t// out\n    /* \"#utility.yul\":4659:5007   */\ntag_23:\n    /* \"#utility.yul\":4699:4706   */\n  0x00\n    /* \"#utility.yul\":4722:4742   */\n  tag_127\n    /* \"#utility.yul\":4740:4741   */\n  dup3\n    /* \"#utility.yul\":4722:4742   */\n  tag_80\n  jump\t// in\ntag_127:\n    /* \"#utility.yul\":4717:4742   */\n  swap2\n  pop\n    /* \"#utility.yul\":4756:4776   */\n  tag_128\n    /* \"#utility.yul\":4774:4775   */\n  dup4\n    /* \"#utility.yul\":4756:4776   */\n  tag_80\n  jump\t// in\ntag_128:\n    /* \"#utility.yul\":4751:4776   */\n  swap3\n  pop\n    /* \"#utility.yul\":4944:4945   */\n  dup2\n    /* \"#utility.yul\":4876:4942   */\n  0xffffffffffffffffffffffffffffffffffffffffffffffffffffffffffffffff\n    /* \"#utility.yul\":4872:4946   */\n  div\n    /* \"#utility.yul\":4869:4870   */\n  dup4\n    /* \"#utility.yul\":4866:4947   */\n  gt\n    /* \"#utility.yul\":4861:4862   */\n  dup3\n    /* \"#utility.yul\":4854:4863   */\n  iszero\n    /* \"#utility.yul\":4847:4864   */\n  iszero\n    /* \"#utility.yul\":4843:4948   */\n  and\n    /* \"#utility.yul\":4840:4971   */\n  iszero\n  tag_129\n  jumpi\n    /* \"#utility.yul\":4951:4969   */\n  tag_130\n  tag_93\n  jump\t// in\ntag_130:\n    /* \"#utility.yul\":4840:4971   */\ntag_129:\n    /* \"#utility.yul\":4999:5000   */\n  dup3\n    /* \"#utility.yul\":4996:4997   */\n  dup3\n    /* \"#utility.yul\":4992:5001   */\n  mul\n    /* \"#utility.yul\":4981:5001   */\n  swap1\n  pop\n    /* \"#utility.yul\":4659:5007   */\n  swap3\n  swap2\n  pop\n  pop\n  jump\t// out\n    /* \"#utility.yul\":5013:5090   */\ntag_80:\n    /* \"#utility.yul\":5050:5057   */\n  0x00\n    /* \"#utility.yul\":5079:5084   */\n  dup2\n    /* \"#utility.yul\":5068:5084   */\n  swap1\n  pop\n    /* \"#utility.yul\":5013:5090   */\n  swap2\n  swap1\n  pop\n  jump\t// out\n    /* \"#utility.yul\":5096:5182   */\ntag_107:\n    /* \"#utility.yul\":5131:5138   */\n  0x00\n    /* \"#utility.yul\":5171:5175   */\n  0xff\n    /* \"#utility.yul\":5164:5169   */\n  dup3\n    /* \"#utility.yul\":5160:5176   */\n  and\n    /* \"#utility.yul\":5149:5176   */\n  swap1\n  pop\n    /* \"#utility.yul\":5096:5182   */\n  swap2\n  swap1\n  pop\n  jump\t// out\n    /* \"#utility.yul\":5188:5508   */\ntag_55:\n    /* \"#utility.yul\":5232:5238   */\n  0x00\n    /* \"#utility.yul\":5269:5270   */\n  0x02\n    /* \"#utility.yul\":5263:5267   */\n  dup3\n    /* \"#utility.yul\":5259:5271   */\n  div\n    /* \"#utility.yul\":5249:5271   */\n  swap1\n  pop\n    /* \"#utility.yul\":5316:5317   */\n  0x01\n    /* \"#utility.yul\":5310:5314   */\n  dup3\n    /* \"#utility.yul\":5306:5318   */\n  and\n    /* \"#utility.yul\":5337:5355   */\n  dup1\n    /* \"#utility.yul\":5327:5408   */\n  tag_134\n  jumpi\n    /* \"#utility.yul\":5393:5397   */\n  0x7f\n    /* \"#utility.yul\":5385:5391   */\n  dup3\n    /* \"#utility.yul\":5381:5398   */\n  and\n    /* \"#utility.yul\":5371:5398   */\n  swap2\n  pop\n    /* \"#utility.yul\":5327:5408   */\ntag_134:\n    /* \"#utility.yul\":5455:5457   */\n  0x20\n    /* \"#utility.yul\":5447:5453   */\n  dup3\n    /* \"#utility.yul\":5444:5458   */\n  lt\n    /* \"#utility.yul\":5424:5442   */\n  dup2\n    /* \"#utility.yul\":5421:5459   */\n  eq\n    /* \"#utility.yul\":5418:5502   */\n  iszero\n  tag_135\n  jumpi\n    /* \"#utility.yul\":5474:5492   */\n  tag_136\n  tag_137\n  jump\t// in\ntag_136:\n    /* \"#utility.yul\":5418:5502   */\ntag_135:\n    /* \"#utility.yul\":5239:5508   */\n  pop\n    /* \"#utility.yul\":5188:5508   */\n  swap2\n  swap1\n  pop\n  jump\t// out\n    /* \"#utility.yul\":5514:5694   */\ntag_93:\n    /* \"#utility.yul\":5562:5639   */\n  0x4e487b7100000000000000000000000000000000000000000000000000000000\n    /* \"#utility.yul\":5559:5560   */\n  0x00\n    /* \"#utility.yul\":5552:5640   */\n  mstore\n    /* \"#utility.yul\":5659:5663   */\n  0x11\n    /* \"#utility.yul\":5656:5657   */\n  0x04\n    /* \"#utility.yul\":5649:5664   */\n  mstore\n    /* \"#utility.yul\":5683:5687   */\n  0x24\n    /* \"#utility.yul\":5680:5681   */\n  0x00\n    /* \"#utility.yul\":5673:5688   */\n  revert\n    /* \"#utility.yul\":5700:5880   */\ntag_137:\n    /* \"#utility.yul\":5748:5825   */\n  0x4e487b7100000000000000000000000000000000000000000000000000000000\n    /* \"#utility.yul\":5745:5746   */\n  0x00\n    /* \"#utility.yul\":5738:5826   */\n  mstore\n    /* \"#utility.yul\":5845:5849   */\n  0x22\n    /* \"#utility.yul\":5842:5843   */\n  0x04\n    /* \"#utility.yul\":5835:5850   */\n  mstore\n    /* \"#utility.yul\":5869:5873   */\n  0x24\n    /* \"#utility.yul\":5866:5867   */\n  0x00\n    /* \"#utility.yul\":5859:5874   */\n  revert\n    /* \"#utility.yul\":5886:5988   */\ntag_103:\n    /* \"#utility.yul\":5928:5936   */\n  0x00\n    /* \"#utility.yul\":5975:5980   */\n  dup2\n    /* \"#utility.yul\":5972:5973   */\n  0x01\n    /* \"#utility.yul\":5968:5981   */\n  shr\n    /* \"#utility.yul\":5947:5981   */\n  swap1\n  pop\n    /* \"#utility.yul\":5886:5988   */\n  swap2\n  swap1\n  pop\n  jump\t// out\n    /* \"#utility.yul\":5994:6160   */\ntag_71:\n    /* \"#utility.yul\":6134:6152   */\n  0x5061757361626c653a2070617573656400000000000000000000000000000000\n    /* \"#utility.yul\":6130:6131   */\n  0x00\n    /* \"#utility.yul\":6122:6128   */\n  dup3\n    /* \"#utility.yul\":6118:6132   */\n  add\n    /* \"#utility.yul\":6111:6153   */\n  mstore\n    /* \"#utility.yul\":5994:6160   */\n  pop\n  jump\t// out\n    /* \"#utility.yul\":6166:6347   */\ntag_76:\n    /* \"#utility.yul\":6306:6339   */\n  0x45524332303a206d696e7420746f20746865207a65726f206164647265737300\n    /* \"#utility.yul\":6302:6303   */\n  0x00\n    /* \"#utility.yul\":6294:6300   */\n  dup3\n    /* \"#utility.yul\":6290:6304   */\n  add\n    /* \"#utility.yul\":6283:6340   */\n  mstore\n    /* \"#utility.yul\":6166:6347   */\n  pop\n  jump\t// out\n    /* \"contracts/PVCMeta.sol\":21909:23295  contract PVCMETA is ERC20, ERC20Burnable, Pausable, Ownable {\r... */\ntag_25:\n  dataSize(sub_0)\n  dup1\n  dataOffset(sub_0)\n  0x00\n  codecopy\n  0x00\n  return\nstop\n\nsub_0: assembly {\n        /* \"contracts/PVCMeta.sol\":21909:23295  contract PVCMETA is ERC20, ERC20Burnable, Pausable, Ownable {\r... */\n      mstore(0x40, 0x80)\n      callvalue\n      dup1\n      iszero\n      tag_1\n      jumpi\n      0x00\n      dup1\n      revert\n    tag_1:\n      pop\n      jumpi(tag_2, lt(calldatasize, 0x04))\n      shr(0xe0, calldataload(0x00))\n      dup1\n      0x715018a6\n      gt\n      tag_23\n      jumpi\n      dup1\n      0xa457c2d7\n      gt\n      tag_24\n      jumpi\n      dup1\n      0xa457c2d7\n      eq\n      tag_18\n      jumpi\n      dup1\n      0xa9059cbb\n      eq\n      tag_19\n      jumpi\n      dup1\n      0xa972f673\n      eq\n      tag_20\n      jumpi\n      dup1\n      0xdd62ed3e\n      eq\n      tag_21\n      jumpi\n      dup1\n      0xf2fde38b\n      eq\n      tag_22\n      jumpi\n      jump(tag_2)\n    tag_24:\n      dup1\n      0x715018a6\n      eq\n      tag_13\n      jumpi\n      dup1\n      0x79cc6790\n      eq\n      tag_14\n      jumpi\n      dup1\n      0x8456cb59\n      eq\n      tag_15\n      jumpi\n      dup1\n      0x8da5cb5b\n      eq\n      tag_16\n      jumpi\n      dup1\n      0x95d89b41\n      eq\n      tag_17\n      jumpi\n      jump(tag_2)\n    tag_23:\n      dup1\n      0x39509351\n      gt\n      tag_25\n      jumpi\n      dup1\n      0x39509351\n      eq\n      tag_8\n      jumpi\n      dup1\n      0x3f4ba83a\n      eq\n      tag_9\n      jumpi\n      dup1\n      0x42966c68\n      eq\n      tag_10\n      jumpi\n      dup1\n      0x5c975abb\n      eq\n      tag_11\n      jumpi\n      dup1\n      0x70a08231\n      eq\n      tag_12\n      jumpi\n      jump(tag_2)\n    tag_25:\n      dup1\n      0x06fdde03\n      eq\n      tag_3\n      jumpi\n      dup1\n      0x095ea7b3\n      eq\n      tag_4\n      jumpi\n      dup1\n      0x18160ddd\n      eq\n      tag_5\n      jumpi\n      dup1\n      0x23b872dd\n      eq\n      tag_6\n      jumpi\n      dup1\n      0x313ce567\n      eq\n      tag_7\n      jumpi\n    tag_2:\n      0x00\n      dup1\n      revert\n        /* \"contracts/PVCMeta.sol\":8510:8610  function name() public view virtual override returns (string memory) {\r... */\n    tag_3:\n      tag_26\n      tag_27\n      jump\t// in\n    tag_26:\n      mload(0x40)\n      tag_28\n      swap2\n      swap1\n      tag_29\n      jump\t// in\n    tag_28:\n      mload(0x40)\n      dup1\n      swap2\n      sub\n      swap1\n      return\n        /* \"contracts/PVCMeta.sol\":10676:10845  function approve(address spender, uint256 amount) public virtual override returns (bool) {\r... */\n    tag_4:\n      tag_30\n      0x04\n      dup1\n      calldatasize\n      sub\n      dup2\n      add\n      swap1\n      tag_31\n      swap2\n      swap1\n      tag_32\n      jump\t// in\n    tag_31:\n      tag_33\n      jump\t// in\n    tag_30:\n      mload(0x40)\n      tag_34\n      swap2\n      swap1\n      tag_35\n      jump\t// in\n    tag_34:\n      mload(0x40)\n      dup1\n      swap2\n      sub\n      swap1\n      return\n        /* \"contracts/PVCMeta.sol\":9629:9737  function totalSupply() public view virtual override returns (uint256) {\r... */\n    tag_5:\n      tag_36\n      tag_37\n      jump\t// in\n    tag_36:\n      mload(0x40)\n      tag_38\n      swap2\n      swap1\n      tag_39\n      jump\t// in\n    tag_38:\n      mload(0x40)\n      dup1\n      swap2\n      sub\n      swap1\n      return\n        /* \"contracts/PVCMeta.sol\":11327:11819  function transferFrom(\r... */\n    tag_6:\n      tag_40\n      0x04\n      dup1\n      calldatasize\n      sub\n      dup2\n      add\n      swap1\n      tag_41\n      swap2\n      swap1\n      tag_42\n      jump\t// in\n    tag_41:\n      tag_43\n      jump\t// in\n    tag_40:\n      mload(0x40)\n      tag_44\n      swap2\n      swap1\n      tag_35\n      jump\t// in\n    tag_44:\n      mload(0x40)\n      dup1\n      swap2\n      sub\n      swap1\n      return\n        /* \"contracts/PVCMeta.sol\":9472:9564  function decimals() public view virtual override returns (uint8) {\r... */\n    tag_7:\n      tag_45\n      tag_46\n      jump\t// in\n    tag_45:\n      mload(0x40)\n      tag_47\n      swap2\n      swap1\n      tag_48\n      jump\t// in\n    tag_47:\n      mload(0x40)\n      dup1\n      swap2\n      sub\n      swap1\n      return\n        /* \"contracts/PVCMeta.sol\":12228:12443  function increaseAllowance(address spender, uint256 addedValue) public virtual returns (bool) {\r... */\n    tag_8:\n      tag_49\n      0x04\n      dup1\n      calldatasize\n      sub\n      dup2\n      add\n      swap1\n      tag_50\n      swap2\n      swap1\n      tag_32\n      jump\t// in\n    tag_50:\n      tag_51\n      jump\t// in\n    tag_49:\n      mload(0x40)\n      tag_52\n      swap2\n      swap1\n      tag_35\n      jump\t// in\n    tag_52:\n      mload(0x40)\n      dup1\n      swap2\n      sub\n      swap1\n      return\n        /* \"contracts/PVCMeta.sol\":22158:22223  function unpause() public onlyOwner {\r... */\n    tag_9:\n      tag_53\n      tag_54\n      jump\t// in\n    tag_53:\n      stop\n        /* \"contracts/PVCMeta.sol\":18878:18969  function burn(uint256 amount) public virtual {\r... */\n    tag_10:\n      tag_55\n      0x04\n      dup1\n      calldatasize\n      sub\n      dup2\n      add\n      swap1\n      tag_56\n      swap2\n      swap1\n      tag_57\n      jump\t// in\n    tag_56:\n      tag_58\n      jump\t// in\n    tag_55:\n      stop\n        /* \"contracts/PVCMeta.sol\":4742:4828  function paused() public view virtual returns (bool) {\r... */\n    tag_11:\n      tag_59\n      tag_60\n      jump\t// in\n    tag_59:\n      mload(0x40)\n      tag_61\n      swap2\n      swap1\n      tag_35\n      jump\t// in\n    tag_61:\n      mload(0x40)\n      dup1\n      swap2\n      sub\n      swap1\n      return\n        /* \"contracts/PVCMeta.sol\":9800:9927  function balanceOf(address account) public view virtual override returns (uint256) {\r... */\n    tag_12:\n      tag_62\n      0x04\n      dup1\n      calldatasize\n      sub\n      dup2\n      add\n      swap1\n      tag_63\n      swap2\n      swap1\n      tag_64\n      jump\t// in\n    tag_63:\n      tag_65\n      jump\t// in\n    tag_62:\n      mload(0x40)\n      tag_66\n      swap2\n      swap1\n      tag_39\n      jump\t// in\n    tag_66:\n      mload(0x40)\n      dup1\n      swap2\n      sub\n      swap1\n      return\n        /* \"contracts/PVCMeta.sol\":21251:21345  function renounceOwnership() public virtual onlyOwner {\r... */\n    tag_13:\n      tag_67\n      tag_68\n      jump\t// in\n    tag_67:\n      stop\n        /* \"contracts/PVCMeta.sol\":19288:19656  function burnFrom(address account, uint256 amount) public virtual {\r... */\n    tag_14:\n      tag_69\n      0x04\n      dup1\n      calldatasize\n      sub\n      dup2\n      add\n      swap1\n      tag_70\n      swap2\n      swap1\n      tag_32\n      jump\t// in\n    tag_70:\n      tag_71\n      jump\t// in\n    tag_69:\n      stop\n        /* \"contracts/PVCMeta.sol\":22089:22150  function pause() public onlyOwner {\r... */\n    tag_15:\n      tag_72\n      tag_73\n      jump\t// in\n    tag_72:\n      stop\n        /* \"contracts/PVCMeta.sol\":20600:20687  function owner() public view virtual returns (address) {\r... */\n    tag_16:\n      tag_74\n      tag_75\n      jump\t// in\n    tag_74:\n      mload(0x40)\n      tag_76\n      swap2\n      swap1\n      tag_77\n      jump\t// in\n    tag_76:\n      mload(0x40)\n      dup1\n      swap2\n      sub\n      swap1\n      return\n        /* \"contracts/PVCMeta.sol\":8729:8833  function symbol() public view virtual override returns (string memory) {\r... */\n    tag_17:\n      tag_78\n      tag_79\n      jump\t// in\n    tag_78:\n      mload(0x40)\n      tag_80\n      swap2\n      swap1\n      tag_29\n      jump\t// in\n    tag_80:\n      mload(0x40)\n      dup1\n      swap2\n      sub\n      swap1\n      return\n        /* \"contracts/PVCMeta.sol\":12946:13359  function decreaseAllowance(address spender, uint256 subtractedValue) public virtual returns (bool) {\r... */\n    tag_18:\n      tag_81\n      0x04\n      dup1\n      calldatasize\n      sub\n      dup2\n      add\n      swap1\n      tag_82\n      swap2\n      swap1\n      tag_32\n      jump\t// in\n    tag_82:\n      tag_83\n      jump\t// in\n    tag_81:\n      mload(0x40)\n      tag_84\n      swap2\n      swap1\n      tag_35\n      jump\t// in\n    tag_84:\n      mload(0x40)\n      dup1\n      swap2\n      sub\n      swap1\n      return\n        /* \"contracts/PVCMeta.sol\":10140:10315  function transfer(address recipient, uint256 amount) public virtual override returns (bool) {\r... */\n    tag_19:\n      tag_85\n      0x04\n      dup1\n      calldatasize\n      sub\n      dup2\n      add\n      swap1\n      tag_86\n      swap2\n      swap1\n      tag_32\n      jump\t// in\n    tag_86:\n      tag_87\n      jump\t// in\n    tag_85:\n      mload(0x40)\n      tag_88\n      swap2\n      swap1\n      tag_35\n      jump\t// in\n    tag_88:\n      mload(0x40)\n      dup1\n      swap2\n      sub\n      swap1\n      return\n        /* \"contracts/PVCMeta.sol\":22466:23083  function airdropACTIVE(address[] memory recipients, uint256[] memory tokenAmount)\r... */\n    tag_20:\n      tag_89\n      0x04\n      dup1\n      calldatasize\n      sub\n      dup2\n      add\n      swap1\n      tag_90\n      swap2\n      swap1\n      tag_91\n      jump\t// in\n    tag_90:\n      tag_92\n      jump\t// in\n    tag_89:\n      mload(0x40)\n      tag_93\n      swap2\n      swap1\n      tag_35\n      jump\t// in\n    tag_93:\n      mload(0x40)\n      dup1\n      swap2\n      sub\n      swap1\n      return\n        /* \"contracts/PVCMeta.sol\":10378:10529  function allowance(address owner, address spender) public view virtual override returns (uint256) {\r... */\n    tag_21:\n      tag_94\n      0x04\n      dup1\n      calldatasize\n      sub\n      dup2\n      add\n      swap1\n      tag_95\n      swap2\n      swap1\n      tag_96\n      jump\t// in\n    tag_95:\n      tag_97\n      jump\t// in\n    tag_94:\n      mload(0x40)\n      tag_98\n      swap2\n      swap1\n      tag_39\n      jump\t// in\n    tag_98:\n      mload(0x40)\n      dup1\n      swap2\n      sub\n      swap1\n      return\n        /* \"contracts/PVCMeta.sol\":21500:21692  function transferOwnership(address newOwner) public virtual onlyOwner {\r... */\n    tag_22:\n      tag_99\n      0x04\n      dup1\n      calldatasize\n      sub\n      dup2\n      add\n      swap1\n      tag_100\n      swap2\n      swap1\n      tag_64\n      jump\t// in\n    tag_100:\n      tag_101\n      jump\t// in\n    tag_99:\n      stop\n        /* \"contracts/PVCMeta.sol\":8510:8610  function name() public view virtual override returns (string memory) {\r... */\n    tag_27:\n        /* \"contracts/PVCMeta.sol\":8564:8577  string memory */\n      0x60\n        /* \"contracts/PVCMeta.sol\":8597:8602  _name */\n      0x03\n        /* \"contracts/PVCMeta.sol\":8590:8602  return _name */\n      dup1\n      sload\n      tag_104\n      swap1\n      tag_105\n      jump\t// in\n    tag_104:\n      dup1\n      0x1f\n      add\n      0x20\n      dup1\n      swap2\n      div\n      mul\n      0x20\n      add\n      mload(0x40)\n      swap1\n      dup2\n      add\n      0x40\n      mstore\n      dup1\n      swap3\n      swap2\n      swap1\n      dup2\n      dup2\n      mstore\n      0x20\n      add\n      dup3\n      dup1\n      sload\n      tag_106\n      swap1\n      tag_105\n      jump\t// in\n    tag_106:\n      dup1\n      iszero\n      tag_107\n      jumpi\n      dup1\n      0x1f\n      lt\n      tag_108\n      jumpi\n      0x0100\n      dup1\n      dup4\n      sload\n      div\n      mul\n      dup4\n      mstore\n      swap2\n      0x20\n      add\n      swap2\n      jump(tag_107)\n    tag_108:\n      dup3\n      add\n      swap2\n      swap1\n      0x00\n      mstore\n      keccak256(0x00, 0x20)\n      swap1\n    tag_109:\n      dup2\n      sload\n      dup2\n      mstore\n      swap1\n      0x01\n      add\n      swap1\n      0x20\n      add\n      dup1\n      dup4\n      gt\n      tag_109\n      jumpi\n      dup3\n      swap1\n      sub\n      0x1f\n      and\n      dup3\n      add\n      swap2\n    tag_107:\n      pop\n      pop\n      pop\n      pop\n      pop\n      swap1\n      pop\n        /* \"contracts/PVCMeta.sol\":8510:8610  function name() public view virtual override returns (string memory) {\r... */\n      swap1\n      jump\t// out\n        /* \"contracts/PVCMeta.sol\":10676:10845  function approve(address spender, uint256 amount) public virtual override returns (bool) {\r... */\n    tag_33:\n        /* \"contracts/PVCMeta.sol\":10759:10763  bool */\n      0x00\n        /* \"contracts/PVCMeta.sol\":10776:10815  _approve(_msgSender(), spender, amount) */\n      tag_111\n        /* \"contracts/PVCMeta.sol\":10785:10797  _msgSender() */\n      tag_112\n        /* \"contracts/PVCMeta.sol\":10785:10795  _msgSender */\n      tag_113\n        /* \"contracts/PVCMeta.sol\":10785:10797  _msgSender() */\n      jump\t// in\n    tag_112:\n        /* \"contracts/PVCMeta.sol\":10799:10806  spender */\n      dup5\n        /* \"contracts/PVCMeta.sol\":10808:10814  amount */\n      dup5\n        /* \"contracts/PVCMeta.sol\":10776:10784  _approve */\n      tag_114\n        /* \"contracts/PVCMeta.sol\":10776:10815  _approve(_msgSender(), spender, amount) */\n      jump\t// in\n    tag_111:\n        /* \"contracts/PVCMeta.sol\":10833:10837  true */\n      0x01\n        /* \"contracts/PVCMeta.sol\":10826:10837  return true */\n      swap1\n      pop\n        /* \"contracts/PVCMeta.sol\":10676:10845  function approve(address spender, uint256 amount) public virtual override returns (bool) {\r... */\n      swap3\n      swap2\n      pop\n      pop\n      jump\t// out\n        /* \"contracts/PVCMeta.sol\":9629:9737  function totalSupply() public view virtual override returns (uint256) {\r... */\n    tag_37:\n        /* \"contracts/PVCMeta.sol\":9690:9697  uint256 */\n      0x00\n        /* \"contracts/PVCMeta.sol\":9717:9729  _totalSupply */\n      sload(0x02)\n        /* \"contracts/PVCMeta.sol\":9710:9729  return _totalSupply */\n      swap1\n      pop\n        /* \"contracts/PVCMeta.sol\":9629:9737  function totalSupply() public view virtual override returns (uint256) {\r... */\n      swap1\n      jump\t// out\n        /* \"contracts/PVCMeta.sol\":11327:11819  function transferFrom(\r... */\n    tag_43:\n        /* \"contracts/PVCMeta.sol\":11467:11471  bool */\n      0x00\n        /* \"contracts/PVCMeta.sol\":11484:11520  _transfer(sender, recipient, amount) */\n      tag_117\n        /* \"contracts/PVCMeta.sol\":11494:11500  sender */\n      dup5\n        /* \"contracts/PVCMeta.sol\":11502:11511  recipient */\n      dup5\n        /* \"contracts/PVCMeta.sol\":11513:11519  amount */\n      dup5\n        /* \"contracts/PVCMeta.sol\":11484:11493  _transfer */\n      tag_118\n        /* \"contracts/PVCMeta.sol\":11484:11520  _transfer(sender, recipient, amount) */\n      jump\t// in\n    tag_117:\n        /* \"contracts/PVCMeta.sol\":11533:11557  uint256 currentAllowance */\n      0x00\n        /* \"contracts/PVCMeta.sol\":11560:11571  _allowances */\n      0x01\n        /* \"contracts/PVCMeta.sol\":11560:11579  _allowances[sender] */\n      0x00\n        /* \"contracts/PVCMeta.sol\":11572:11578  sender */\n      dup7\n        /* \"contracts/PVCMeta.sol\":11560:11579  _allowances[sender] */\n      0xffffffffffffffffffffffffffffffffffffffff\n      and\n      0xffffffffffffffffffffffffffffffffffffffff\n      and\n      dup2\n      mstore\n      0x20\n      add\n      swap1\n      dup2\n      mstore\n      0x20\n      add\n      0x00\n      keccak256\n        /* \"contracts/PVCMeta.sol\":11560:11593  _allowances[sender][_msgSender()] */\n      0x00\n        /* \"contracts/PVCMeta.sol\":11580:11592  _msgSender() */\n      tag_119\n        /* \"contracts/PVCMeta.sol\":11580:11590  _msgSender */\n      tag_113\n        /* \"contracts/PVCMeta.sol\":11580:11592  _msgSender() */\n      jump\t// in\n    tag_119:\n        /* \"contracts/PVCMeta.sol\":11560:11593  _allowances[sender][_msgSender()] */\n      0xffffffffffffffffffffffffffffffffffffffff\n      and\n      0xffffffffffffffffffffffffffffffffffffffff\n      and\n      dup2\n      mstore\n      0x20\n      add\n      swap1\n      dup2\n      mstore\n      0x20\n      add\n      0x00\n      keccak256\n      sload\n        /* \"contracts/PVCMeta.sol\":11533:11593  uint256 currentAllowance = _allowances[sender][_msgSender()] */\n      swap1\n      pop\n        /* \"contracts/PVCMeta.sol\":11632:11638  amount */\n      dup3\n        /* \"contracts/PVCMeta.sol\":11612:11628  currentAllowance */\n      dup2\n        /* \"contracts/PVCMeta.sol\":11612:11638  currentAllowance >= amount */\n      lt\n      iszero\n        /* \"contracts/PVCMeta.sol\":11604:11683  require(currentAllowance >= amount, \"ERC20: transfer amount exceeds allowance\") */\n      tag_120\n      jumpi\n      mload(0x40)\n      0x08c379a000000000000000000000000000000000000000000000000000000000\n      dup2\n      mstore\n      0x04\n      add\n      tag_121\n      swap1\n      tag_122\n      jump\t// in\n    tag_121:\n      mload(0x40)\n      dup1\n      swap2\n      sub\n      swap1\n      revert\n    tag_120:\n        /* \"contracts/PVCMeta.sol\":11719:11776  _approve(sender, _msgSender(), currentAllowance - amount) */\n      tag_123\n        /* \"contracts/PVCMeta.sol\":11728:11734  sender */\n      dup6\n        /* \"contracts/PVCMeta.sol\":11736:11748  _msgSender() */\n      tag_124\n        /* \"contracts/PVCMeta.sol\":11736:11746  _msgSender */\n      tag_113\n        /* \"contracts/PVCMeta.sol\":11736:11748  _msgSender() */\n      jump\t// in\n    tag_124:\n        /* \"contracts/PVCMeta.sol\":11769:11775  amount */\n      dup6\n        /* \"contracts/PVCMeta.sol\":11750:11766  currentAllowance */\n      dup5\n        /* \"contracts/PVCMeta.sol\":11750:11775  currentAllowance - amount */\n      sub\n        /* \"contracts/PVCMeta.sol\":11719:11727  _approve */\n      tag_114\n        /* \"contracts/PVCMeta.sol\":11719:11776  _approve(sender, _msgSender(), currentAllowance - amount) */\n      jump\t// in\n    tag_123:\n        /* \"contracts/PVCMeta.sol\":11807:11811  true */\n      0x01\n        /* \"contracts/PVCMeta.sol\":11800:11811  return true */\n      swap2\n      pop\n      pop\n        /* \"contracts/PVCMeta.sol\":11327:11819  function transferFrom(\r... */\n      swap4\n      swap3\n      pop\n      pop\n      pop\n      jump\t// out\n        /* \"contracts/PVCMeta.sol\":9472:9564  function decimals() public view virtual override returns (uint8) {\r... */\n    tag_46:\n        /* \"contracts/PVCMeta.sol\":9530:9535  uint8 */\n      0x00\n        /* \"contracts/PVCMeta.sol\":9555:9556  9 */\n      0x09\n        /* \"contracts/PVCMeta.sol\":9548:9556  return 9 */\n      swap1\n      pop\n        /* \"contracts/PVCMeta.sol\":9472:9564  function decimals() public view virtual override returns (uint8) {\r... */\n      swap1\n      jump\t// out\n        /* \"contracts/PVCMeta.sol\":12228:12443  function increaseAllowance(address spender, uint256 addedValue) public virtual returns (bool) {\r... */\n    tag_51:\n        /* \"contracts/PVCMeta.sol\":12316:12320  bool */\n      0x00\n        /* \"contracts/PVCMeta.sol\":12333:12413  _approve(_msgSender(), spender, _allowances[_msgSender()][spender] + addedValue) */\n      tag_127\n        /* \"contracts/PVCMeta.sol\":12342:12354  _msgSender() */\n      tag_128\n        /* \"contracts/PVCMeta.sol\":12342:12352  _msgSender */\n      tag_113\n        /* \"contracts/PVCMeta.sol\":12342:12354  _msgSender() */\n      jump\t// in\n    tag_128:\n        /* \"contracts/PVCMeta.sol\":12356:12363  spender */\n      dup5\n        /* \"contracts/PVCMeta.sol\":12402:12412  addedValue */\n      dup5\n        /* \"contracts/PVCMeta.sol\":12365:12376  _allowances */\n      0x01\n        /* \"contracts/PVCMeta.sol\":12365:12390  _allowances[_msgSender()] */\n      0x00\n        /* \"contracts/PVCMeta.sol\":12377:12389  _msgSender() */\n      tag_129\n        /* \"contracts/PVCMeta.sol\":12377:12387  _msgSender */\n      tag_113\n        /* \"contracts/PVCMeta.sol\":12377:12389  _msgSender() */\n      jump\t// in\n    tag_129:\n        /* \"contracts/PVCMeta.sol\":12365:12390  _allowances[_msgSender()] */\n      0xffffffffffffffffffffffffffffffffffffffff\n      and\n      0xffffffffffffffffffffffffffffffffffffffff\n      and\n      dup2\n      mstore\n      0x20\n      add\n      swap1\n      dup2\n      mstore\n      0x20\n      add\n      0x00\n      keccak256\n        /* \"contracts/PVCMeta.sol\":12365:12399  _allowances[_msgSender()][spender] */\n      0x00\n        /* \"contracts/PVCMeta.sol\":12391:12398  spender */\n      dup9\n        /* \"contracts/PVCMeta.sol\":12365:12399  _allowances[_msgSender()][spender] */\n      0xffffffffffffffffffffffffffffffffffffffff\n      and\n      0xffffffffffffffffffffffffffffffffffffffff\n      and\n      dup2\n      mstore\n      0x20\n      add\n      swap1\n      dup2\n      mstore\n      0x20\n      add\n      0x00\n      keccak256\n      sload\n        /* \"contracts/PVCMeta.sol\":12365:12412  _allowances[_msgSender()][spender] + addedValue */\n      tag_130\n      swap2\n      swap1\n      tag_131\n      jump\t// in\n    tag_130:\n        /* \"contracts/PVCMeta.sol\":12333:12341  _approve */\n      tag_114\n        /* \"contracts/PVCMeta.sol\":12333:12413  _approve(_msgSender(), spender, _allowances[_msgSender()][spender] + addedValue) */\n      jump\t// in\n    tag_127:\n        /* \"contracts/PVCMeta.sol\":12431:12435  true */\n      0x01\n        /* \"contracts/PVCMeta.sol\":12424:12435  return true */\n      swap1\n      pop\n        /* \"contracts/PVCMeta.sol\":12228:12443  function increaseAllowance(address spender, uint256 addedValue) public virtual returns (bool) {\r... */\n      swap3\n      swap2\n      pop\n      pop\n      jump\t// out\n        /* \"contracts/PVCMeta.sol\":22158:22223  function unpause() public onlyOwner {\r... */\n    tag_54:\n        /* \"contracts/PVCMeta.sol\":20831:20843  _msgSender() */\n      tag_133\n        /* \"contracts/PVCMeta.sol\":20831:20841  _msgSender */\n      tag_113\n        /* \"contracts/PVCMeta.sol\":20831:20843  _msgSender() */\n      jump\t// in\n    tag_133:\n        /* \"contracts/PVCMeta.sol\":20820:20843  owner() == _msgSender() */\n      0xffffffffffffffffffffffffffffffffffffffff\n      and\n        /* \"contracts/PVCMeta.sol\":20820:20827  owner() */\n      tag_134\n        /* \"contracts/PVCMeta.sol\":20820:20825  owner */\n      tag_75\n        /* \"contracts/PVCMeta.sol\":20820:20827  owner() */\n      jump\t// in\n    tag_134:\n        /* \"contracts/PVCMeta.sol\":20820:20843  owner() == _msgSender() */\n      0xffffffffffffffffffffffffffffffffffffffff\n      and\n      eq\n        /* \"contracts/PVCMeta.sol\":20812:20880  require(owner() == _msgSender(), \"Ownable: caller is not the owner\") */\n      tag_135\n      jumpi\n      mload(0x40)\n      0x08c379a000000000000000000000000000000000000000000000000000000000\n      dup2\n      mstore\n      0x04\n      add\n      tag_136\n      swap1\n      tag_137\n      jump\t// in\n    tag_136:\n      mload(0x40)\n      dup1\n      swap2\n      sub\n      swap1\n      revert\n    tag_135:\n        /* \"contracts/PVCMeta.sol\":22205:22215  _unpause() */\n      tag_139\n        /* \"contracts/PVCMeta.sol\":22205:22213  _unpause */\n      tag_140\n        /* \"contracts/PVCMeta.sol\":22205:22215  _unpause() */\n      jump\t// in\n    tag_139:\n        /* \"contracts/PVCMeta.sol\":22158:22223  function unpause() public onlyOwner {\r... */\n      jump\t// out\n        /* \"contracts/PVCMeta.sol\":18878:18969  function burn(uint256 amount) public virtual {\r... */\n    tag_58:\n        /* \"contracts/PVCMeta.sol\":18934:18961  _burn(_msgSender(), amount) */\n      tag_142\n        /* \"contracts/PVCMeta.sol\":18940:18952  _msgSender() */\n      tag_143\n        /* \"contracts/PVCMeta.sol\":18940:18950  _msgSender */\n      tag_113\n        /* \"contracts/PVCMeta.sol\":18940:18952  _msgSender() */\n      jump\t// in\n    tag_143:\n        /* \"contracts/PVCMeta.sol\":18954:18960  amount */\n      dup3\n        /* \"contracts/PVCMeta.sol\":18934:18939  _burn */\n      tag_144\n        /* \"contracts/PVCMeta.sol\":18934:18961  _burn(_msgSender(), amount) */\n      jump\t// in\n    tag_142:\n        /* \"contracts/PVCMeta.sol\":18878:18969  function burn(uint256 amount) public virtual {\r... */\n      pop\n      jump\t// out\n        /* \"contracts/PVCMeta.sol\":4742:4828  function paused() public view virtual returns (bool) {\r... */\n    tag_60:\n        /* \"contracts/PVCMeta.sol\":4789:4793  bool */\n      0x00\n        /* \"contracts/PVCMeta.sol\":4813:4820  _paused */\n      0x05\n      0x00\n      swap1\n      sload\n      swap1\n      0x0100\n      exp\n      swap1\n      div\n      0xff\n      and\n        /* \"contracts/PVCMeta.sol\":4806:4820  return _paused */\n      swap1\n      pop\n        /* \"contracts/PVCMeta.sol\":4742:4828  function paused() public view virtual returns (bool) {\r... */\n      swap1\n      jump\t// out\n        /* \"contracts/PVCMeta.sol\":9800:9927  function balanceOf(address account) public view virtual override returns (uint256) {\r... */\n    tag_65:\n        /* \"contracts/PVCMeta.sol\":9874:9881  uint256 */\n      0x00\n        /* \"contracts/PVCMeta.sol\":9901:9910  _balances */\n      dup1\n        /* \"contracts/PVCMeta.sol\":9901:9919  _balances[account] */\n      0x00\n        /* \"contracts/PVCMeta.sol\":9911:9918  account */\n      dup4\n        /* \"contracts/PVCMeta.sol\":9901:9919  _balances[account] */\n      0xffffffffffffffffffffffffffffffffffffffff\n      and\n      0xffffffffffffffffffffffffffffffffffffffff\n      and\n      dup2\n      mstore\n      0x20\n      add\n      swap1\n      dup2\n      mstore\n      0x20\n      add\n      0x00\n      keccak256\n      sload\n        /* \"contracts/PVCMeta.sol\":9894:9919  return _balances[account] */\n      swap1\n      pop\n        /* \"contracts/PVCMeta.sol\":9800:9927  function balanceOf(address account) public view virtual override returns (uint256) {\r... */\n      swap2\n      swap1\n      pop\n      jump\t// out\n        /* \"contracts/PVCMeta.sol\":21251:21345  function renounceOwnership() public virtual onlyOwner {\r... */\n    tag_68:\n        /* \"contracts/PVCMeta.sol\":20831:20843  _msgSender() */\n      tag_148\n        /* \"contracts/PVCMeta.sol\":20831:20841  _msgSender */\n      tag_113\n        /* \"contracts/PVCMeta.sol\":20831:20843  _msgSender() */\n      jump\t// in\n    tag_148:\n        /* \"contracts/PVCMeta.sol\":20820:20843  owner() == _msgSender() */\n      0xffffffffffffffffffffffffffffffffffffffff\n      and\n        /* \"contracts/PVCMeta.sol\":20820:20827  owner() */\n      tag_149\n        /* \"contracts/PVCMeta.sol\":20820:20825  owner */\n      tag_75\n        /* \"contracts/PVCMeta.sol\":20820:20827  owner() */\n      jump\t// in\n    tag_149:\n        /* \"contracts/PVCMeta.sol\":20820:20843  owner() == _msgSender() */\n      0xffffffffffffffffffffffffffffffffffffffff\n      and\n      eq\n        /* \"contracts/PVCMeta.sol\":20812:20880  require(owner() == _msgSender(), \"Ownable: caller is not the owner\") */\n      tag_150\n      jumpi\n      mload(0x40)\n      0x08c379a000000000000000000000000000000000000000000000000000000000\n      dup2\n      mstore\n      0x04\n      add\n      tag_151\n      swap1\n      tag_137\n      jump\t// in\n    tag_151:\n      mload(0x40)\n      dup1\n      swap2\n      sub\n      swap1\n      revert\n    tag_150:\n        /* \"contracts/PVCMeta.sol\":21316:21337  _setOwner(address(0)) */\n      tag_153\n        /* \"contracts/PVCMeta.sol\":21334:21335  0 */\n      0x00\n        /* \"contracts/PVCMeta.sol\":21316:21325  _setOwner */\n      tag_154\n        /* \"contracts/PVCMeta.sol\":21316:21337  _setOwner(address(0)) */\n      jump\t// in\n    tag_153:\n        /* \"contracts/PVCMeta.sol\":21251:21345  function renounceOwnership() public virtual onlyOwner {\r... */\n      jump\t// out\n        /* \"contracts/PVCMeta.sol\":19288:19656  function burnFrom(address account, uint256 amount) public virtual {\r... */\n    tag_71:\n        /* \"contracts/PVCMeta.sol\":19365:19389  uint256 currentAllowance */\n      0x00\n        /* \"contracts/PVCMeta.sol\":19392:19424  allowance(account, _msgSender()) */\n      tag_156\n        /* \"contracts/PVCMeta.sol\":19402:19409  account */\n      dup4\n        /* \"contracts/PVCMeta.sol\":19411:19423  _msgSender() */\n      tag_157\n        /* \"contracts/PVCMeta.sol\":19411:19421  _msgSender */\n      tag_113\n        /* \"contracts/PVCMeta.sol\":19411:19423  _msgSender() */\n      jump\t// in\n    tag_157:\n        /* \"contracts/PVCMeta.sol\":19392:19401  allowance */\n      tag_97\n        /* \"contracts/PVCMeta.sol\":19392:19424  allowance(account, _msgSender()) */\n      jump\t// in\n    tag_156:\n        /* \"contracts/PVCMeta.sol\":19365:19424  uint256 currentAllowance = allowance(account, _msgSender()) */\n      swap1\n      pop\n        /* \"contracts/PVCMeta.sol\":19463:19469  amount */\n      dup2\n        /* \"contracts/PVCMeta.sol\":19443:19459  currentAllowance */\n      dup2\n        /* \"contracts/PVCMeta.sol\":19443:19469  currentAllowance >= amount */\n      lt\n      iszero\n        /* \"contracts/PVCMeta.sol\":19435:19510  require(currentAllowance >= amount, \"ERC20: burn amount exceeds allowance\") */\n      tag_158\n      jumpi\n      mload(0x40)\n      0x08c379a000000000000000000000000000000000000000000000000000000000\n      dup2\n      mstore\n      0x04\n      add\n      tag_159\n      swap1\n      tag_160\n      jump\t// in\n    tag_159:\n      mload(0x40)\n      dup1\n      swap2\n      sub\n      swap1\n      revert\n    tag_158:\n        /* \"contracts/PVCMeta.sol\":19546:19604  _approve(account, _msgSender(), currentAllowance - amount) */\n      tag_161\n        /* \"contracts/PVCMeta.sol\":19555:19562  account */\n      dup4\n        /* \"contracts/PVCMeta.sol\":19564:19576  _msgSender() */\n      tag_162\n        /* \"contracts/PVCMeta.sol\":19564:19574  _msgSender */\n      tag_113\n        /* \"contracts/PVCMeta.sol\":19564:19576  _msgSender() */\n      jump\t// in\n    tag_162:\n        /* \"contracts/PVCMeta.sol\":19597:19603  amount */\n      dup5\n        /* \"contracts/PVCMeta.sol\":19578:19594  currentAllowance */\n      dup5\n        /* \"contracts/PVCMeta.sol\":19578:19603  currentAllowance - amount */\n      sub\n        /* \"contracts/PVCMeta.sol\":19546:19554  _approve */\n      tag_114\n        /* \"contracts/PVCMeta.sol\":19546:19604  _approve(account, _msgSender(), currentAllowance - amount) */\n      jump\t// in\n    tag_161:\n        /* \"contracts/PVCMeta.sol\":19626:19648  _burn(account, amount) */\n      tag_163\n        /* \"contracts/PVCMeta.sol\":19632:19639  account */\n      dup4\n        /* \"contracts/PVCMeta.sol\":19641:19647  amount */\n      dup4\n        /* \"contracts/PVCMeta.sol\":19626:19631  _burn */\n      tag_144\n        /* \"contracts/PVCMeta.sol\":19626:19648  _burn(account, amount) */\n      jump\t// in\n    tag_163:\n        /* \"contracts/PVCMeta.sol\":19354:19656  {\r... */\n      pop\n        /* \"contracts/PVCMeta.sol\":19288:19656  function burnFrom(address account, uint256 amount) public virtual {\r... */\n      pop\n      pop\n      jump\t// out\n        /* \"contracts/PVCMeta.sol\":22089:22150  function pause() public onlyOwner {\r... */\n    tag_73:\n        /* \"contracts/PVCMeta.sol\":20831:20843  _msgSender() */\n      tag_165\n        /* \"contracts/PVCMeta.sol\":20831:20841  _msgSender */\n      tag_113\n        /* \"contracts/PVCMeta.sol\":20831:20843  _msgSender() */\n      jump\t// in\n    tag_165:\n        /* \"contracts/PVCMeta.sol\":20820:20843  owner() == _msgSender() */\n      0xffffffffffffffffffffffffffffffffffffffff\n      and\n        /* \"contracts/PVCMeta.sol\":20820:20827  owner() */\n      tag_166\n        /* \"contracts/PVCMeta.sol\":20820:20825  owner */\n      tag_75\n        /* \"contracts/PVCMeta.sol\":20820:20827  owner() */\n      jump\t// in\n    tag_166:\n        /* \"contracts/PVCMeta.sol\":20820:20843  owner() == _msgSender() */\n      0xffffffffffffffffffffffffffffffffffffffff\n      and\n      eq\n        /* \"contracts/PVCMeta.sol\":20812:20880  require(owner() == _msgSender(), \"Ownable: caller is not the owner\") */\n      tag_167\n      jumpi\n      mload(0x40)\n      0x08c379a000000000000000000000000000000000000000000000000000000000\n      dup2\n      mstore\n      0x04\n      add\n      tag_168\n      swap1\n      tag_137\n      jump\t// in\n    tag_168:\n      mload(0x40)\n      dup1\n      swap2\n      sub\n      swap1\n      revert\n    tag_167:\n        /* \"contracts/PVCMeta.sol\":22134:22142  _pause() */\n      tag_170\n        /* \"contracts/PVCMeta.sol\":22134:22140  _pause */\n      tag_171\n        /* \"contracts/PVCMeta.sol\":22134:22142  _pause() */\n      jump\t// in\n    tag_170:\n        /* \"contracts/PVCMeta.sol\":22089:22150  function pause() public onlyOwner {\r... */\n      jump\t// out\n        /* \"contracts/PVCMeta.sol\":20600:20687  function owner() public view virtual returns (address) {\r... */\n    tag_75:\n        /* \"contracts/PVCMeta.sol\":20646:20653  address */\n      0x00\n        /* \"contracts/PVCMeta.sol\":20673:20679  _owner */\n      0x05\n      0x01\n      swap1\n      sload\n      swap1\n      0x0100\n      exp\n      swap1\n      div\n      0xffffffffffffffffffffffffffffffffffffffff\n      and\n        /* \"contracts/PVCMeta.sol\":20666:20679  return _owner */\n      swap1\n      pop\n        /* \"contracts/PVCMeta.sol\":20600:20687  function owner() public view virtual returns (address) {\r... */\n      swap1\n      jump\t// out\n        /* \"contracts/PVCMeta.sol\":8729:8833  function symbol() public view virtual override returns (string memory) {\r... */\n    tag_79:\n        /* \"contracts/PVCMeta.sol\":8785:8798  string memory */\n      0x60\n        /* \"contracts/PVCMeta.sol\":8818:8825  _symbol */\n      0x04\n        /* \"contracts/PVCMeta.sol\":8811:8825  return _symbol */\n      dup1\n      sload\n      tag_174\n      swap1\n      tag_105\n      jump\t// in\n    tag_174:\n      dup1\n      0x1f\n      add\n      0x20\n      dup1\n      swap2\n      div\n      mul\n      0x20\n      add\n      mload(0x40)\n      swap1\n      dup2\n      add\n      0x40\n      mstore\n      dup1\n      swap3\n      swap2\n      swap1\n      dup2\n      dup2\n      mstore\n      0x20\n      add\n      dup3\n      dup1\n      sload\n      tag_175\n      swap1\n      tag_105\n      jump\t// in\n    tag_175:\n      dup1\n      iszero\n      tag_176\n      jumpi\n      dup1\n      0x1f\n      lt\n      tag_177\n      jumpi\n      0x0100\n      dup1\n      dup4\n      sload\n      div\n      mul\n      dup4\n      mstore\n      swap2\n      0x20\n      add\n      swap2\n      jump(tag_176)\n    tag_177:\n      dup3\n      add\n      swap2\n      swap1\n      0x00\n      mstore\n      keccak256(0x00, 0x20)\n      swap1\n    tag_178:\n      dup2\n      sload\n      dup2\n      mstore\n      swap1\n      0x01\n      add\n      swap1\n      0x20\n      add\n      dup1\n      dup4\n      gt\n      tag_178\n      jumpi\n      dup3\n      swap1\n      sub\n      0x1f\n      and\n      dup3\n      add\n      swap2\n    tag_176:\n      pop\n      pop\n      pop\n      pop\n      pop\n      swap1\n      pop\n        /* \"contracts/PVCMeta.sol\":8729:8833  function symbol() public view virtual override returns (string memory) {\r... */\n      swap1\n      jump\t// out\n        /* \"contracts/PVCMeta.sol\":12946:13359  function decreaseAllowance(address spender, uint256 subtractedValue) public virtual returns (bool) {\r... */\n    tag_83:\n        /* \"contracts/PVCMeta.sol\":13039:13043  bool */\n      0x00\n        /* \"contracts/PVCMeta.sol\":13056:13080  uint256 currentAllowance */\n      dup1\n        /* \"contracts/PVCMeta.sol\":13083:13094  _allowances */\n      0x01\n        /* \"contracts/PVCMeta.sol\":13083:13108  _allowances[_msgSender()] */\n      0x00\n        /* \"contracts/PVCMeta.sol\":13095:13107  _msgSender() */\n      tag_180\n        /* \"contracts/PVCMeta.sol\":13095:13105  _msgSender */\n      tag_113\n        /* \"contracts/PVCMeta.sol\":13095:13107  _msgSender() */\n      jump\t// in\n    tag_180:\n        /* \"contracts/PVCMeta.sol\":13083:13108  _allowances[_msgSender()] */\n      0xffffffffffffffffffffffffffffffffffffffff\n      and\n      0xffffffffffffffffffffffffffffffffffffffff\n      and\n      dup2\n      mstore\n      0x20\n      add\n      swap1\n      dup2\n      mstore\n      0x20\n      add\n      0x00\n      keccak256\n        /* \"contracts/PVCMeta.sol\":13083:13117  _allowances[_msgSender()][spender] */\n      0x00\n        /* \"contracts/PVCMeta.sol\":13109:13116  spender */\n      dup6\n        /* \"contracts/PVCMeta.sol\":13083:13117  _allowances[_msgSender()][spender] */\n      0xffffffffffffffffffffffffffffffffffffffff\n      and\n      0xffffffffffffffffffffffffffffffffffffffff\n      and\n      dup2\n      mstore\n      0x20\n      add\n      swap1\n      dup2\n      mstore\n      0x20\n      add\n      0x00\n      keccak256\n      sload\n        /* \"contracts/PVCMeta.sol\":13056:13117  uint256 currentAllowance = _allowances[_msgSender()][spender] */\n      swap1\n      pop\n        /* \"contracts/PVCMeta.sol\":13156:13171  subtractedValue */\n      dup3\n        /* \"contracts/PVCMeta.sol\":13136:13152  currentAllowance */\n      dup2\n        /* \"contracts/PVCMeta.sol\":13136:13171  currentAllowance >= subtractedValue */\n      lt\n      iszero\n        /* \"contracts/PVCMeta.sol\":13128:13213  require(currentAllowance >= subtractedValue, \"ERC20: decreased allowance below zero\") */\n      tag_181\n      jumpi\n      mload(0x40)\n      0x08c379a000000000000000000000000000000000000000000000000000000000\n      dup2\n      mstore\n      0x04\n      add\n      tag_182\n      swap1\n      tag_183\n      jump\t// in\n    tag_182:\n      mload(0x40)\n      dup1\n      swap2\n      sub\n      swap1\n      revert\n    tag_181:\n        /* \"contracts/PVCMeta.sol\":13249:13316  _approve(_msgSender(), spender, currentAllowance - subtractedValue) */\n      tag_184\n        /* \"contracts/PVCMeta.sol\":13258:13270  _msgSender() */\n      tag_185\n        /* \"contracts/PVCMeta.sol\":13258:13268  _msgSender */\n      tag_113\n        /* \"contracts/PVCMeta.sol\":13258:13270  _msgSender() */\n      jump\t// in\n    tag_185:\n        /* \"contracts/PVCMeta.sol\":13272:13279  spender */\n      dup6\n        /* \"contracts/PVCMeta.sol\":13300:13315  subtractedValue */\n      dup6\n        /* \"contracts/PVCMeta.sol\":13281:13297  currentAllowance */\n      dup5\n        /* \"contracts/PVCMeta.sol\":13281:13315  currentAllowance - subtractedValue */\n      sub\n        /* \"contracts/PVCMeta.sol\":13249:13257  _approve */\n      tag_114\n        /* \"contracts/PVCMeta.sol\":13249:13316  _approve(_msgSender(), spender, currentAllowance - subtractedValue) */\n      jump\t// in\n    tag_184:\n        /* \"contracts/PVCMeta.sol\":13347:13351  true */\n      0x01\n        /* \"contracts/PVCMeta.sol\":13340:13351  return true */\n      swap2\n      pop\n      pop\n        /* \"contracts/PVCMeta.sol\":12946:13359  function decreaseAllowance(address spender, uint256 subtractedValue) public virtual returns (bool) {\r... */\n      swap3\n      swap2\n      pop\n      pop\n      jump\t// out\n        /* \"contracts/PVCMeta.sol\":10140:10315  function transfer(address recipient, uint256 amount) public virtual override returns (bool) {\r... */\n    tag_87:\n        /* \"contracts/PVCMeta.sol\":10226:10230  bool */\n      0x00\n        /* \"contracts/PVCMeta.sol\":10243:10285  _transfer(_msgSender(), recipient, amount) */\n      tag_187\n        /* \"contracts/PVCMeta.sol\":10253:10265  _msgSender() */\n      tag_188\n        /* \"contracts/PVCMeta.sol\":10253:10263  _msgSender */\n      tag_113\n        /* \"contracts/PVCMeta.sol\":10253:10265  _msgSender() */\n      jump\t// in\n    tag_188:\n        /* \"contracts/PVCMeta.sol\":10267:10276  recipient */\n      dup5\n        /* \"contracts/PVCMeta.sol\":10278:10284  amount */\n      dup5\n        /* \"contracts/PVCMeta.sol\":10243:10252  _transfer */\n      tag_118\n        /* \"contracts/PVCMeta.sol\":10243:10285  _transfer(_msgSender(), recipient, amount) */\n      jump\t// in\n    tag_187:\n        /* \"contracts/PVCMeta.sol\":10303:10307  true */\n      0x01\n        /* \"contracts/PVCMeta.sol\":10296:10307  return true */\n      swap1\n      pop\n        /* \"contracts/PVCMeta.sol\":10140:10315  function transfer(address recipient, uint256 amount) public virtual override returns (bool) {\r... */\n      swap3\n      swap2\n      pop\n      pop\n      jump\t// out\n        /* \"contracts/PVCMeta.sol\":22466:23083  function airdropACTIVE(address[] memory recipients, uint256[] memory tokenAmount)\r... */\n    tag_92:\n        /* \"contracts/PVCMeta.sol\":22601:22605  bool */\n      0x00\n        /* \"contracts/PVCMeta.sol\":20831:20843  _msgSender() */\n      tag_190\n        /* \"contracts/PVCMeta.sol\":20831:20841  _msgSender */\n      tag_113\n        /* \"contracts/PVCMeta.sol\":20831:20843  _msgSender() */\n      jump\t// in\n    tag_190:\n        /* \"contracts/PVCMeta.sol\":20820:20843  owner() == _msgSender() */\n      0xffffffffffffffffffffffffffffffffffffffff\n      and\n        /* \"contracts/PVCMeta.sol\":20820:20827  owner() */\n      tag_191\n        /* \"contracts/PVCMeta.sol\":20820:20825  owner */\n      tag_75\n        /* \"contracts/PVCMeta.sol\":20820:20827  owner() */\n      jump\t// in\n    tag_191:\n        /* \"contracts/PVCMeta.sol\":20820:20843  owner() == _msgSender() */\n      0xffffffffffffffffffffffffffffffffffffffff\n      and\n      eq\n        /* \"contracts/PVCMeta.sol\":20812:20880  require(owner() == _msgSender(), \"Ownable: caller is not the owner\") */\n      tag_192\n      jumpi\n      mload(0x40)\n      0x08c379a000000000000000000000000000000000000000000000000000000000\n      dup2\n      mstore\n      0x04\n      add\n      tag_193\n      swap1\n      tag_137\n      jump\t// in\n    tag_193:\n      mload(0x40)\n      dup1\n      swap2\n      sub\n      swap1\n      revert\n    tag_192:\n        /* \"contracts/PVCMeta.sol\":22623:22645  uint256 totalAddresses */\n      0x00\n        /* \"contracts/PVCMeta.sol\":22648:22658  recipients */\n      dup4\n        /* \"contracts/PVCMeta.sol\":22648:22665  recipients.length */\n      mload\n        /* \"contracts/PVCMeta.sol\":22623:22665  uint256 totalAddresses = recipients.length */\n      swap1\n      pop\n        /* \"contracts/PVCMeta.sol\":22702:22705  150 */\n      0x96\n        /* \"contracts/PVCMeta.sol\":22684:22698  totalAddresses */\n      dup2\n        /* \"contracts/PVCMeta.sol\":22684:22705  totalAddresses <= 150 */\n      gt\n      iszero\n        /* \"contracts/PVCMeta.sol\":22676:22729  require(totalAddresses <= 150, 'Too many recipients') */\n      tag_195\n      jumpi\n      mload(0x40)\n      0x08c379a000000000000000000000000000000000000000000000000000000000\n      dup2\n      mstore\n      0x04\n      add\n      tag_196\n      swap1\n      tag_197\n      jump\t// in\n    tag_196:\n      mload(0x40)\n      dup1\n      swap2\n      sub\n      swap1\n      revert\n    tag_195:\n        /* \"contracts/PVCMeta.sol\":22745:22754  uint256 i */\n      0x00\n        /* \"contracts/PVCMeta.sol\":22740:23054  for (uint256 i = 0; i < totalAddresses; i++) {\r... */\n    tag_198:\n        /* \"contracts/PVCMeta.sol\":22764:22778  totalAddresses */\n      dup2\n        /* \"contracts/PVCMeta.sol\":22760:22761  i */\n      dup2\n        /* \"contracts/PVCMeta.sol\":22760:22778  i < totalAddresses */\n      lt\n        /* \"contracts/PVCMeta.sol\":22740:23054  for (uint256 i = 0; i < totalAddresses; i++) {\r... */\n      iszero\n      tag_199\n      jumpi\n        /* \"contracts/PVCMeta.sol\":23003:23042  transfer(recipients[i], tokenAmount[i]) */\n      tag_201\n        /* \"contracts/PVCMeta.sol\":23012:23022  recipients */\n      dup6\n        /* \"contracts/PVCMeta.sol\":23023:23024  i */\n      dup3\n        /* \"contracts/PVCMeta.sol\":23012:23025  recipients[i] */\n      dup2\n      mload\n      dup2\n      lt\n      tag_202\n      jumpi\n      tag_203\n      tag_204\n      jump\t// in\n    tag_203:\n    tag_202:\n      0x20\n      mul\n      0x20\n      add\n      add\n      mload\n        /* \"contracts/PVCMeta.sol\":23027:23038  tokenAmount */\n      dup6\n        /* \"contracts/PVCMeta.sol\":23039:23040  i */\n      dup4\n        /* \"contracts/PVCMeta.sol\":23027:23041  tokenAmount[i] */\n      dup2\n      mload\n      dup2\n      lt\n      tag_205\n      jumpi\n      tag_206\n      tag_204\n      jump\t// in\n    tag_206:\n    tag_205:\n      0x20\n      mul\n      0x20\n      add\n      add\n      mload\n        /* \"contracts/PVCMeta.sol\":23003:23011  transfer */\n      tag_87\n        /* \"contracts/PVCMeta.sol\":23003:23042  transfer(recipients[i], tokenAmount[i]) */\n      jump\t// in\n    tag_201:\n      pop\n        /* \"contracts/PVCMeta.sol\":22780:22783  i++ */\n      dup1\n      dup1\n      tag_207\n      swap1\n      tag_208\n      jump\t// in\n    tag_207:\n      swap2\n      pop\n      pop\n        /* \"contracts/PVCMeta.sol\":22740:23054  for (uint256 i = 0; i < totalAddresses; i++) {\r... */\n      jump(tag_198)\n    tag_199:\n      pop\n        /* \"contracts/PVCMeta.sol\":23071:23075  true */\n      0x01\n        /* \"contracts/PVCMeta.sol\":23064:23075  return true */\n      swap2\n      pop\n      pop\n        /* \"contracts/PVCMeta.sol\":22466:23083  function airdropACTIVE(address[] memory recipients, uint256[] memory tokenAmount)\r... */\n      swap3\n      swap2\n      pop\n      pop\n      jump\t// out\n        /* \"contracts/PVCMeta.sol\":10378:10529  function allowance(address owner, address spender) public view virtual override returns (uint256) {\r... */\n    tag_97:\n        /* \"contracts/PVCMeta.sol\":10467:10474  uint256 */\n      0x00\n        /* \"contracts/PVCMeta.sol\":10494:10505  _allowances */\n      0x01\n        /* \"contracts/PVCMeta.sol\":10494:10512  _allowances[owner] */\n      0x00\n        /* \"contracts/PVCMeta.sol\":10506:10511  owner */\n      dup5\n        /* \"contracts/PVCMeta.sol\":10494:10512  _allowances[owner] */\n      0xffffffffffffffffffffffffffffffffffffffff\n      and\n      0xffffffffffffffffffffffffffffffffffffffff\n      and\n      dup2\n      mstore\n      0x20\n      add\n      swap1\n      dup2\n      mstore\n      0x20\n      add\n      0x00\n      keccak256\n        /* \"contracts/PVCMeta.sol\":10494:10521  _allowances[owner][spender] */\n      0x00\n        /* \"contracts/PVCMeta.sol\":10513:10520  spender */\n      dup4\n        /* \"contracts/PVCMeta.sol\":10494:10521  _allowances[owner][spender] */\n      0xffffffffffffffffffffffffffffffffffffffff\n      and\n      0xffffffffffffffffffffffffffffffffffffffff\n      and\n      dup2\n      mstore\n      0x20\n      add\n      swap1\n      dup2\n      mstore\n      0x20\n      add\n      0x00\n      keccak256\n      sload\n        /* \"contracts/PVCMeta.sol\":10487:10521  return _allowances[owner][spender] */\n      swap1\n      pop\n        /* \"contracts/PVCMeta.sol\":10378:10529  function allowance(address owner, address spender) public view virtual override returns (uint256) {\r... */\n      swap3\n      swap2\n      pop\n      pop\n      jump\t// out\n        /* \"contracts/PVCMeta.sol\":21500:21692  function transferOwnership(address newOwner) public virtual onlyOwner {\r... */\n    tag_101:\n        /* \"contracts/PVCMeta.sol\":20831:20843  _msgSender() */\n      tag_211\n        /* \"contracts/PVCMeta.sol\":20831:20841  _msgSender */\n      tag_113\n        /* \"contracts/PVCMeta.sol\":20831:20843  _msgSender() */\n      jump\t// in\n    tag_211:\n        /* \"contracts/PVCMeta.sol\":20820:20843  owner() == _msgSender() */\n      0xffffffffffffffffffffffffffffffffffffffff\n      and\n        /* \"contracts/PVCMeta.sol\":20820:20827  owner() */\n      tag_212\n        /* \"contracts/PVCMeta.sol\":20820:20825  owner */\n      tag_75\n        /* \"contracts/PVCMeta.sol\":20820:20827  owner() */\n      jump\t// in\n    tag_212:\n        /* \"contracts/PVCMeta.sol\":20820:20843  owner() == _msgSender() */\n      0xffffffffffffffffffffffffffffffffffffffff\n      and\n      eq\n        /* \"contracts/PVCMeta.sol\":20812:20880  require(owner() == _msgSender(), \"Ownable: caller is not the owner\") */\n      tag_213\n      jumpi\n      mload(0x40)\n      0x08c379a000000000000000000000000000000000000000000000000000000000\n      dup2\n      mstore\n      0x04\n      add\n      tag_214\n      swap1\n      tag_137\n      jump\t// in\n    tag_214:\n      mload(0x40)\n      dup1\n      swap2\n      sub\n      swap1\n      revert\n    tag_213:\n        /* \"contracts/PVCMeta.sol\":21609:21610  0 */\n      0x00\n        /* \"contracts/PVCMeta.sol\":21589:21611  newOwner != address(0) */\n      0xffffffffffffffffffffffffffffffffffffffff\n      and\n        /* \"contracts/PVCMeta.sol\":21589:21597  newOwner */\n      dup2\n        /* \"contracts/PVCMeta.sol\":21589:21611  newOwner != address(0) */\n      0xffffffffffffffffffffffffffffffffffffffff\n      and\n      eq\n      iszero\n        /* \"contracts/PVCMeta.sol\":21581:21654  require(newOwner != address(0), \"Ownable: new owner is the zero address\") */\n      tag_216\n      jumpi\n      mload(0x40)\n      0x08c379a000000000000000000000000000000000000000000000000000000000\n      dup2\n      mstore\n      0x04\n      add\n      tag_217\n      swap1\n      tag_218\n      jump\t// in\n    tag_217:\n      mload(0x40)\n      dup1\n      swap2\n      sub\n      swap1\n      revert\n    tag_216:\n        /* \"contracts/PVCMeta.sol\":21665:21684  _setOwner(newOwner) */\n      tag_219\n        /* \"contracts/PVCMeta.sol\":21675:21683  newOwner */\n      dup2\n        /* \"contracts/PVCMeta.sol\":21665:21674  _setOwner */\n      tag_154\n        /* \"contracts/PVCMeta.sol\":21665:21684  _setOwner(newOwner) */\n      jump\t// in\n    tag_219:\n        /* \"contracts/PVCMeta.sol\":21500:21692  function transferOwnership(address newOwner) public virtual onlyOwner {\r... */\n      pop\n      jump\t// out\n        /* \"contracts/PVCMeta.sol\":17610:17735  function _beforeTokenTransfer(\r... */\n    tag_102:\n      pop\n      pop\n      pop\n      jump\t// out\n        /* \"contracts/PVCMeta.sol\":742:840  function _msgSender() internal view virtual returns (address) {\r... */\n    tag_113:\n        /* \"contracts/PVCMeta.sol\":795:802  address */\n      0x00\n        /* \"contracts/PVCMeta.sol\":822:832  msg.sender */\n      caller\n        /* \"contracts/PVCMeta.sol\":815:832  return msg.sender */\n      swap1\n      pop\n        /* \"contracts/PVCMeta.sol\":742:840  function _msgSender() internal view virtual returns (address) {\r... */\n      swap1\n      jump\t// out\n        /* \"contracts/PVCMeta.sol\":16630:17010  function _approve(\r... */\n    tag_114:\n        /* \"contracts/PVCMeta.sol\":16783:16784  0 */\n      0x00\n        /* \"contracts/PVCMeta.sol\":16766:16785  owner != address(0) */\n      0xffffffffffffffffffffffffffffffffffffffff\n      and\n        /* \"contracts/PVCMeta.sol\":16766:16771  owner */\n      dup4\n        /* \"contracts/PVCMeta.sol\":16766:16785  owner != address(0) */\n      0xffffffffffffffffffffffffffffffffffffffff\n      and\n      eq\n      iszero\n        /* \"contracts/PVCMeta.sol\":16758:16826  require(owner != address(0), \"ERC20: approve from the zero address\") */\n      tag_223\n      jumpi\n      mload(0x40)\n      0x08c379a000000000000000000000000000000000000000000000000000000000\n      dup2\n      mstore\n      0x04\n      add\n      tag_224\n      swap1\n      tag_225\n      jump\t// in\n    tag_224:\n      mload(0x40)\n      dup1\n      swap2\n      sub\n      swap1\n      revert\n    tag_223:\n        /* \"contracts/PVCMeta.sol\":16864:16865  0 */\n      0x00\n        /* \"contracts/PVCMeta.sol\":16845:16866  spender != address(0) */\n      0xffffffffffffffffffffffffffffffffffffffff\n      and\n        /* \"contracts/PVCMeta.sol\":16845:16852  spender */\n      dup3\n        /* \"contracts/PVCMeta.sol\":16845:16866  spender != address(0) */\n      0xffffffffffffffffffffffffffffffffffffffff\n      and\n      eq\n      iszero\n        /* \"contracts/PVCMeta.sol\":16837:16905  require(spender != address(0), \"ERC20: approve to the zero address\") */\n      tag_226\n      jumpi\n      mload(0x40)\n      0x08c379a000000000000000000000000000000000000000000000000000000000\n      dup2\n      mstore\n      0x04\n      add\n      tag_227\n      swap1\n      tag_228\n      jump\t// in\n    tag_227:\n      mload(0x40)\n      dup1\n      swap2\n      sub\n      swap1\n      revert\n    tag_226:\n        /* \"contracts/PVCMeta.sol\":16948:16954  amount */\n      dup1\n        /* \"contracts/PVCMeta.sol\":16918:16929  _allowances */\n      0x01\n        /* \"contracts/PVCMeta.sol\":16918:16936  _allowances[owner] */\n      0x00\n        /* \"contracts/PVCMeta.sol\":16930:16935  owner */\n      dup6\n        /* \"contracts/PVCMeta.sol\":16918:16936  _allowances[owner] */\n      0xffffffffffffffffffffffffffffffffffffffff\n      and\n      0xffffffffffffffffffffffffffffffffffffffff\n      and\n      dup2\n      mstore\n      0x20\n      add\n      swap1\n      dup2\n      mstore\n      0x20\n      add\n      0x00\n      keccak256\n        /* \"contracts/PVCMeta.sol\":16918:16945  _allowances[owner][spender] */\n      0x00\n        /* \"contracts/PVCMeta.sol\":16937:16944  spender */\n      dup5\n        /* \"contracts/PVCMeta.sol\":16918:16945  _allowances[owner][spender] */\n      0xffffffffffffffffffffffffffffffffffffffff\n      and\n      0xffffffffffffffffffffffffffffffffffffffff\n      and\n      dup2\n      mstore\n      0x20\n      add\n      swap1\n      dup2\n      mstore\n      0x20\n      add\n      0x00\n      keccak256\n        /* \"contracts/PVCMeta.sol\":16918:16954  _allowances[owner][spender] = amount */\n      dup2\n      swap1\n      sstore\n      pop\n        /* \"contracts/PVCMeta.sol\":16986:16993  spender */\n      dup2\n        /* \"contracts/PVCMeta.sol\":16970:17002  Approval(owner, spender, amount) */\n      0xffffffffffffffffffffffffffffffffffffffff\n      and\n        /* \"contracts/PVCMeta.sol\":16979:16984  owner */\n      dup4\n        /* \"contracts/PVCMeta.sol\":16970:17002  Approval(owner, spender, amount) */\n      0xffffffffffffffffffffffffffffffffffffffff\n      and\n      0x8c5be1e5ebec7d5bd14f71427d1e84f3dd0314c0f7b2291e5b200ac8c7c3b925\n        /* \"contracts/PVCMeta.sol\":16995:17001  amount */\n      dup4\n        /* \"contracts/PVCMeta.sol\":16970:17002  Approval(owner, spender, amount) */\n      mload(0x40)\n      tag_229\n      swap2\n      swap1\n      tag_39\n      jump\t// in\n    tag_229:\n      mload(0x40)\n      dup1\n      swap2\n      sub\n      swap1\n      log3\n        /* \"contracts/PVCMeta.sol\":16630:17010  function _approve(\r... */\n      pop\n      pop\n      pop\n      jump\t// out\n        /* \"contracts/PVCMeta.sol\":13849:14582  function _transfer(\r... */\n    tag_118:\n        /* \"contracts/PVCMeta.sol\":14007:14008  0 */\n      0x00\n        /* \"contracts/PVCMeta.sol\":13989:14009  sender != address(0) */\n      0xffffffffffffffffffffffffffffffffffffffff\n      and\n        /* \"contracts/PVCMeta.sol\":13989:13995  sender */\n      dup4\n        /* \"contracts/PVCMeta.sol\":13989:14009  sender != address(0) */\n      0xffffffffffffffffffffffffffffffffffffffff\n      and\n      eq\n      iszero\n        /* \"contracts/PVCMeta.sol\":13981:14051  require(sender != address(0), \"ERC20: transfer from the zero address\") */\n      tag_231\n      jumpi\n      mload(0x40)\n      0x08c379a000000000000000000000000000000000000000000000000000000000\n      dup2\n      mstore\n      0x04\n      add\n      tag_232\n      swap1\n      tag_233\n      jump\t// in\n    tag_232:\n      mload(0x40)\n      dup1\n      swap2\n      sub\n      swap1\n      revert\n    tag_231:\n        /* \"contracts/PVCMeta.sol\":14091:14092  0 */\n      0x00\n        /* \"contracts/PVCMeta.sol\":14070:14093  recipient != address(0) */\n      0xffffffffffffffffffffffffffffffffffffffff\n      and\n        /* \"contracts/PVCMeta.sol\":14070:14079  recipient */\n      dup3\n        /* \"contracts/PVCMeta.sol\":14070:14093  recipient != address(0) */\n      0xffffffffffffffffffffffffffffffffffffffff\n      and\n      eq\n      iszero\n        /* \"contracts/PVCMeta.sol\":14062:14133  require(recipient != address(0), \"ERC20: transfer to the zero address\") */\n      tag_234\n      jumpi\n      mload(0x40)\n      0x08c379a000000000000000000000000000000000000000000000000000000000\n      dup2\n      mstore\n      0x04\n      add\n      tag_235\n      swap1\n      tag_236\n      jump\t// in\n    tag_235:\n      mload(0x40)\n      dup1\n      swap2\n      sub\n      swap1\n      revert\n    tag_234:\n        /* \"contracts/PVCMeta.sol\":14146:14193  _beforeTokenTransfer(sender, recipient, amount) */\n      tag_237\n        /* \"contracts/PVCMeta.sol\":14167:14173  sender */\n      dup4\n        /* \"contracts/PVCMeta.sol\":14175:14184  recipient */\n      dup4\n        /* \"contracts/PVCMeta.sol\":14186:14192  amount */\n      dup4\n        /* \"contracts/PVCMeta.sol\":14146:14166  _beforeTokenTransfer */\n      tag_238\n        /* \"contracts/PVCMeta.sol\":14146:14193  _beforeTokenTransfer(sender, recipient, amount) */\n      jump\t// in\n    tag_237:\n        /* \"contracts/PVCMeta.sol\":14206:14227  uint256 senderBalance */\n      0x00\n        /* \"contracts/PVCMeta.sol\":14230:14239  _balances */\n      dup1\n        /* \"contracts/PVCMeta.sol\":14230:14247  _balances[sender] */\n      0x00\n        /* \"contracts/PVCMeta.sol\":14240:14246  sender */\n      dup6\n        /* \"contracts/PVCMeta.sol\":14230:14247  _balances[sender] */\n      0xffffffffffffffffffffffffffffffffffffffff\n      and\n      0xffffffffffffffffffffffffffffffffffffffff\n      and\n      dup2\n      mstore\n      0x20\n      add\n      swap1\n      dup2\n      mstore\n      0x20\n      add\n      0x00\n      keccak256\n      sload\n        /* \"contracts/PVCMeta.sol\":14206:14247  uint256 senderBalance = _balances[sender] */\n      swap1\n      pop\n        /* \"contracts/PVCMeta.sol\":14283:14289  amount */\n      dup2\n        /* \"contracts/PVCMeta.sol\":14266:14279  senderBalance */\n      dup2\n        /* \"contracts/PVCMeta.sol\":14266:14289  senderBalance >= amount */\n      lt\n      iszero\n        /* \"contracts/PVCMeta.sol\":14258:14332  require(senderBalance >= amount, \"ERC20: transfer amount exceeds balance\") */\n      tag_239\n      jumpi\n      mload(0x40)\n      0x08c379a000000000000000000000000000000000000000000000000000000000\n      dup2\n      mstore\n      0x04\n      add\n      tag_240\n      swap1\n      tag_241\n      jump\t// in\n    tag_240:\n      mload(0x40)\n      dup1\n      swap2\n      sub\n      swap1\n      revert\n    tag_239:\n        /* \"contracts/PVCMeta.sol\":14404:14410  amount */\n      dup2\n        /* \"contracts/PVCMeta.sol\":14388:14401  senderBalance */\n      dup2\n        /* \"contracts/PVCMeta.sol\":14388:14410  senderBalance - amount */\n      sub\n        /* \"contracts/PVCMeta.sol\":14368:14377  _balances */\n      0x00\n        /* \"contracts/PVCMeta.sol\":14368:14385  _balances[sender] */\n      dup1\n        /* \"contracts/PVCMeta.sol\":14378:14384  sender */\n      dup7\n        /* \"contracts/PVCMeta.sol\":14368:14385  _balances[sender] */\n      0xffffffffffffffffffffffffffffffffffffffff\n      and\n      0xffffffffffffffffffffffffffffffffffffffff\n      and\n      dup2\n      mstore\n      0x20\n      add\n      swap1\n      dup2\n      mstore\n      0x20\n      add\n      0x00\n      keccak256\n        /* \"contracts/PVCMeta.sol\":14368:14410  _balances[sender] = senderBalance - amount */\n      dup2\n      swap1\n      sstore\n      pop\n        /* \"contracts/PVCMeta.sol\":14456:14462  amount */\n      dup2\n        /* \"contracts/PVCMeta.sol\":14432:14441  _balances */\n      0x00\n        /* \"contracts/PVCMeta.sol\":14432:14452  _balances[recipient] */\n      dup1\n        /* \"contracts/PVCMeta.sol\":14442:14451  recipient */\n      dup6\n        /* \"contracts/PVCMeta.sol\":14432:14452  _balances[recipient] */\n      0xffffffffffffffffffffffffffffffffffffffff\n      and\n      0xffffffffffffffffffffffffffffffffffffffff\n      and\n      dup2\n      mstore\n      0x20\n      add\n      swap1\n      dup2\n      mstore\n      0x20\n      add\n      0x00\n      keccak256\n      0x00\n        /* \"contracts/PVCMeta.sol\":14432:14462  _balances[recipient] += amount */\n      dup3\n      dup3\n      sload\n      tag_242\n      swap2\n      swap1\n      tag_131\n      jump\t// in\n    tag_242:\n      swap3\n      pop\n      pop\n      dup2\n      swap1\n      sstore\n      pop\n        /* \"contracts/PVCMeta.sol\":14497:14506  recipient */\n      dup3\n        /* \"contracts/PVCMeta.sol\":14480:14515  Transfer(sender, recipient, amount) */\n      0xffffffffffffffffffffffffffffffffffffffff\n      and\n        /* \"contracts/PVCMeta.sol\":14489:14495  sender */\n      dup5\n        /* \"contracts/PVCMeta.sol\":14480:14515  Transfer(sender, recipient, amount) */\n      0xffffffffffffffffffffffffffffffffffffffff\n      and\n      0xddf252ad1be2c89b69c2b068fc378daa952ba7f163c4a11628f55a4df523b3ef\n        /* \"contracts/PVCMeta.sol\":14508:14514  amount */\n      dup5\n        /* \"contracts/PVCMeta.sol\":14480:14515  Transfer(sender, recipient, amount) */\n      mload(0x40)\n      tag_243\n      swap2\n      swap1\n      tag_39\n      jump\t// in\n    tag_243:\n      mload(0x40)\n      dup1\n      swap2\n      sub\n      swap1\n      log3\n        /* \"contracts/PVCMeta.sol\":14528:14574  _afterTokenTransfer(sender, recipient, amount) */\n      tag_244\n        /* \"contracts/PVCMeta.sol\":14548:14554  sender */\n      dup5\n        /* \"contracts/PVCMeta.sol\":14556:14565  recipient */\n      dup5\n        /* \"contracts/PVCMeta.sol\":14567:14573  amount */\n      dup5\n        /* \"contracts/PVCMeta.sol\":14528:14547  _afterTokenTransfer */\n      tag_245\n        /* \"contracts/PVCMeta.sol\":14528:14574  _afterTokenTransfer(sender, recipient, amount) */\n      jump\t// in\n    tag_244:\n        /* \"contracts/PVCMeta.sol\":13970:14582  {\r... */\n      pop\n        /* \"contracts/PVCMeta.sol\":13849:14582  function _transfer(\r... */\n      pop\n      pop\n      pop\n      jump\t// out\n        /* \"contracts/PVCMeta.sol\":5801:5921  function _unpause() internal virtual whenPaused {\r... */\n    tag_140:\n        /* \"contracts/PVCMeta.sol\":5345:5353  paused() */\n      tag_247\n        /* \"contracts/PVCMeta.sol\":5345:5351  paused */\n      tag_60\n        /* \"contracts/PVCMeta.sol\":5345:5353  paused() */\n      jump\t// in\n    tag_247:\n        /* \"contracts/PVCMeta.sol\":5337:5378  require(paused(), \"Pausable: not paused\") */\n      tag_248\n      jumpi\n      mload(0x40)\n      0x08c379a000000000000000000000000000000000000000000000000000000000\n      dup2\n      mstore\n      0x04\n      add\n      tag_249\n      swap1\n      tag_250\n      jump\t// in\n    tag_249:\n      mload(0x40)\n      dup1\n      swap2\n      sub\n      swap1\n      revert\n    tag_248:\n        /* \"contracts/PVCMeta.sol\":5870:5875  false */\n      0x00\n        /* \"contracts/PVCMeta.sol\":5860:5867  _paused */\n      0x05\n      0x00\n        /* \"contracts/PVCMeta.sol\":5860:5875  _paused = false */\n      0x0100\n      exp\n      dup2\n      sload\n      dup2\n      0xff\n      mul\n      not\n      and\n      swap1\n      dup4\n      iszero\n      iszero\n      mul\n      or\n      swap1\n      sstore\n      pop\n        /* \"contracts/PVCMeta.sol\":5891:5913  Unpaused(_msgSender()) */\n      0x5db9ee0a495bf2e6ff9c91a7834c1ba4fdd244a5e8aa4e537bd38aeae4b073aa\n        /* \"contracts/PVCMeta.sol\":5900:5912  _msgSender() */\n      tag_252\n        /* \"contracts/PVCMeta.sol\":5900:5910  _msgSender */\n      tag_113\n        /* \"contracts/PVCMeta.sol\":5900:5912  _msgSender() */\n      jump\t// in\n    tag_252:\n        /* \"contracts/PVCMeta.sol\":5891:5913  Unpaused(_msgSender()) */\n      mload(0x40)\n      tag_253\n      swap2\n      swap1\n      tag_77\n      jump\t// in\n    tag_253:\n      mload(0x40)\n      dup1\n      swap2\n      sub\n      swap1\n      log1\n        /* \"contracts/PVCMeta.sol\":5801:5921  function _unpause() internal virtual whenPaused {\r... */\n      jump\t// out\n        /* \"contracts/PVCMeta.sol\":15601:16192  function _burn(address account, uint256 amount) internal virtual {\r... */\n    tag_144:\n        /* \"contracts/PVCMeta.sol\":15704:15705  0 */\n      0x00\n        /* \"contracts/PVCMeta.sol\":15685:15706  account != address(0) */\n      0xffffffffffffffffffffffffffffffffffffffff\n      and\n        /* \"contracts/PVCMeta.sol\":15685:15692  account */\n      dup3\n        /* \"contracts/PVCMeta.sol\":15685:15706  account != address(0) */\n      0xffffffffffffffffffffffffffffffffffffffff\n      and\n      eq\n      iszero\n        /* \"contracts/PVCMeta.sol\":15677:15744  require(account != address(0), \"ERC20: burn from the zero address\") */\n      tag_255\n      jumpi\n      mload(0x40)\n      0x08c379a000000000000000000000000000000000000000000000000000000000\n      dup2\n      mstore\n      0x04\n      add\n      tag_256\n      swap1\n      tag_257\n      jump\t// in\n    tag_256:\n      mload(0x40)\n      dup1\n      swap2\n      sub\n      swap1\n      revert\n    tag_255:\n        /* \"contracts/PVCMeta.sol\":15757:15806  _beforeTokenTransfer(account, address(0), amount) */\n      tag_258\n        /* \"contracts/PVCMeta.sol\":15778:15785  account */\n      dup3\n        /* \"contracts/PVCMeta.sol\":15795:15796  0 */\n      0x00\n        /* \"contracts/PVCMeta.sol\":15799:15805  amount */\n      dup4\n        /* \"contracts/PVCMeta.sol\":15757:15777  _beforeTokenTransfer */\n      tag_238\n        /* \"contracts/PVCMeta.sol\":15757:15806  _beforeTokenTransfer(account, address(0), amount) */\n      jump\t// in\n    tag_258:\n        /* \"contracts/PVCMeta.sol\":15819:15841  uint256 accountBalance */\n      0x00\n        /* \"contracts/PVCMeta.sol\":15844:15853  _balances */\n      dup1\n        /* \"contracts/PVCMeta.sol\":15844:15862  _balances[account] */\n      0x00\n        /* \"contracts/PVCMeta.sol\":15854:15861  account */\n      dup5\n        /* \"contracts/PVCMeta.sol\":15844:15862  _balances[account] */\n      0xffffffffffffffffffffffffffffffffffffffff\n      and\n      0xffffffffffffffffffffffffffffffffffffffff\n      and\n      dup2\n      mstore\n      0x20\n      add\n      swap1\n      dup2\n      mstore\n      0x20\n      add\n      0x00\n      keccak256\n      sload\n        /* \"contracts/PVCMeta.sol\":15819:15862  uint256 accountBalance = _balances[account] */\n      swap1\n      pop\n        /* \"contracts/PVCMeta.sol\":15899:15905  amount */\n      dup2\n        /* \"contracts/PVCMeta.sol\":15881:15895  accountBalance */\n      dup2\n        /* \"contracts/PVCMeta.sol\":15881:15905  accountBalance >= amount */\n      lt\n      iszero\n        /* \"contracts/PVCMeta.sol\":15873:15944  require(accountBalance >= amount, \"ERC20: burn amount exceeds balance\") */\n      tag_259\n      jumpi\n      mload(0x40)\n      0x08c379a000000000000000000000000000000000000000000000000000000000\n      dup2\n      mstore\n      0x04\n      add\n      tag_260\n      swap1\n      tag_261\n      jump\t// in\n    tag_260:\n      mload(0x40)\n      dup1\n      swap2\n      sub\n      swap1\n      revert\n    tag_259:\n        /* \"contracts/PVCMeta.sol\":16018:16024  amount */\n      dup2\n        /* \"contracts/PVCMeta.sol\":16001:16015  accountBalance */\n      dup2\n        /* \"contracts/PVCMeta.sol\":16001:16024  accountBalance - amount */\n      sub\n        /* \"contracts/PVCMeta.sol\":15980:15989  _balances */\n      0x00\n        /* \"contracts/PVCMeta.sol\":15980:15998  _balances[account] */\n      dup1\n        /* \"contracts/PVCMeta.sol\":15990:15997  account */\n      dup6\n        /* \"contracts/PVCMeta.sol\":15980:15998  _balances[account] */\n      0xffffffffffffffffffffffffffffffffffffffff\n      and\n      0xffffffffffffffffffffffffffffffffffffffff\n      and\n      dup2\n      mstore\n      0x20\n      add\n      swap1\n      dup2\n      mstore\n      0x20\n      add\n      0x00\n      keccak256\n        /* \"contracts/PVCMeta.sol\":15980:16024  _balances[account] = accountBalance - amount */\n      dup2\n      swap1\n      sstore\n      pop\n        /* \"contracts/PVCMeta.sol\":16062:16068  amount */\n      dup2\n        /* \"contracts/PVCMeta.sol\":16046:16058  _totalSupply */\n      0x02\n      0x00\n        /* \"contracts/PVCMeta.sol\":16046:16068  _totalSupply -= amount */\n      dup3\n      dup3\n      sload\n      tag_262\n      swap2\n      swap1\n      tag_263\n      jump\t// in\n    tag_262:\n      swap3\n      pop\n      pop\n      dup2\n      swap1\n      sstore\n      pop\n        /* \"contracts/PVCMeta.sol\":16112:16113  0 */\n      0x00\n        /* \"contracts/PVCMeta.sol\":16086:16123  Transfer(account, address(0), amount) */\n      0xffffffffffffffffffffffffffffffffffffffff\n      and\n        /* \"contracts/PVCMeta.sol\":16095:16102  account */\n      dup4\n        /* \"contracts/PVCMeta.sol\":16086:16123  Transfer(account, address(0), amount) */\n      0xffffffffffffffffffffffffffffffffffffffff\n      and\n      0xddf252ad1be2c89b69c2b068fc378daa952ba7f163c4a11628f55a4df523b3ef\n        /* \"contracts/PVCMeta.sol\":16116:16122  amount */\n      dup5\n        /* \"contracts/PVCMeta.sol\":16086:16123  Transfer(account, address(0), amount) */\n      mload(0x40)\n      tag_264\n      swap2\n      swap1\n      tag_39\n      jump\t// in\n    tag_264:\n      mload(0x40)\n      dup1\n      swap2\n      sub\n      swap1\n      log3\n        /* \"contracts/PVCMeta.sol\":16136:16184  _afterTokenTransfer(account, address(0), amount) */\n      tag_265\n        /* \"contracts/PVCMeta.sol\":16156:16163  account */\n      dup4\n        /* \"contracts/PVCMeta.sol\":16173:16174  0 */\n      0x00\n        /* \"contracts/PVCMeta.sol\":16177:16183  amount */\n      dup5\n        /* \"contracts/PVCMeta.sol\":16136:16155  _afterTokenTransfer */\n      tag_245\n        /* \"contracts/PVCMeta.sol\":16136:16184  _afterTokenTransfer(account, address(0), amount) */\n      jump\t// in\n    tag_265:\n        /* \"contracts/PVCMeta.sol\":15666:16192  {\r... */\n      pop\n        /* \"contracts/PVCMeta.sol\":15601:16192  function _burn(address account, uint256 amount) internal virtual {\r... */\n      pop\n      pop\n      jump\t// out\n        /* \"contracts/PVCMeta.sol\":21700:21873  function _setOwner(address newOwner) private {\r... */\n    tag_154:\n        /* \"contracts/PVCMeta.sol\":21756:21772  address oldOwner */\n      0x00\n        /* \"contracts/PVCMeta.sol\":21775:21781  _owner */\n      0x05\n      0x01\n      swap1\n      sload\n      swap1\n      0x0100\n      exp\n      swap1\n      div\n      0xffffffffffffffffffffffffffffffffffffffff\n      and\n        /* \"contracts/PVCMeta.sol\":21756:21781  address oldOwner = _owner */\n      swap1\n      pop\n        /* \"contracts/PVCMeta.sol\":21801:21809  newOwner */\n      dup2\n        /* \"contracts/PVCMeta.sol\":21792:21798  _owner */\n      0x05\n      0x01\n        /* \"contracts/PVCMeta.sol\":21792:21809  _owner = newOwner */\n      0x0100\n      exp\n      dup2\n      sload\n      dup2\n      0xffffffffffffffffffffffffffffffffffffffff\n      mul\n      not\n      and\n      swap1\n      dup4\n      0xffffffffffffffffffffffffffffffffffffffff\n      and\n      mul\n      or\n      swap1\n      sstore\n      pop\n        /* \"contracts/PVCMeta.sol\":21856:21864  newOwner */\n      dup2\n        /* \"contracts/PVCMeta.sol\":21825:21865  OwnershipTransferred(oldOwner, newOwner) */\n      0xffffffffffffffffffffffffffffffffffffffff\n      and\n        /* \"contracts/PVCMeta.sol\":21846:21854  oldOwner */\n      dup2\n        /* \"contracts/PVCMeta.sol\":21825:21865  OwnershipTransferred(oldOwner, newOwner) */\n      0xffffffffffffffffffffffffffffffffffffffff\n      and\n      0x8be0079c531659141344cd1fd0a4f28419497f9722a3daafe3b4186f6b6457e0\n      mload(0x40)\n      mload(0x40)\n      dup1\n      swap2\n      sub\n      swap1\n      log3\n        /* \"contracts/PVCMeta.sol\":21745:21873  {\r... */\n      pop\n        /* \"contracts/PVCMeta.sol\":21700:21873  function _setOwner(address newOwner) private {\r... */\n      pop\n      jump\t// out\n        /* \"contracts/PVCMeta.sol\":5542:5660  function _pause() internal virtual whenNotPaused {\r... */\n    tag_171:\n        /* \"contracts/PVCMeta.sol\":5068:5076  paused() */\n      tag_268\n        /* \"contracts/PVCMeta.sol\":5068:5074  paused */\n      tag_60\n        /* \"contracts/PVCMeta.sol\":5068:5076  paused() */\n      jump\t// in\n    tag_268:\n        /* \"contracts/PVCMeta.sol\":5067:5076  !paused() */\n      iszero\n        /* \"contracts/PVCMeta.sol\":5059:5097  require(!paused(), \"Pausable: paused\") */\n      tag_269\n      jumpi\n      mload(0x40)\n      0x08c379a000000000000000000000000000000000000000000000000000000000\n      dup2\n      mstore\n      0x04\n      add\n      tag_270\n      swap1\n      tag_271\n      jump\t// in\n    tag_270:\n      mload(0x40)\n      dup1\n      swap2\n      sub\n      swap1\n      revert\n    tag_269:\n        /* \"contracts/PVCMeta.sol\":5612:5616  true */\n      0x01\n        /* \"contracts/PVCMeta.sol\":5602:5609  _paused */\n      0x05\n      0x00\n        /* \"contracts/PVCMeta.sol\":5602:5616  _paused = true */\n      0x0100\n      exp\n      dup2\n      sload\n      dup2\n      0xff\n      mul\n      not\n      and\n      swap1\n      dup4\n      iszero\n      iszero\n      mul\n      or\n      swap1\n      sstore\n      pop\n        /* \"contracts/PVCMeta.sol\":5632:5652  Paused(_msgSender()) */\n      0x62e78cea01bee320cd4e420270b5ea74000d11b0c9f74754ebdbfc544b05a258\n        /* \"contracts/PVCMeta.sol\":5639:5651  _msgSender() */\n      tag_273\n        /* \"contracts/PVCMeta.sol\":5639:5649  _msgSender */\n      tag_113\n        /* \"contracts/PVCMeta.sol\":5639:5651  _msgSender() */\n      jump\t// in\n    tag_273:\n        /* \"contracts/PVCMeta.sol\":5632:5652  Paused(_msgSender()) */\n      mload(0x40)\n      tag_274\n      swap2\n      swap1\n      tag_77\n      jump\t// in\n    tag_274:\n      mload(0x40)\n      dup1\n      swap2\n      sub\n      swap1\n      log1\n        /* \"contracts/PVCMeta.sol\":5542:5660  function _pause() internal virtual whenNotPaused {\r... */\n      jump\t// out\n        /* \"contracts/PVCMeta.sol\":23093:23292  function _beforeTokenTransfer(address from, address to, uint256 amount)\r... */\n    tag_238:\n        /* \"contracts/PVCMeta.sol\":5068:5076  paused() */\n      tag_276\n        /* \"contracts/PVCMeta.sol\":5068:5074  paused */\n      tag_60\n        /* \"contracts/PVCMeta.sol\":5068:5076  paused() */\n      jump\t// in\n    tag_276:\n        /* \"contracts/PVCMeta.sol\":5067:5076  !paused() */\n      iszero\n        /* \"contracts/PVCMeta.sol\":5059:5097  require(!paused(), \"Pausable: paused\") */\n      tag_277\n      jumpi\n      mload(0x40)\n      0x08c379a000000000000000000000000000000000000000000000000000000000\n      dup2\n      mstore\n      0x04\n      add\n      tag_278\n      swap1\n      tag_271\n      jump\t// in\n    tag_278:\n      mload(0x40)\n      dup1\n      swap2\n      sub\n      swap1\n      revert\n    tag_277:\n        /* \"contracts/PVCMeta.sol\":23240:23284  super._beforeTokenTransfer(from, to, amount) */\n      tag_280\n        /* \"contracts/PVCMeta.sol\":23267:23271  from */\n      dup4\n        /* \"contracts/PVCMeta.sol\":23273:23275  to */\n      dup4\n        /* \"contracts/PVCMeta.sol\":23277:23283  amount */\n      dup4\n        /* \"contracts/PVCMeta.sol\":23240:23266  super._beforeTokenTransfer */\n      tag_102\n        /* \"contracts/PVCMeta.sol\":23240:23284  super._beforeTokenTransfer(from, to, amount) */\n      jump\t// in\n    tag_280:\n        /* \"contracts/PVCMeta.sol\":23093:23292  function _beforeTokenTransfer(address from, address to, uint256 amount)\r... */\n      pop\n      pop\n      pop\n      jump\t// out\n        /* \"contracts/PVCMeta.sol\":18339:18463  function _afterTokenTransfer(\r... */\n    tag_245:\n      pop\n      pop\n      pop\n      jump\t// out\n        /* \"#utility.yul\":24:746   */\n    tag_283:\n        /* \"#utility.yul\":120:125   */\n      0x00\n        /* \"#utility.yul\":145:226   */\n      tag_285\n        /* \"#utility.yul\":161:225   */\n      tag_286\n        /* \"#utility.yul\":218:224   */\n      dup5\n        /* \"#utility.yul\":161:225   */\n      tag_287\n      jump\t// in\n    tag_286:\n        /* \"#utility.yul\":145:226   */\n      tag_288\n      jump\t// in\n    tag_285:\n        /* \"#utility.yul\":136:226   */\n      swap1\n      pop\n        /* \"#utility.yul\":246:251   */\n      dup1\n        /* \"#utility.yul\":275:281   */\n      dup4\n        /* \"#utility.yul\":268:273   */\n      dup3\n        /* \"#utility.yul\":261:282   */\n      mstore\n        /* \"#utility.yul\":309:313   */\n      0x20\n        /* \"#utility.yul\":302:307   */\n      dup3\n        /* \"#utility.yul\":298:314   */\n      add\n        /* \"#utility.yul\":291:314   */\n      swap1\n      pop\n        /* \"#utility.yul\":335:341   */\n      dup3\n        /* \"#utility.yul\":385:388   */\n      dup6\n        /* \"#utility.yul\":377:381   */\n      0x20\n        /* \"#utility.yul\":369:375   */\n      dup7\n        /* \"#utility.yul\":365:382   */\n      mul\n        /* \"#utility.yul\":360:363   */\n      dup3\n        /* \"#utility.yul\":356:383   */\n      add\n        /* \"#utility.yul\":353:389   */\n      gt\n        /* \"#utility.yul\":350:493   */\n      iszero\n      tag_289\n      jumpi\n        /* \"#utility.yul\":404:483   */\n      tag_290\n      tag_291\n      jump\t// in\n    tag_290:\n        /* \"#utility.yul\":350:493   */\n    tag_289:\n        /* \"#utility.yul\":517:518   */\n      0x00\n        /* \"#utility.yul\":502:740   */\n    tag_292:\n        /* \"#utility.yul\":527:533   */\n      dup6\n        /* \"#utility.yul\":524:525   */\n      dup2\n        /* \"#utility.yul\":521:534   */\n      lt\n        /* \"#utility.yul\":502:740   */\n      iszero\n      tag_294\n      jumpi\n        /* \"#utility.yul\":595:598   */\n      dup2\n        /* \"#utility.yul\":624:661   */\n      tag_295\n        /* \"#utility.yul\":657:660   */\n      dup9\n        /* \"#utility.yul\":645:655   */\n      dup3\n        /* \"#utility.yul\":624:661   */\n      tag_296\n      jump\t// in\n    tag_295:\n        /* \"#utility.yul\":619:622   */\n      dup5\n        /* \"#utility.yul\":612:662   */\n      mstore\n        /* \"#utility.yul\":691:695   */\n      0x20\n        /* \"#utility.yul\":686:689   */\n      dup5\n        /* \"#utility.yul\":682:696   */\n      add\n        /* \"#utility.yul\":675:696   */\n      swap4\n      pop\n        /* \"#utility.yul\":725:729   */\n      0x20\n        /* \"#utility.yul\":720:723   */\n      dup4\n        /* \"#utility.yul\":716:730   */\n      add\n        /* \"#utility.yul\":709:730   */\n      swap3\n      pop\n        /* \"#utility.yul\":562:740   */\n      pop\n        /* \"#utility.yul\":549:550   */\n      0x01\n        /* \"#utility.yul\":546:547   */\n      dup2\n        /* \"#utility.yul\":542:551   */\n      add\n        /* \"#utility.yul\":537:551   */\n      swap1\n      pop\n        /* \"#utility.yul\":502:740   */\n      jump(tag_292)\n    tag_294:\n        /* \"#utility.yul\":506:520   */\n      pop\n        /* \"#utility.yul\":126:746   */\n      pop\n      pop\n        /* \"#utility.yul\":24:746   */\n      swap4\n      swap3\n      pop\n      pop\n      pop\n      jump\t// out\n        /* \"#utility.yul\":769:1491   */\n    tag_297:\n        /* \"#utility.yul\":865:870   */\n      0x00\n        /* \"#utility.yul\":890:971   */\n      tag_299\n        /* \"#utility.yul\":906:970   */\n      tag_300\n        /* \"#utility.yul\":963:969   */\n      dup5\n        /* \"#utility.yul\":906:970   */\n      tag_301\n      jump\t// in\n    tag_300:\n        /* \"#utility.yul\":890:971   */\n      tag_288\n      jump\t// in\n    tag_299:\n        /* \"#utility.yul\":881:971   */\n      swap1\n      pop\n        /* \"#utility.yul\":991:996   */\n      dup1\n        /* \"#utility.yul\":1020:1026   */\n      dup4\n        /* \"#utility.yul\":1013:1018   */\n      dup3\n        /* \"#utility.yul\":1006:1027   */\n      mstore\n        /* \"#utility.yul\":1054:1058   */\n      0x20\n        /* \"#utility.yul\":1047:1052   */\n      dup3\n        /* \"#utility.yul\":1043:1059   */\n      add\n        /* \"#utility.yul\":1036:1059   */\n      swap1\n      pop\n        /* \"#utility.yul\":1080:1086   */\n      dup3\n        /* \"#utility.yul\":1130:1133   */\n      dup6\n        /* \"#utility.yul\":1122:1126   */\n      0x20\n        /* \"#utility.yul\":1114:1120   */\n      dup7\n        /* \"#utility.yul\":1110:1127   */\n      mul\n        /* \"#utility.yul\":1105:1108   */\n      dup3\n        /* \"#utility.yul\":1101:1128   */\n      add\n        /* \"#utility.yul\":1098:1134   */\n      gt\n        /* \"#utility.yul\":1095:1238   */\n      iszero\n      tag_302\n      jumpi\n        /* \"#utility.yul\":1149:1228   */\n      tag_303\n      tag_291\n      jump\t// in\n    tag_303:\n        /* \"#utility.yul\":1095:1238   */\n    tag_302:\n        /* \"#utility.yul\":1262:1263   */\n      0x00\n        /* \"#utility.yul\":1247:1485   */\n    tag_304:\n        /* \"#utility.yul\":1272:1278   */\n      dup6\n        /* \"#utility.yul\":1269:1270   */\n      dup2\n        /* \"#utility.yul\":1266:1279   */\n      lt\n        /* \"#utility.yul\":1247:1485   */\n      iszero\n      tag_306\n      jumpi\n        /* \"#utility.yul\":1340:1343   */\n      dup2\n        /* \"#utility.yul\":1369:1406   */\n      tag_307\n        /* \"#utility.yul\":1402:1405   */\n      dup9\n        /* \"#utility.yul\":1390:1400   */\n      dup3\n        /* \"#utility.yul\":1369:1406   */\n      tag_308\n      jump\t// in\n    tag_307:\n        /* \"#utility.yul\":1364:1367   */\n      dup5\n        /* \"#utility.yul\":1357:1407   */\n      mstore\n        /* \"#utility.yul\":1436:1440   */\n      0x20\n        /* \"#utility.yul\":1431:1434   */\n      dup5\n        /* \"#utility.yul\":1427:1441   */\n      add\n        /* \"#utility.yul\":1420:1441   */\n      swap4\n      pop\n        /* \"#utility.yul\":1470:1474   */\n      0x20\n        /* \"#utility.yul\":1465:1468   */\n      dup4\n        /* \"#utility.yul\":1461:1475   */\n      add\n        /* \"#utility.yul\":1454:1475   */\n      swap3\n      pop\n        /* \"#utility.yul\":1307:1485   */\n      pop\n        /* \"#utility.yul\":1294:1295   */\n      0x01\n        /* \"#utility.yul\":1291:1292   */\n      dup2\n        /* \"#utility.yul\":1287:1296   */\n      add\n        /* \"#utility.yul\":1282:1296   */\n      swap1\n      pop\n        /* \"#utility.yul\":1247:1485   */\n      jump(tag_304)\n    tag_306:\n        /* \"#utility.yul\":1251:1265   */\n      pop\n        /* \"#utility.yul\":871:1491   */\n      pop\n      pop\n        /* \"#utility.yul\":769:1491   */\n      swap4\n      swap3\n      pop\n      pop\n      pop\n      jump\t// out\n        /* \"#utility.yul\":1497:1636   */\n    tag_296:\n        /* \"#utility.yul\":1543:1548   */\n      0x00\n        /* \"#utility.yul\":1581:1587   */\n      dup2\n        /* \"#utility.yul\":1568:1588   */\n      calldataload\n        /* \"#utility.yul\":1559:1588   */\n      swap1\n      pop\n        /* \"#utility.yul\":1597:1630   */\n      tag_310\n        /* \"#utility.yul\":1624:1629   */\n      dup2\n        /* \"#utility.yul\":1597:1630   */\n      tag_311\n      jump\t// in\n    tag_310:\n        /* \"#utility.yul\":1497:1636   */\n      swap3\n      swap2\n      pop\n      pop\n      jump\t// out\n        /* \"#utility.yul\":1659:2029   */\n    tag_312:\n        /* \"#utility.yul\":1730:1735   */\n      0x00\n        /* \"#utility.yul\":1779:1782   */\n      dup3\n        /* \"#utility.yul\":1772:1776   */\n      0x1f\n        /* \"#utility.yul\":1764:1770   */\n      dup4\n        /* \"#utility.yul\":1760:1777   */\n      add\n        /* \"#utility.yul\":1756:1783   */\n      slt\n        /* \"#utility.yul\":1746:1868   */\n      tag_314\n      jumpi\n        /* \"#utility.yul\":1787:1866   */\n      tag_315\n      tag_316\n      jump\t// in\n    tag_315:\n        /* \"#utility.yul\":1746:1868   */\n    tag_314:\n        /* \"#utility.yul\":1904:1910   */\n      dup2\n        /* \"#utility.yul\":1891:1911   */\n      calldataload\n        /* \"#utility.yul\":1929:2023   */\n      tag_317\n        /* \"#utility.yul\":2019:2022   */\n      dup5\n        /* \"#utility.yul\":2011:2017   */\n      dup3\n        /* \"#utility.yul\":2004:2008   */\n      0x20\n        /* \"#utility.yul\":1996:2002   */\n      dup7\n        /* \"#utility.yul\":1992:2009   */\n      add\n        /* \"#utility.yul\":1929:2023   */\n      tag_283\n      jump\t// in\n    tag_317:\n        /* \"#utility.yul\":1920:2023   */\n      swap2\n      pop\n        /* \"#utility.yul\":1736:2029   */\n      pop\n        /* \"#utility.yul\":1659:2029   */\n      swap3\n      swap2\n      pop\n      pop\n      jump\t// out\n        /* \"#utility.yul\":2052:2422   */\n    tag_318:\n        /* \"#utility.yul\":2123:2128   */\n      0x00\n        /* \"#utility.yul\":2172:2175   */\n      dup3\n        /* \"#utility.yul\":2165:2169   */\n      0x1f\n        /* \"#utility.yul\":2157:2163   */\n      dup4\n        /* \"#utility.yul\":2153:2170   */\n      add\n        /* \"#utility.yul\":2149:2176   */\n      slt\n        /* \"#utility.yul\":2139:2261   */\n      tag_320\n      jumpi\n        /* \"#utility.yul\":2180:2259   */\n      tag_321\n      tag_316\n      jump\t// in\n    tag_321:\n        /* \"#utility.yul\":2139:2261   */\n    tag_320:\n        /* \"#utility.yul\":2297:2303   */\n      dup2\n        /* \"#utility.yul\":2284:2304   */\n      calldataload\n        /* \"#utility.yul\":2322:2416   */\n      tag_322\n        /* \"#utility.yul\":2412:2415   */\n      dup5\n        /* \"#utility.yul\":2404:2410   */\n      dup3\n        /* \"#utility.yul\":2397:2401   */\n      0x20\n        /* \"#utility.yul\":2389:2395   */\n      dup7\n        /* \"#utility.yul\":2385:2402   */\n      add\n        /* \"#utility.yul\":2322:2416   */\n      tag_297\n      jump\t// in\n    tag_322:\n        /* \"#utility.yul\":2313:2416   */\n      swap2\n      pop\n        /* \"#utility.yul\":2129:2422   */\n      pop\n        /* \"#utility.yul\":2052:2422   */\n      swap3\n      swap2\n      pop\n      pop\n      jump\t// out\n        /* \"#utility.yul\":2428:2567   */\n    tag_308:\n        /* \"#utility.yul\":2474:2479   */\n      0x00\n        /* \"#utility.yul\":2512:2518   */\n      dup2\n        /* \"#utility.yul\":2499:2519   */\n      calldataload\n        /* \"#utility.yul\":2490:2519   */\n      swap1\n      pop\n        /* \"#utility.yul\":2528:2561   */\n      tag_324\n        /* \"#utility.yul\":2555:2560   */\n      dup2\n        /* \"#utility.yul\":2528:2561   */\n      tag_325\n      jump\t// in\n    tag_324:\n        /* \"#utility.yul\":2428:2567   */\n      swap3\n      swap2\n      pop\n      pop\n      jump\t// out\n        /* \"#utility.yul\":2573:2902   */\n    tag_64:\n        /* \"#utility.yul\":2632:2638   */\n      0x00\n        /* \"#utility.yul\":2681:2683   */\n      0x20\n        /* \"#utility.yul\":2669:2678   */\n      dup3\n        /* \"#utility.yul\":2660:2667   */\n      dup5\n        /* \"#utility.yul\":2656:2679   */\n      sub\n        /* \"#utility.yul\":2652:2684   */\n      slt\n        /* \"#utility.yul\":2649:2768   */\n      iszero\n      tag_327\n      jumpi\n        /* \"#utility.yul\":2687:2766   */\n      tag_328\n      tag_329\n      jump\t// in\n    tag_328:\n        /* \"#utility.yul\":2649:2768   */\n    tag_327:\n        /* \"#utility.yul\":2807:2808   */\n      0x00\n        /* \"#utility.yul\":2832:2885   */\n      tag_330\n        /* \"#utility.yul\":2877:2884   */\n      dup5\n        /* \"#utility.yul\":2868:2874   */\n      dup3\n        /* \"#utility.yul\":2857:2866   */\n      dup6\n        /* \"#utility.yul\":2853:2875   */\n      add\n        /* \"#utility.yul\":2832:2885   */\n      tag_296\n      jump\t// in\n    tag_330:\n        /* \"#utility.yul\":2822:2885   */\n      swap2\n      pop\n        /* \"#utility.yul\":2778:2895   */\n      pop\n        /* \"#utility.yul\":2573:2902   */\n      swap3\n      swap2\n      pop\n      pop\n      jump\t// out\n        /* \"#utility.yul\":2908:3382   */\n    tag_96:\n        /* \"#utility.yul\":2976:2982   */\n      0x00\n        /* \"#utility.yul\":2984:2990   */\n      dup1\n        /* \"#utility.yul\":3033:3035   */\n      0x40\n        /* \"#utility.yul\":3021:3030   */\n      dup4\n        /* \"#utility.yul\":3012:3019   */\n      dup6\n        /* \"#utility.yul\":3008:3031   */\n      sub\n        /* \"#utility.yul\":3004:3036   */\n      slt\n        /* \"#utility.yul\":3001:3120   */\n      iszero\n      tag_332\n      jumpi\n        /* \"#utility.yul\":3039:3118   */\n      tag_333\n      tag_329\n      jump\t// in\n    tag_333:\n        /* \"#utility.yul\":3001:3120   */\n    tag_332:\n        /* \"#utility.yul\":3159:3160   */\n      0x00\n        /* \"#utility.yul\":3184:3237   */\n      tag_334\n        /* \"#utility.yul\":3229:3236   */\n      dup6\n        /* \"#utility.yul\":3220:3226   */\n      dup3\n        /* \"#utility.yul\":3209:3218   */\n      dup7\n        /* \"#utility.yul\":3205:3227   */\n      add\n        /* \"#utility.yul\":3184:3237   */\n      tag_296\n      jump\t// in\n    tag_334:\n        /* \"#utility.yul\":3174:3237   */\n      swap3\n      pop\n        /* \"#utility.yul\":3130:3247   */\n      pop\n        /* \"#utility.yul\":3286:3288   */\n      0x20\n        /* \"#utility.yul\":3312:3365   */\n      tag_335\n        /* \"#utility.yul\":3357:3364   */\n      dup6\n        /* \"#utility.yul\":3348:3354   */\n      dup3\n        /* \"#utility.yul\":3337:3346   */\n      dup7\n        /* \"#utility.yul\":3333:3355   */\n      add\n        /* \"#utility.yul\":3312:3365   */\n      tag_296\n      jump\t// in\n    tag_335:\n        /* \"#utility.yul\":3302:3365   */\n      swap2\n      pop\n        /* \"#utility.yul\":3257:3375   */\n      pop\n        /* \"#utility.yul\":2908:3382   */\n      swap3\n      pop\n      swap3\n      swap1\n      pop\n      jump\t// out\n        /* \"#utility.yul\":3388:4007   */\n    tag_42:\n        /* \"#utility.yul\":3465:3471   */\n      0x00\n        /* \"#utility.yul\":3473:3479   */\n      dup1\n        /* \"#utility.yul\":3481:3487   */\n      0x00\n        /* \"#utility.yul\":3530:3532   */\n      0x60\n        /* \"#utility.yul\":3518:3527   */\n      dup5\n        /* \"#utility.yul\":3509:3516   */\n      dup7\n        /* \"#utility.yul\":3505:3528   */\n      sub\n        /* \"#utility.yul\":3501:3533   */\n      slt\n        /* \"#utility.yul\":3498:3617   */\n      iszero\n      tag_337\n      jumpi\n        /* \"#utility.yul\":3536:3615   */\n      tag_338\n      tag_329\n      jump\t// in\n    tag_338:\n        /* \"#utility.yul\":3498:3617   */\n    tag_337:\n        /* \"#utility.yul\":3656:3657   */\n      0x00\n        /* \"#utility.yul\":3681:3734   */\n      tag_339\n        /* \"#utility.yul\":3726:3733   */\n      dup7\n        /* \"#utility.yul\":3717:3723   */\n      dup3\n        /* \"#utility.yul\":3706:3715   */\n      dup8\n        /* \"#utility.yul\":3702:3724   */\n      add\n        /* \"#utility.yul\":3681:3734   */\n      tag_296\n      jump\t// in\n    tag_339:\n        /* \"#utility.yul\":3671:3734   */\n      swap4\n      pop\n        /* \"#utility.yul\":3627:3744   */\n      pop\n        /* \"#utility.yul\":3783:3785   */\n      0x20\n        /* \"#utility.yul\":3809:3862   */\n      tag_340\n        /* \"#utility.yul\":3854:3861   */\n      dup7\n        /* \"#utility.yul\":3845:3851   */\n      dup3\n        /* \"#utility.yul\":3834:3843   */\n      dup8\n        /* \"#utility.yul\":3830:3852   */\n      add\n        /* \"#utility.yul\":3809:3862   */\n      tag_296\n      jump\t// in\n    tag_340:\n        /* \"#utility.yul\":3799:3862   */\n      swap3\n      pop\n        /* \"#utility.yul\":3754:3872   */\n      pop\n        /* \"#utility.yul\":3911:3913   */\n      0x40\n        /* \"#utility.yul\":3937:3990   */\n      tag_341\n        /* \"#utility.yul\":3982:3989   */\n      dup7\n        /* \"#utility.yul\":3973:3979   */\n      dup3\n        /* \"#utility.yul\":3962:3971   */\n      dup8\n        /* \"#utility.yul\":3958:3980   */\n      add\n        /* \"#utility.yul\":3937:3990   */\n      tag_308\n      jump\t// in\n    tag_341:\n        /* \"#utility.yul\":3927:3990   */\n      swap2\n      pop\n        /* \"#utility.yul\":3882:4000   */\n      pop\n        /* \"#utility.yul\":3388:4007   */\n      swap3\n      pop\n      swap3\n      pop\n      swap3\n      jump\t// out\n        /* \"#utility.yul\":4013:4487   */\n    tag_32:\n        /* \"#utility.yul\":4081:4087   */\n      0x00\n        /* \"#utility.yul\":4089:4095   */\n      dup1\n        /* \"#utility.yul\":4138:4140   */\n      0x40\n        /* \"#utility.yul\":4126:4135   */\n      dup4\n        /* \"#utility.yul\":4117:4124   */\n      dup6\n        /* \"#utility.yul\":4113:4136   */\n      sub\n        /* \"#utility.yul\":4109:4141   */\n      slt\n        /* \"#utility.yul\":4106:4225   */\n      iszero\n      tag_343\n      jumpi\n        /* \"#utility.yul\":4144:4223   */\n      tag_344\n      tag_329\n      jump\t// in\n    tag_344:\n        /* \"#utility.yul\":4106:4225   */\n    tag_343:\n        /* \"#utility.yul\":4264:4265   */\n      0x00\n        /* \"#utility.yul\":4289:4342   */\n      tag_345\n        /* \"#utility.yul\":4334:4341   */\n      dup6\n        /* \"#utility.yul\":4325:4331   */\n      dup3\n        /* \"#utility.yul\":4314:4323   */\n      dup7\n        /* \"#utility.yul\":4310:4332   */\n      add\n        /* \"#utility.yul\":4289:4342   */\n      tag_296\n      jump\t// in\n    tag_345:\n        /* \"#utility.yul\":4279:4342   */\n      swap3\n      pop\n        /* \"#utility.yul\":4235:4352   */\n      pop\n        /* \"#utility.yul\":4391:4393   */\n      0x20\n        /* \"#utility.yul\":4417:4470   */\n      tag_346\n        /* \"#utility.yul\":4462:4469   */\n      dup6\n        /* \"#utility.yul\":4453:4459   */\n      dup3\n        /* \"#utility.yul\":4442:4451   */\n      dup7\n        /* \"#utility.yul\":4438:4460   */\n      add\n        /* \"#utility.yul\":4417:4470   */\n      tag_308\n      jump\t// in\n    tag_346:\n        /* \"#utility.yul\":4407:4470   */\n      swap2\n      pop\n        /* \"#utility.yul\":4362:4480   */\n      pop\n        /* \"#utility.yul\":4013:4487   */\n      swap3\n      pop\n      swap3\n      swap1\n      pop\n      jump\t// out\n        /* \"#utility.yul\":4493:5387   */\n    tag_91:\n        /* \"#utility.yul\":4611:4617   */\n      0x00\n        /* \"#utility.yul\":4619:4625   */\n      dup1\n        /* \"#utility.yul\":4668:4670   */\n      0x40\n        /* \"#utility.yul\":4656:4665   */\n      dup4\n        /* \"#utility.yul\":4647:4654   */\n      dup6\n        /* \"#utility.yul\":4643:4666   */\n      sub\n        /* \"#utility.yul\":4639:4671   */\n      slt\n        /* \"#utility.yul\":4636:4755   */\n      iszero\n      tag_348\n      jumpi\n        /* \"#utility.yul\":4674:4753   */\n      tag_349\n      tag_329\n      jump\t// in\n    tag_349:\n        /* \"#utility.yul\":4636:4755   */\n    tag_348:\n        /* \"#utility.yul\":4822:4823   */\n      0x00\n        /* \"#utility.yul\":4811:4820   */\n      dup4\n        /* \"#utility.yul\":4807:4824   */\n      add\n        /* \"#utility.yul\":4794:4825   */\n      calldataload\n        /* \"#utility.yul\":4852:4870   */\n      0xffffffffffffffff\n        /* \"#utility.yul\":4844:4850   */\n      dup2\n        /* \"#utility.yul\":4841:4871   */\n      gt\n        /* \"#utility.yul\":4838:4955   */\n      iszero\n      tag_350\n      jumpi\n        /* \"#utility.yul\":4874:4953   */\n      tag_351\n      tag_352\n      jump\t// in\n    tag_351:\n        /* \"#utility.yul\":4838:4955   */\n    tag_350:\n        /* \"#utility.yul\":4979:5057   */\n      tag_353\n        /* \"#utility.yul\":5049:5056   */\n      dup6\n        /* \"#utility.yul\":5040:5046   */\n      dup3\n        /* \"#utility.yul\":5029:5038   */\n      dup7\n        /* \"#utility.yul\":5025:5047   */\n      add\n        /* \"#utility.yul\":4979:5057   */\n      tag_312\n      jump\t// in\n    tag_353:\n        /* \"#utility.yul\":4969:5057   */\n      swap3\n      pop\n        /* \"#utility.yul\":4765:5067   */\n      pop\n        /* \"#utility.yul\":5134:5136   */\n      0x20\n        /* \"#utility.yul\":5123:5132   */\n      dup4\n        /* \"#utility.yul\":5119:5137   */\n      add\n        /* \"#utility.yul\":5106:5138   */\n      calldataload\n        /* \"#utility.yul\":5165:5183   */\n      0xffffffffffffffff\n        /* \"#utility.yul\":5157:5163   */\n      dup2\n        /* \"#utility.yul\":5154:5184   */\n      gt\n        /* \"#utility.yul\":5151:5268   */\n      iszero\n      tag_354\n      jumpi\n        /* \"#utility.yul\":5187:5266   */\n      tag_355\n      tag_352\n      jump\t// in\n    tag_355:\n        /* \"#utility.yul\":5151:5268   */\n    tag_354:\n        /* \"#utility.yul\":5292:5370   */\n      tag_356\n        /* \"#utility.yul\":5362:5369   */\n      dup6\n        /* \"#utility.yul\":5353:5359   */\n      dup3\n        /* \"#utility.yul\":5342:5351   */\n      dup7\n        /* \"#utility.yul\":5338:5360   */\n      add\n        /* \"#utility.yul\":5292:5370   */\n      tag_318\n      jump\t// in\n    tag_356:\n        /* \"#utility.yul\":5282:5370   */\n      swap2\n      pop\n        /* \"#utility.yul\":5077:5380   */\n      pop\n        /* \"#utility.yul\":4493:5387   */\n      swap3\n      pop\n      swap3\n      swap1\n      pop\n      jump\t// out\n        /* \"#utility.yul\":5393:5722   */\n    tag_57:\n        /* \"#utility.yul\":5452:5458   */\n      0x00\n        /* \"#utility.yul\":5501:5503   */\n      0x20\n        /* \"#utility.yul\":5489:5498   */\n      dup3\n        /* \"#utility.yul\":5480:5487   */\n      dup5\n        /* \"#utility.yul\":5476:5499   */\n      sub\n        /* \"#utility.yul\":5472:5504   */\n      slt\n        /* \"#utility.yul\":5469:5588   */\n      iszero\n      tag_358\n      jumpi\n        /* \"#utility.yul\":5507:5586   */\n      tag_359\n      tag_329\n      jump\t// in\n    tag_359:\n        /* \"#utility.yul\":5469:5588   */\n    tag_358:\n        /* \"#utility.yul\":5627:5628   */\n      0x00\n        /* \"#utility.yul\":5652:5705   */\n      tag_360\n        /* \"#utility.yul\":5697:5704   */\n      dup5\n        /* \"#utility.yul\":5688:5694   */\n      dup3\n        /* \"#utility.yul\":5677:5686   */\n      dup6\n        /* \"#utility.yul\":5673:5695   */\n      add\n        /* \"#utility.yul\":5652:5705   */\n      tag_308\n      jump\t// in\n    tag_360:\n        /* \"#utility.yul\":5642:5705   */\n      swap2\n      pop\n        /* \"#utility.yul\":5598:5715   */\n      pop\n        /* \"#utility.yul\":5393:5722   */\n      swap3\n      swap2\n      pop\n      pop\n      jump\t// out\n        /* \"#utility.yul\":5728:5846   */\n    tag_361:\n        /* \"#utility.yul\":5815:5839   */\n      tag_363\n        /* \"#utility.yul\":5833:5838   */\n      dup2\n        /* \"#utility.yul\":5815:5839   */\n      tag_364\n      jump\t// in\n    tag_363:\n        /* \"#utility.yul\":5810:5813   */\n      dup3\n        /* \"#utility.yul\":5803:5840   */\n      mstore\n        /* \"#utility.yul\":5728:5846   */\n      pop\n      pop\n      jump\t// out\n        /* \"#utility.yul\":5852:5961   */\n    tag_365:\n        /* \"#utility.yul\":5933:5954   */\n      tag_367\n        /* \"#utility.yul\":5948:5953   */\n      dup2\n        /* \"#utility.yul\":5933:5954   */\n      tag_368\n      jump\t// in\n    tag_367:\n        /* \"#utility.yul\":5928:5931   */\n      dup3\n        /* \"#utility.yul\":5921:5955   */\n      mstore\n        /* \"#utility.yul\":5852:5961   */\n      pop\n      pop\n      jump\t// out\n        /* \"#utility.yul\":5967:6331   */\n    tag_369:\n        /* \"#utility.yul\":6055:6058   */\n      0x00\n        /* \"#utility.yul\":6083:6122   */\n      tag_371\n        /* \"#utility.yul\":6116:6121   */\n      dup3\n        /* \"#utility.yul\":6083:6122   */\n      tag_372\n      jump\t// in\n    tag_371:\n        /* \"#utility.yul\":6138:6209   */\n      tag_373\n        /* \"#utility.yul\":6202:6208   */\n      dup2\n        /* \"#utility.yul\":6197:6200   */\n      dup6\n        /* \"#utility.yul\":6138:6209   */\n      tag_374\n      jump\t// in\n    tag_373:\n        /* \"#utility.yul\":6131:6209   */\n      swap4\n      pop\n        /* \"#utility.yul\":6218:6270   */\n      tag_375\n        /* \"#utility.yul\":6263:6269   */\n      dup2\n        /* \"#utility.yul\":6258:6261   */\n      dup6\n        /* \"#utility.yul\":6251:6255   */\n      0x20\n        /* \"#utility.yul\":6244:6249   */\n      dup7\n        /* \"#utility.yul\":6240:6256   */\n      add\n        /* \"#utility.yul\":6218:6270   */\n      tag_376\n      jump\t// in\n    tag_375:\n        /* \"#utility.yul\":6295:6324   */\n      tag_377\n        /* \"#utility.yul\":6317:6323   */\n      dup2\n        /* \"#utility.yul\":6295:6324   */\n      tag_378\n      jump\t// in\n    tag_377:\n        /* \"#utility.yul\":6290:6293   */\n      dup5\n        /* \"#utility.yul\":6286:6325   */\n      add\n        /* \"#utility.yul\":6279:6325   */\n      swap2\n      pop\n        /* \"#utility.yul\":6059:6331   */\n      pop\n        /* \"#utility.yul\":5967:6331   */\n      swap3\n      swap2\n      pop\n      pop\n      jump\t// out\n        /* \"#utility.yul\":6337:6703   */\n    tag_379:\n        /* \"#utility.yul\":6479:6482   */\n      0x00\n        /* \"#utility.yul\":6500:6567   */\n      tag_381\n        /* \"#utility.yul\":6564:6566   */\n      0x23\n        /* \"#utility.yul\":6559:6562   */\n      dup4\n        /* \"#utility.yul\":6500:6567   */\n      tag_374\n      jump\t// in\n    tag_381:\n        /* \"#utility.yul\":6493:6567   */\n      swap2\n      pop\n        /* \"#utility.yul\":6576:6669   */\n      tag_382\n        /* \"#utility.yul\":6665:6668   */\n      dup3\n        /* \"#utility.yul\":6576:6669   */\n      tag_383\n      jump\t// in\n    tag_382:\n        /* \"#utility.yul\":6694:6696   */\n      0x40\n        /* \"#utility.yul\":6689:6692   */\n      dup3\n        /* \"#utility.yul\":6685:6697   */\n      add\n        /* \"#utility.yul\":6678:6697   */\n      swap1\n      pop\n        /* \"#utility.yul\":6337:6703   */\n      swap2\n      swap1\n      pop\n      jump\t// out\n        /* \"#utility.yul\":6709:7075   */\n    tag_384:\n        /* \"#utility.yul\":6851:6854   */\n      0x00\n        /* \"#utility.yul\":6872:6939   */\n      tag_386\n        /* \"#utility.yul\":6936:6938   */\n      0x14\n        /* \"#utility.yul\":6931:6934   */\n      dup4\n        /* \"#utility.yul\":6872:6939   */\n      tag_374\n      jump\t// in\n    tag_386:\n        /* \"#utility.yul\":6865:6939   */\n      swap2\n      pop\n        /* \"#utility.yul\":6948:7041   */\n      tag_387\n        /* \"#utility.yul\":7037:7040   */\n      dup3\n        /* \"#utility.yul\":6948:7041   */\n      tag_388\n      jump\t// in\n    tag_387:\n        /* \"#utility.yul\":7066:7068   */\n      0x20\n        /* \"#utility.yul\":7061:7064   */\n      dup3\n        /* \"#utility.yul\":7057:7069   */\n      add\n        /* \"#utility.yul\":7050:7069   */\n      swap1\n      pop\n        /* \"#utility.yul\":6709:7075   */\n      swap2\n      swap1\n      pop\n      jump\t// out\n        /* \"#utility.yul\":7081:7447   */\n    tag_389:\n        /* \"#utility.yul\":7223:7226   */\n      0x00\n        /* \"#utility.yul\":7244:7311   */\n      tag_391\n        /* \"#utility.yul\":7308:7310   */\n      0x22\n        /* \"#utility.yul\":7303:7306   */\n      dup4\n        /* \"#utility.yul\":7244:7311   */\n      tag_374\n      jump\t// in\n    tag_391:\n        /* \"#utility.yul\":7237:7311   */\n      swap2\n      pop\n        /* \"#utility.yul\":7320:7413   */\n      tag_392\n        /* \"#utility.yul\":7409:7412   */\n      dup3\n        /* \"#utility.yul\":7320:7413   */\n      tag_393\n      jump\t// in\n    tag_392:\n        /* \"#utility.yul\":7438:7440   */\n      0x40\n        /* \"#utility.yul\":7433:7436   */\n      dup3\n        /* \"#utility.yul\":7429:7441   */\n      add\n        /* \"#utility.yul\":7422:7441   */\n      swap1\n      pop\n        /* \"#utility.yul\":7081:7447   */\n      swap2\n      swap1\n      pop\n      jump\t// out\n        /* \"#utility.yul\":7453:7819   */\n    tag_394:\n        /* \"#utility.yul\":7595:7598   */\n      0x00\n        /* \"#utility.yul\":7616:7683   */\n      tag_396\n        /* \"#utility.yul\":7680:7682   */\n      0x26\n        /* \"#utility.yul\":7675:7678   */\n      dup4\n        /* \"#utility.yul\":7616:7683   */\n      tag_374\n      jump\t// in\n    tag_396:\n        /* \"#utility.yul\":7609:7683   */\n      swap2\n      pop\n        /* \"#utility.yul\":7692:7785   */\n      tag_397\n        /* \"#utility.yul\":7781:7784   */\n      dup3\n        /* \"#utility.yul\":7692:7785   */\n      tag_398\n      jump\t// in\n    tag_397:\n        /* \"#utility.yul\":7810:7812   */\n      0x40\n        /* \"#utility.yul\":7805:7808   */\n      dup3\n        /* \"#utility.yul\":7801:7813   */\n      add\n        /* \"#utility.yul\":7794:7813   */\n      swap1\n      pop\n        /* \"#utility.yul\":7453:7819   */\n      swap2\n      swap1\n      pop\n      jump\t// out\n        /* \"#utility.yul\":7825:8191   */\n    tag_399:\n        /* \"#utility.yul\":7967:7970   */\n      0x00\n        /* \"#utility.yul\":7988:8055   */\n      tag_401\n        /* \"#utility.yul\":8052:8054   */\n      0x22\n        /* \"#utility.yul\":8047:8050   */\n      dup4\n        /* \"#utility.yul\":7988:8055   */\n      tag_374\n      jump\t// in\n    tag_401:\n        /* \"#utility.yul\":7981:8055   */\n      swap2\n      pop\n        /* \"#utility.yul\":8064:8157   */\n      tag_402\n        /* \"#utility.yul\":8153:8156   */\n      dup3\n        /* \"#utility.yul\":8064:8157   */\n      tag_403\n      jump\t// in\n    tag_402:\n        /* \"#utility.yul\":8182:8184   */\n      0x40\n        /* \"#utility.yul\":8177:8180   */\n      dup3\n        /* \"#utility.yul\":8173:8185   */\n      add\n        /* \"#utility.yul\":8166:8185   */\n      swap1\n      pop\n        /* \"#utility.yul\":7825:8191   */\n      swap2\n      swap1\n      pop\n      jump\t// out\n        /* \"#utility.yul\":8197:8563   */\n    tag_404:\n        /* \"#utility.yul\":8339:8342   */\n      0x00\n        /* \"#utility.yul\":8360:8427   */\n      tag_406\n        /* \"#utility.yul\":8424:8426   */\n      0x26\n        /* \"#utility.yul\":8419:8422   */\n      dup4\n        /* \"#utility.yul\":8360:8427   */\n      tag_374\n      jump\t// in\n    tag_406:\n        /* \"#utility.yul\":8353:8427   */\n      swap2\n      pop\n        /* \"#utility.yul\":8436:8529   */\n      tag_407\n        /* \"#utility.yul\":8525:8528   */\n      dup3\n        /* \"#utility.yul\":8436:8529   */\n      tag_408\n      jump\t// in\n    tag_407:\n        /* \"#utility.yul\":8554:8556   */\n      0x40\n        /* \"#utility.yul\":8549:8552   */\n      dup3\n        /* \"#utility.yul\":8545:8557   */\n      add\n        /* \"#utility.yul\":8538:8557   */\n      swap1\n      pop\n        /* \"#utility.yul\":8197:8563   */\n      swap2\n      swap1\n      pop\n      jump\t// out\n        /* \"#utility.yul\":8569:8935   */\n    tag_409:\n        /* \"#utility.yul\":8711:8714   */\n      0x00\n        /* \"#utility.yul\":8732:8799   */\n      tag_411\n        /* \"#utility.yul\":8796:8798   */\n      0x13\n        /* \"#utility.yul\":8791:8794   */\n      dup4\n        /* \"#utility.yul\":8732:8799   */\n      tag_374\n      jump\t// in\n    tag_411:\n        /* \"#utility.yul\":8725:8799   */\n      swap2\n      pop\n        /* \"#utility.yul\":8808:8901   */\n      tag_412\n        /* \"#utility.yul\":8897:8900   */\n      dup3\n        /* \"#utility.yul\":8808:8901   */\n      tag_413\n      jump\t// in\n    tag_412:\n        /* \"#utility.yul\":8926:8928   */\n      0x20\n        /* \"#utility.yul\":8921:8924   */\n      dup3\n        /* \"#utility.yul\":8917:8929   */\n      add\n        /* \"#utility.yul\":8910:8929   */\n      swap1\n      pop\n        /* \"#utility.yul\":8569:8935   */\n      swap2\n      swap1\n      pop\n      jump\t// out\n        /* \"#utility.yul\":8941:9307   */\n    tag_414:\n        /* \"#utility.yul\":9083:9086   */\n      0x00\n        /* \"#utility.yul\":9104:9171   */\n      tag_416\n        /* \"#utility.yul\":9168:9170   */\n      0x10\n        /* \"#utility.yul\":9163:9166   */\n      dup4\n        /* \"#utility.yul\":9104:9171   */\n      tag_374\n      jump\t// in\n    tag_416:\n        /* \"#utility.yul\":9097:9171   */\n      swap2\n      pop\n        /* \"#utility.yul\":9180:9273   */\n      tag_417\n        /* \"#utility.yul\":9269:9272   */\n      dup3\n        /* \"#utility.yul\":9180:9273   */\n      tag_418\n      jump\t// in\n    tag_417:\n        /* \"#utility.yul\":9298:9300   */\n      0x20\n        /* \"#utility.yul\":9293:9296   */\n      dup3\n        /* \"#utility.yul\":9289:9301   */\n      add\n        /* \"#utility.yul\":9282:9301   */\n      swap1\n      pop\n        /* \"#utility.yul\":8941:9307   */\n      swap2\n      swap1\n      pop\n      jump\t// out\n        /* \"#utility.yul\":9313:9679   */\n    tag_419:\n        /* \"#utility.yul\":9455:9458   */\n      0x00\n        /* \"#utility.yul\":9476:9543   */\n      tag_421\n        /* \"#utility.yul\":9540:9542   */\n      0x28\n        /* \"#utility.yul\":9535:9538   */\n      dup4\n        /* \"#utility.yul\":9476:9543   */\n      tag_374\n      jump\t// in\n    tag_421:\n        /* \"#utility.yul\":9469:9543   */\n      swap2\n      pop\n        /* \"#utility.yul\":9552:9645   */\n      tag_422\n        /* \"#utility.yul\":9641:9644   */\n      dup3\n        /* \"#utility.yul\":9552:9645   */\n      tag_423\n      jump\t// in\n    tag_422:\n        /* \"#utility.yul\":9670:9672   */\n      0x40\n        /* \"#utility.yul\":9665:9668   */\n      dup3\n        /* \"#utility.yul\":9661:9673   */\n      add\n        /* \"#utility.yul\":9654:9673   */\n      swap1\n      pop\n        /* \"#utility.yul\":9313:9679   */\n      swap2\n      swap1\n      pop\n      jump\t// out\n        /* \"#utility.yul\":9685:10051   */\n    tag_424:\n        /* \"#utility.yul\":9827:9830   */\n      0x00\n        /* \"#utility.yul\":9848:9915   */\n      tag_426\n        /* \"#utility.yul\":9912:9914   */\n      0x20\n        /* \"#utility.yul\":9907:9910   */\n      dup4\n        /* \"#utility.yul\":9848:9915   */\n      tag_374\n      jump\t// in\n    tag_426:\n        /* \"#utility.yul\":9841:9915   */\n      swap2\n      pop\n        /* \"#utility.yul\":9924:10017   */\n      tag_427\n        /* \"#utility.yul\":10013:10016   */\n      dup3\n        /* \"#utility.yul\":9924:10017   */\n      tag_428\n      jump\t// in\n    tag_427:\n        /* \"#utility.yul\":10042:10044   */\n      0x20\n        /* \"#utility.yul\":10037:10040   */\n      dup3\n        /* \"#utility.yul\":10033:10045   */\n      add\n        /* \"#utility.yul\":10026:10045   */\n      swap1\n      pop\n        /* \"#utility.yul\":9685:10051   */\n      swap2\n      swap1\n      pop\n      jump\t// out\n        /* \"#utility.yul\":10057:10423   */\n    tag_429:\n        /* \"#utility.yul\":10199:10202   */\n      0x00\n        /* \"#utility.yul\":10220:10287   */\n      tag_431\n        /* \"#utility.yul\":10284:10286   */\n      0x24\n        /* \"#utility.yul\":10279:10282   */\n      dup4\n        /* \"#utility.yul\":10220:10287   */\n      tag_374\n      jump\t// in\n    tag_431:\n        /* \"#utility.yul\":10213:10287   */\n      swap2\n      pop\n        /* \"#utility.yul\":10296:10389   */\n      tag_432\n        /* \"#utility.yul\":10385:10388   */\n      dup3\n        /* \"#utility.yul\":10296:10389   */\n      tag_433\n      jump\t// in\n    tag_432:\n        /* \"#utility.yul\":10414:10416   */\n      0x40\n        /* \"#utility.yul\":10409:10412   */\n      dup3\n        /* \"#utility.yul\":10405:10417   */\n      add\n        /* \"#utility.yul\":10398:10417   */\n      swap1\n      pop\n        /* \"#utility.yul\":10057:10423   */\n      swap2\n      swap1\n      pop\n      jump\t// out\n        /* \"#utility.yul\":10429:10795   */\n    tag_434:\n        /* \"#utility.yul\":10571:10574   */\n      0x00\n        /* \"#utility.yul\":10592:10659   */\n      tag_436\n        /* \"#utility.yul\":10656:10658   */\n      0x21\n        /* \"#utility.yul\":10651:10654   */\n      dup4\n        /* \"#utility.yul\":10592:10659   */\n      tag_374\n      jump\t// in\n    tag_436:\n        /* \"#utility.yul\":10585:10659   */\n      swap2\n      pop\n        /* \"#utility.yul\":10668:10761   */\n      tag_437\n        /* \"#utility.yul\":10757:10760   */\n      dup3\n        /* \"#utility.yul\":10668:10761   */\n      tag_438\n      jump\t// in\n    tag_437:\n        /* \"#utility.yul\":10786:10788   */\n      0x40\n        /* \"#utility.yul\":10781:10784   */\n      dup3\n        /* \"#utility.yul\":10777:10789   */\n      add\n        /* \"#utility.yul\":10770:10789   */\n      swap1\n      pop\n        /* \"#utility.yul\":10429:10795   */\n      swap2\n      swap1\n      pop\n      jump\t// out\n        /* \"#utility.yul\":10801:11167   */\n    tag_439:\n        /* \"#utility.yul\":10943:10946   */\n      0x00\n        /* \"#utility.yul\":10964:11031   */\n      tag_441\n        /* \"#utility.yul\":11028:11030   */\n      0x25\n        /* \"#utility.yul\":11023:11026   */\n      dup4\n        /* \"#utility.yul\":10964:11031   */\n      tag_374\n      jump\t// in\n    tag_441:\n        /* \"#utility.yul\":10957:11031   */\n      swap2\n      pop\n        /* \"#utility.yul\":11040:11133   */\n      tag_442\n        /* \"#utility.yul\":11129:11132   */\n      dup3\n        /* \"#utility.yul\":11040:11133   */\n      tag_443\n      jump\t// in\n    tag_442:\n        /* \"#utility.yul\":11158:11160   */\n      0x40\n        /* \"#utility.yul\":11153:11156   */\n      dup3\n        /* \"#utility.yul\":11149:11161   */\n      add\n        /* \"#utility.yul\":11142:11161   */\n      swap1\n      pop\n        /* \"#utility.yul\":10801:11167   */\n      swap2\n      swap1\n      pop\n      jump\t// out\n        /* \"#utility.yul\":11173:11539   */\n    tag_444:\n        /* \"#utility.yul\":11315:11318   */\n      0x00\n        /* \"#utility.yul\":11336:11403   */\n      tag_446\n        /* \"#utility.yul\":11400:11402   */\n      0x24\n        /* \"#utility.yul\":11395:11398   */\n      dup4\n        /* \"#utility.yul\":11336:11403   */\n      tag_374\n      jump\t// in\n    tag_446:\n        /* \"#utility.yul\":11329:11403   */\n      swap2\n      pop\n        /* \"#utility.yul\":11412:11505   */\n      tag_447\n        /* \"#utility.yul\":11501:11504   */\n      dup3\n        /* \"#utility.yul\":11412:11505   */\n      tag_448\n      jump\t// in\n    tag_447:\n        /* \"#utility.yul\":11530:11532   */\n      0x40\n        /* \"#utility.yul\":11525:11528   */\n      dup3\n        /* \"#utility.yul\":11521:11533   */\n      add\n        /* \"#utility.yul\":11514:11533   */\n      swap1\n      pop\n        /* \"#utility.yul\":11173:11539   */\n      swap2\n      swap1\n      pop\n      jump\t// out\n        /* \"#utility.yul\":11545:11911   */\n    tag_449:\n        /* \"#utility.yul\":11687:11690   */\n      0x00\n        /* \"#utility.yul\":11708:11775   */\n      tag_451\n        /* \"#utility.yul\":11772:11774   */\n      0x25\n        /* \"#utility.yul\":11767:11770   */\n      dup4\n        /* \"#utility.yul\":11708:11775   */\n      tag_374\n      jump\t// in\n    tag_451:\n        /* \"#utility.yul\":11701:11775   */\n      swap2\n      pop\n        /* \"#utility.yul\":11784:11877   */\n      tag_452\n        /* \"#utility.yul\":11873:11876   */\n      dup3\n        /* \"#utility.yul\":11784:11877   */\n      tag_453\n      jump\t// in\n    tag_452:\n        /* \"#utility.yul\":11902:11904   */\n      0x40\n        /* \"#utility.yul\":11897:11900   */\n      dup3\n        /* \"#utility.yul\":11893:11905   */\n      add\n        /* \"#utility.yul\":11886:11905   */\n      swap1\n      pop\n        /* \"#utility.yul\":11545:11911   */\n      swap2\n      swap1\n      pop\n      jump\t// out\n        /* \"#utility.yul\":11917:12035   */\n    tag_454:\n        /* \"#utility.yul\":12004:12028   */\n      tag_456\n        /* \"#utility.yul\":12022:12027   */\n      dup2\n        /* \"#utility.yul\":12004:12028   */\n      tag_457\n      jump\t// in\n    tag_456:\n        /* \"#utility.yul\":11999:12002   */\n      dup3\n        /* \"#utility.yul\":11992:12029   */\n      mstore\n        /* \"#utility.yul\":11917:12035   */\n      pop\n      pop\n      jump\t// out\n        /* \"#utility.yul\":12041:12153   */\n    tag_458:\n        /* \"#utility.yul\":12124:12146   */\n      tag_460\n        /* \"#utility.yul\":12140:12145   */\n      dup2\n        /* \"#utility.yul\":12124:12146   */\n      tag_461\n      jump\t// in\n    tag_460:\n        /* \"#utility.yul\":12119:12122   */\n      dup3\n        /* \"#utility.yul\":12112:12147   */\n      mstore\n        /* \"#utility.yul\":12041:12153   */\n      pop\n      pop\n      jump\t// out\n        /* \"#utility.yul\":12159:12381   */\n    tag_77:\n        /* \"#utility.yul\":12252:12256   */\n      0x00\n        /* \"#utility.yul\":12290:12292   */\n      0x20\n        /* \"#utility.yul\":12279:12288   */\n      dup3\n        /* \"#utility.yul\":12275:12293   */\n      add\n        /* \"#utility.yul\":12267:12293   */\n      swap1\n      pop\n        /* \"#utility.yul\":12303:12374   */\n      tag_463\n        /* \"#utility.yul\":12371:12372   */\n      0x00\n        /* \"#utility.yul\":12360:12369   */\n      dup4\n        /* \"#utility.yul\":12356:12373   */\n      add\n        /* \"#utility.yul\":12347:12353   */\n      dup5\n        /* \"#utility.yul\":12303:12374   */\n      tag_361\n      jump\t// in\n    tag_463:\n        /* \"#utility.yul\":12159:12381   */\n      swap3\n      swap2\n      pop\n      pop\n      jump\t// out\n        /* \"#utility.yul\":12387:12597   */\n    tag_35:\n        /* \"#utility.yul\":12474:12478   */\n      0x00\n        /* \"#utility.yul\":12512:12514   */\n      0x20\n        /* \"#utility.yul\":12501:12510   */\n      dup3\n        /* \"#utility.yul\":12497:12515   */\n      add\n        /* \"#utility.yul\":12489:12515   */\n      swap1\n      pop\n        /* \"#utility.yul\":12525:12590   */\n      tag_465\n        /* \"#utility.yul\":12587:12588   */\n      0x00\n        /* \"#utility.yul\":12576:12585   */\n      dup4\n        /* \"#utility.yul\":12572:12589   */\n      add\n        /* \"#utility.yul\":12563:12569   */\n      dup5\n        /* \"#utility.yul\":12525:12590   */\n      tag_365\n      jump\t// in\n    tag_465:\n        /* \"#utility.yul\":12387:12597   */\n      swap3\n      swap2\n      pop\n      pop\n      jump\t// out\n        /* \"#utility.yul\":12603:12916   */\n    tag_29:\n        /* \"#utility.yul\":12716:12720   */\n      0x00\n        /* \"#utility.yul\":12754:12756   */\n      0x20\n        /* \"#utility.yul\":12743:12752   */\n      dup3\n        /* \"#utility.yul\":12739:12757   */\n      add\n        /* \"#utility.yul\":12731:12757   */\n      swap1\n      pop\n        /* \"#utility.yul\":12803:12812   */\n      dup2\n        /* \"#utility.yul\":12797:12801   */\n      dup2\n        /* \"#utility.yul\":12793:12813   */\n      sub\n        /* \"#utility.yul\":12789:12790   */\n      0x00\n        /* \"#utility.yul\":12778:12787   */\n      dup4\n        /* \"#utility.yul\":12774:12791   */\n      add\n        /* \"#utility.yul\":12767:12814   */\n      mstore\n        /* \"#utility.yul\":12831:12909   */\n      tag_467\n        /* \"#utility.yul\":12904:12908   */\n      dup2\n        /* \"#utility.yul\":12895:12901   */\n      dup5\n        /* \"#utility.yul\":12831:12909   */\n      tag_369\n      jump\t// in\n    tag_467:\n        /* \"#utility.yul\":12823:12909   */\n      swap1\n      pop\n        /* \"#utility.yul\":12603:12916   */\n      swap3\n      swap2\n      pop\n      pop\n      jump\t// out\n        /* \"#utility.yul\":12922:13341   */\n    tag_236:\n        /* \"#utility.yul\":13088:13092   */\n      0x00\n        /* \"#utility.yul\":13126:13128   */\n      0x20\n        /* \"#utility.yul\":13115:13124   */\n      dup3\n        /* \"#utility.yul\":13111:13129   */\n      add\n        /* \"#utility.yul\":13103:13129   */\n      swap1\n      pop\n        /* \"#utility.yul\":13175:13184   */\n      dup2\n        /* \"#utility.yul\":13169:13173   */\n      dup2\n        /* \"#utility.yul\":13165:13185   */\n      sub\n        /* \"#utility.yul\":13161:13162   */\n      0x00\n        /* \"#utility.yul\":13150:13159   */\n      dup4\n        /* \"#utility.yul\":13146:13163   */\n      add\n        /* \"#utility.yul\":13139:13186   */\n      mstore\n        /* \"#utility.yul\":13203:13334   */\n      tag_469\n        /* \"#utility.yul\":13329:13333   */\n      dup2\n        /* \"#utility.yul\":13203:13334   */\n      tag_379\n      jump\t// in\n    tag_469:\n        /* \"#utility.yul\":13195:13334   */\n      swap1\n      pop\n        /* \"#utility.yul\":12922:13341   */\n      swap2\n      swap1\n      pop\n      jump\t// out\n        /* \"#utility.yul\":13347:13766   */\n    tag_250:\n        /* \"#utility.yul\":13513:13517   */\n      0x00\n        /* \"#utility.yul\":13551:13553   */\n      0x20\n        /* \"#utility.yul\":13540:13549   */\n      dup3\n        /* \"#utility.yul\":13536:13554   */\n      add\n        /* \"#utility.yul\":13528:13554   */\n      swap1\n      pop\n        /* \"#utility.yul\":13600:13609   */\n      dup2\n        /* \"#utility.yul\":13594:13598   */\n      dup2\n        /* \"#utility.yul\":13590:13610   */\n      sub\n        /* \"#utility.yul\":13586:13587   */\n      0x00\n        /* \"#utility.yul\":13575:13584   */\n      dup4\n        /* \"#utility.yul\":13571:13588   */\n      add\n        /* \"#utility.yul\":13564:13611   */\n      mstore\n        /* \"#utility.yul\":13628:13759   */\n      tag_471\n        /* \"#utility.yul\":13754:13758   */\n      dup2\n        /* \"#utility.yul\":13628:13759   */\n      tag_384\n      jump\t// in\n    tag_471:\n        /* \"#utility.yul\":13620:13759   */\n      swap1\n      pop\n        /* \"#utility.yul\":13347:13766   */\n      swap2\n      swap1\n      pop\n      jump\t// out\n        /* \"#utility.yul\":13772:14191   */\n    tag_261:\n        /* \"#utility.yul\":13938:13942   */\n      0x00\n        /* \"#utility.yul\":13976:13978   */\n      0x20\n        /* \"#utility.yul\":13965:13974   */\n      dup3\n        /* \"#utility.yul\":13961:13979   */\n      add\n        /* \"#utility.yul\":13953:13979   */\n      swap1\n      pop\n        /* \"#utility.yul\":14025:14034   */\n      dup2\n        /* \"#utility.yul\":14019:14023   */\n      dup2\n        /* \"#utility.yul\":14015:14035   */\n      sub\n        /* \"#utility.yul\":14011:14012   */\n      0x00\n        /* \"#utility.yul\":14000:14009   */\n      dup4\n        /* \"#utility.yul\":13996:14013   */\n      add\n        /* \"#utility.yul\":13989:14036   */\n      mstore\n        /* \"#utility.yul\":14053:14184   */\n      tag_473\n        /* \"#utility.yul\":14179:14183   */\n      dup2\n        /* \"#utility.yul\":14053:14184   */\n      tag_389\n      jump\t// in\n    tag_473:\n        /* \"#utility.yul\":14045:14184   */\n      swap1\n      pop\n        /* \"#utility.yul\":13772:14191   */\n      swap2\n      swap1\n      pop\n      jump\t// out\n        /* \"#utility.yul\":14197:14616   */\n    tag_218:\n        /* \"#utility.yul\":14363:14367   */\n      0x00\n        /* \"#utility.yul\":14401:14403   */\n      0x20\n        /* \"#utility.yul\":14390:14399   */\n      dup3\n        /* \"#utility.yul\":14386:14404   */\n      add\n        /* \"#utility.yul\":14378:14404   */\n      swap1\n      pop\n        /* \"#utility.yul\":14450:14459   */\n      dup2\n        /* \"#utility.yul\":14444:14448   */\n      dup2\n        /* \"#utility.yul\":14440:14460   */\n      sub\n        /* \"#utility.yul\":14436:14437   */\n      0x00\n        /* \"#utility.yul\":14425:14434   */\n      dup4\n        /* \"#utility.yul\":14421:14438   */\n      add\n        /* \"#utility.yul\":14414:14461   */\n      mstore\n        /* \"#utility.yul\":14478:14609   */\n      tag_475\n        /* \"#utility.yul\":14604:14608   */\n      dup2\n        /* \"#utility.yul\":14478:14609   */\n      tag_394\n      jump\t// in\n    tag_475:\n        /* \"#utility.yul\":14470:14609   */\n      swap1\n      pop\n        /* \"#utility.yul\":14197:14616   */\n      swap2\n      swap1\n      pop\n      jump\t// out\n        /* \"#utility.yul\":14622:15041   */\n    tag_228:\n        /* \"#utility.yul\":14788:14792   */\n      0x00\n        /* \"#utility.yul\":14826:14828   */\n      0x20\n        /* \"#utility.yul\":14815:14824   */\n      dup3\n        /* \"#utility.yul\":14811:14829   */\n      add\n        /* \"#utility.yul\":14803:14829   */\n      swap1\n      pop\n        /* \"#utility.yul\":14875:14884   */\n      dup2\n        /* \"#utility.yul\":14869:14873   */\n      dup2\n        /* \"#utility.yul\":14865:14885   */\n      sub\n        /* \"#utility.yul\":14861:14862   */\n      0x00\n        /* \"#utility.yul\":14850:14859   */\n      dup4\n        /* \"#utility.yul\":14846:14863   */\n      add\n        /* \"#utility.yul\":14839:14886   */\n      mstore\n        /* \"#utility.yul\":14903:15034   */\n      tag_477\n        /* \"#utility.yul\":15029:15033   */\n      dup2\n        /* \"#utility.yul\":14903:15034   */\n      tag_399\n      jump\t// in\n    tag_477:\n        /* \"#utility.yul\":14895:15034   */\n      swap1\n      pop\n        /* \"#utility.yul\":14622:15041   */\n      swap2\n      swap1\n      pop\n      jump\t// out\n        /* \"#utility.yul\":15047:15466   */\n    tag_241:\n        /* \"#utility.yul\":15213:15217   */\n      0x00\n        /* \"#utility.yul\":15251:15253   */\n      0x20\n        /* \"#utility.yul\":15240:15249   */\n      dup3\n        /* \"#utility.yul\":15236:15254   */\n      add\n        /* \"#utility.yul\":15228:15254   */\n      swap1\n      pop\n        /* \"#utility.yul\":15300:15309   */\n      dup2\n        /* \"#utility.yul\":15294:15298   */\n      dup2\n        /* \"#utility.yul\":15290:15310   */\n      sub\n        /* \"#utility.yul\":15286:15287   */\n      0x00\n        /* \"#utility.yul\":15275:15284   */\n      dup4\n        /* \"#utility.yul\":15271:15288   */\n      add\n        /* \"#utility.yul\":15264:15311   */\n      mstore\n        /* \"#utility.yul\":15328:15459   */\n      tag_479\n        /* \"#utility.yul\":15454:15458   */\n      dup2\n        /* \"#utility.yul\":15328:15459   */\n      tag_404\n      jump\t// in\n    tag_479:\n        /* \"#utility.yul\":15320:15459   */\n      swap1\n      pop\n        /* \"#utility.yul\":15047:15466   */\n      swap2\n      swap1\n      pop\n      jump\t// out\n        /* \"#utility.yul\":15472:15891   */\n    tag_197:\n        /* \"#utility.yul\":15638:15642   */\n      0x00\n        /* \"#utility.yul\":15676:15678   */\n      0x20\n        /* \"#utility.yul\":15665:15674   */\n      dup3\n        /* \"#utility.yul\":15661:15679   */\n      add\n        /* \"#utility.yul\":15653:15679   */\n      swap1\n      pop\n        /* \"#utility.yul\":15725:15734   */\n      dup2\n        /* \"#utility.yul\":15719:15723   */\n      dup2\n        /* \"#utility.yul\":15715:15735   */\n      sub\n        /* \"#utility.yul\":15711:15712   */\n      0x00\n        /* \"#utility.yul\":15700:15709   */\n      dup4\n        /* \"#utility.yul\":15696:15713   */\n      add\n        /* \"#utility.yul\":15689:15736   */\n      mstore\n        /* \"#utility.yul\":15753:15884   */\n      tag_481\n        /* \"#utility.yul\":15879:15883   */\n      dup2\n        /* \"#utility.yul\":15753:15884   */\n      tag_409\n      jump\t// in\n    tag_481:\n        /* \"#utility.yul\":15745:15884   */\n      swap1\n      pop\n        /* \"#utility.yul\":15472:15891   */\n      swap2\n      swap1\n      pop\n      jump\t// out\n        /* \"#utility.yul\":15897:16316   */\n    tag_271:\n        /* \"#utility.yul\":16063:16067   */\n      0x00\n        /* \"#utility.yul\":16101:16103   */\n      0x20\n        /* \"#utility.yul\":16090:16099   */\n      dup3\n        /* \"#utility.yul\":16086:16104   */\n      add\n        /* \"#utility.yul\":16078:16104   */\n      swap1\n      pop\n        /* \"#utility.yul\":16150:16159   */\n      dup2\n        /* \"#utility.yul\":16144:16148   */\n      dup2\n        /* \"#utility.yul\":16140:16160   */\n      sub\n        /* \"#utility.yul\":16136:16137   */\n      0x00\n        /* \"#utility.yul\":16125:16134   */\n      dup4\n        /* \"#utility.yul\":16121:16138   */\n      add\n        /* \"#utility.yul\":16114:16161   */\n      mstore\n        /* \"#utility.yul\":16178:16309   */\n      tag_483\n        /* \"#utility.yul\":16304:16308   */\n      dup2\n        /* \"#utility.yul\":16178:16309   */\n      tag_414\n      jump\t// in\n    tag_483:\n        /* \"#utility.yul\":16170:16309   */\n      swap1\n      pop\n        /* \"#utility.yul\":15897:16316   */\n      swap2\n      swap1\n      pop\n      jump\t// out\n        /* \"#utility.yul\":16322:16741   */\n    tag_122:\n        /* \"#utility.yul\":16488:16492   */\n      0x00\n        /* \"#utility.yul\":16526:16528   */\n      0x20\n        /* \"#utility.yul\":16515:16524   */\n      dup3\n        /* \"#utility.yul\":16511:16529   */\n      add\n        /* \"#utility.yul\":16503:16529   */\n      swap1\n      pop\n        /* \"#utility.yul\":16575:16584   */\n      dup2\n        /* \"#utility.yul\":16569:16573   */\n      dup2\n        /* \"#utility.yul\":16565:16585   */\n      sub\n        /* \"#utility.yul\":16561:16562   */\n      0x00\n        /* \"#utility.yul\":16550:16559   */\n      dup4\n        /* \"#utility.yul\":16546:16563   */\n      add\n        /* \"#utility.yul\":16539:16586   */\n      mstore\n        /* \"#utility.yul\":16603:16734   */\n      tag_485\n        /* \"#utility.yul\":16729:16733   */\n      dup2\n        /* \"#utility.yul\":16603:16734   */\n      tag_419\n      jump\t// in\n    tag_485:\n        /* \"#utility.yul\":16595:16734   */\n      swap1\n      pop\n        /* \"#utility.yul\":16322:16741   */\n      swap2\n      swap1\n      pop\n      jump\t// out\n        /* \"#utility.yul\":16747:17166   */\n    tag_137:\n        /* \"#utility.yul\":16913:16917   */\n      0x00\n        /* \"#utility.yul\":16951:16953   */\n      0x20\n        /* \"#utility.yul\":16940:16949   */\n      dup3\n        /* \"#utility.yul\":16936:16954   */\n      add\n        /* \"#utility.yul\":16928:16954   */\n      swap1\n      pop\n        /* \"#utility.yul\":17000:17009   */\n      dup2\n        /* \"#utility.yul\":16994:16998   */\n      dup2\n        /* \"#utility.yul\":16990:17010   */\n      sub\n        /* \"#utility.yul\":16986:16987   */\n      0x00\n        /* \"#utility.yul\":16975:16984   */\n      dup4\n        /* \"#utility.yul\":16971:16988   */\n      add\n        /* \"#utility.yul\":16964:17011   */\n      mstore\n        /* \"#utility.yul\":17028:17159   */\n      tag_487\n        /* \"#utility.yul\":17154:17158   */\n      dup2\n        /* \"#utility.yul\":17028:17159   */\n      tag_424\n      jump\t// in\n    tag_487:\n        /* \"#utility.yul\":17020:17159   */\n      swap1\n      pop\n        /* \"#utility.yul\":16747:17166   */\n      swap2\n      swap1\n      pop\n      jump\t// out\n        /* \"#utility.yul\":17172:17591   */\n    tag_160:\n        /* \"#utility.yul\":17338:17342   */\n      0x00\n        /* \"#utility.yul\":17376:17378   */\n      0x20\n        /* \"#utility.yul\":17365:17374   */\n      dup3\n        /* \"#utility.yul\":17361:17379   */\n      add\n        /* \"#utility.yul\":17353:17379   */\n      swap1\n      pop\n        /* \"#utility.yul\":17425:17434   */\n      dup2\n        /* \"#utility.yul\":17419:17423   */\n      dup2\n        /* \"#utility.yul\":17415:17435   */\n      sub\n        /* \"#utility.yul\":17411:17412   */\n      0x00\n        /* \"#utility.yul\":17400:17409   */\n      dup4\n        /* \"#utility.yul\":17396:17413   */\n      add\n        /* \"#utility.yul\":17389:17436   */\n      mstore\n        /* \"#utility.yul\":17453:17584   */\n      tag_489\n        /* \"#utility.yul\":17579:17583   */\n      dup2\n        /* \"#utility.yul\":17453:17584   */\n      tag_429\n      jump\t// in\n    tag_489:\n        /* \"#utility.yul\":17445:17584   */\n      swap1\n      pop\n        /* \"#utility.yul\":17172:17591   */\n      swap2\n      swap1\n      pop\n      jump\t// out\n        /* \"#utility.yul\":17597:18016   */\n    tag_257:\n        /* \"#utility.yul\":17763:17767   */\n      0x00\n        /* \"#utility.yul\":17801:17803   */\n      0x20\n        /* \"#utility.yul\":17790:17799   */\n      dup3\n        /* \"#utility.yul\":17786:17804   */\n      add\n        /* \"#utility.yul\":17778:17804   */\n      swap1\n      pop\n        /* \"#utility.yul\":17850:17859   */\n      dup2\n        /* \"#utility.yul\":17844:17848   */\n      dup2\n        /* \"#utility.yul\":17840:17860   */\n      sub\n        /* \"#utility.yul\":17836:17837   */\n      0x00\n        /* \"#utility.yul\":17825:17834   */\n      dup4\n        /* \"#utility.yul\":17821:17838   */\n      add\n        /* \"#utility.yul\":17814:17861   */\n      mstore\n        /* \"#utility.yul\":17878:18009   */\n      tag_491\n        /* \"#utility.yul\":18004:18008   */\n      dup2\n        /* \"#utility.yul\":17878:18009   */\n      tag_434\n      jump\t// in\n    tag_491:\n        /* \"#utility.yul\":17870:18009   */\n      swap1\n      pop\n        /* \"#utility.yul\":17597:18016   */\n      swap2\n      swap1\n      pop\n      jump\t// out\n        /* \"#utility.yul\":18022:18441   */\n    tag_233:\n        /* \"#utility.yul\":18188:18192   */\n      0x00\n        /* \"#utility.yul\":18226:18228   */\n      0x20\n        /* \"#utility.yul\":18215:18224   */\n      dup3\n        /* \"#utility.yul\":18211:18229   */\n      add\n        /* \"#utility.yul\":18203:18229   */\n      swap1\n      pop\n        /* \"#utility.yul\":18275:18284   */\n      dup2\n        /* \"#utility.yul\":18269:18273   */\n      dup2\n        /* \"#utility.yul\":18265:18285   */\n      sub\n        /* \"#utility.yul\":18261:18262   */\n      0x00\n        /* \"#utility.yul\":18250:18259   */\n      dup4\n        /* \"#utility.yul\":18246:18263   */\n      add\n        /* \"#utility.yul\":18239:18286   */\n      mstore\n        /* \"#utility.yul\":18303:18434   */\n      tag_493\n        /* \"#utility.yul\":18429:18433   */\n      dup2\n        /* \"#utility.yul\":18303:18434   */\n      tag_439\n      jump\t// in\n    tag_493:\n        /* \"#utility.yul\":18295:18434   */\n      swap1\n      pop\n        /* \"#utility.yul\":18022:18441   */\n      swap2\n      swap1\n      pop\n      jump\t// out\n        /* \"#utility.yul\":18447:18866   */\n    tag_225:\n        /* \"#utility.yul\":18613:18617   */\n      0x00\n        /* \"#utility.yul\":18651:18653   */\n      0x20\n        /* \"#utility.yul\":18640:18649   */\n      dup3\n        /* \"#utility.yul\":18636:18654   */\n      add\n        /* \"#utility.yul\":18628:18654   */\n      swap1\n      pop\n        /* \"#utility.yul\":18700:18709   */\n      dup2\n        /* \"#utility.yul\":18694:18698   */\n      dup2\n        /* \"#utility.yul\":18690:18710   */\n      sub\n        /* \"#utility.yul\":18686:18687   */\n      0x00\n        /* \"#utility.yul\":18675:18684   */\n      dup4\n        /* \"#utility.yul\":18671:18688   */\n      add\n        /* \"#utility.yul\":18664:18711   */\n      mstore\n        /* \"#utility.yul\":18728:18859   */\n      tag_495\n        /* \"#utility.yul\":18854:18858   */\n      dup2\n        /* \"#utility.yul\":18728:18859   */\n      tag_444\n      jump\t// in\n    tag_495:\n        /* \"#utility.yul\":18720:18859   */\n      swap1\n      pop\n        /* \"#utility.yul\":18447:18866   */\n      swap2\n      swap1\n      pop\n      jump\t// out\n        /* \"#utility.yul\":18872:19291   */\n    tag_183:\n        /* \"#utility.yul\":19038:19042   */\n      0x00\n        /* \"#utility.yul\":19076:19078   */\n      0x20\n        /* \"#utility.yul\":19065:19074   */\n      dup3\n        /* \"#utility.yul\":19061:19079   */\n      add\n        /* \"#utility.yul\":19053:19079   */\n      swap1\n      pop\n        /* \"#utility.yul\":19125:19134   */\n      dup2\n        /* \"#utility.yul\":19119:19123   */\n      dup2\n        /* \"#utility.yul\":19115:19135   */\n      sub\n        /* \"#utility.yul\":19111:19112   */\n      0x00\n        /* \"#utility.yul\":19100:19109   */\n      dup4\n        /* \"#utility.yul\":19096:19113   */\n      add\n        /* \"#utility.yul\":19089:19136   */\n      mstore\n        /* \"#utility.yul\":19153:19284   */\n      tag_497\n        /* \"#utility.yul\":19279:19283   */\n      dup2\n        /* \"#utility.yul\":19153:19284   */\n      tag_449\n      jump\t// in\n    tag_497:\n        /* \"#utility.yul\":19145:19284   */\n      swap1\n      pop\n        /* \"#utility.yul\":18872:19291   */\n      swap2\n      swap1\n      pop\n      jump\t// out\n        /* \"#utility.yul\":19297:19519   */\n    tag_39:\n        /* \"#utility.yul\":19390:19394   */\n      0x00\n        /* \"#utility.yul\":19428:19430   */\n      0x20\n        /* \"#utility.yul\":19417:19426   */\n      dup3\n        /* \"#utility.yul\":19413:19431   */\n      add\n        /* \"#utility.yul\":19405:19431   */\n      swap1\n      pop\n        /* \"#utility.yul\":19441:19512   */\n      tag_499\n        /* \"#utility.yul\":19509:19510   */\n      0x00\n        /* \"#utility.yul\":19498:19507   */\n      dup4\n        /* \"#utility.yul\":19494:19511   */\n      add\n        /* \"#utility.yul\":19485:19491   */\n      dup5\n        /* \"#utility.yul\":19441:19512   */\n      tag_454\n      jump\t// in\n    tag_499:\n        /* \"#utility.yul\":19297:19519   */\n      swap3\n      swap2\n      pop\n      pop\n      jump\t// out\n        /* \"#utility.yul\":19525:19739   */\n    tag_48:\n        /* \"#utility.yul\":19614:19618   */\n      0x00\n        /* \"#utility.yul\":19652:19654   */\n      0x20\n        /* \"#utility.yul\":19641:19650   */\n      dup3\n        /* \"#utility.yul\":19637:19655   */\n      add\n        /* \"#utility.yul\":19629:19655   */\n      swap1\n      pop\n        /* \"#utility.yul\":19665:19732   */\n      tag_501\n        /* \"#utility.yul\":19729:19730   */\n      0x00\n        /* \"#utility.yul\":19718:19727   */\n      dup4\n        /* \"#utility.yul\":19714:19731   */\n      add\n        /* \"#utility.yul\":19705:19711   */\n      dup5\n        /* \"#utility.yul\":19665:19732   */\n      tag_458\n      jump\t// in\n    tag_501:\n        /* \"#utility.yul\":19525:19739   */\n      swap3\n      swap2\n      pop\n      pop\n      jump\t// out\n        /* \"#utility.yul\":19745:19874   */\n    tag_288:\n        /* \"#utility.yul\":19779:19785   */\n      0x00\n        /* \"#utility.yul\":19806:19826   */\n      tag_503\n      tag_504\n      jump\t// in\n    tag_503:\n        /* \"#utility.yul\":19796:19826   */\n      swap1\n      pop\n        /* \"#utility.yul\":19835:19868   */\n      tag_505\n        /* \"#utility.yul\":19863:19867   */\n      dup3\n        /* \"#utility.yul\":19855:19861   */\n      dup3\n        /* \"#utility.yul\":19835:19868   */\n      tag_506\n      jump\t// in\n    tag_505:\n        /* \"#utility.yul\":19745:19874   */\n      swap2\n      swap1\n      pop\n      jump\t// out\n        /* \"#utility.yul\":19880:19955   */\n    tag_504:\n        /* \"#utility.yul\":19913:19919   */\n      0x00\n        /* \"#utility.yul\":19946:19948   */\n      0x40\n        /* \"#utility.yul\":19940:19949   */\n      mload\n        /* \"#utility.yul\":19930:19949   */\n      swap1\n      pop\n        /* \"#utility.yul\":19880:19955   */\n      swap1\n      jump\t// out\n        /* \"#utility.yul\":19961:20272   */\n    tag_287:\n        /* \"#utility.yul\":20038:20042   */\n      0x00\n        /* \"#utility.yul\":20128:20146   */\n      0xffffffffffffffff\n        /* \"#utility.yul\":20120:20126   */\n      dup3\n        /* \"#utility.yul\":20117:20147   */\n      gt\n        /* \"#utility.yul\":20114:20170   */\n      iszero\n      tag_509\n      jumpi\n        /* \"#utility.yul\":20150:20168   */\n      tag_510\n      tag_511\n      jump\t// in\n    tag_510:\n        /* \"#utility.yul\":20114:20170   */\n    tag_509:\n        /* \"#utility.yul\":20200:20204   */\n      0x20\n        /* \"#utility.yul\":20192:20198   */\n      dup3\n        /* \"#utility.yul\":20188:20205   */\n      mul\n        /* \"#utility.yul\":20180:20205   */\n      swap1\n      pop\n        /* \"#utility.yul\":20260:20264   */\n      0x20\n        /* \"#utility.yul\":20254:20258   */\n      dup2\n        /* \"#utility.yul\":20250:20265   */\n      add\n        /* \"#utility.yul\":20242:20265   */\n      swap1\n      pop\n        /* \"#utility.yul\":19961:20272   */\n      swap2\n      swap1\n      pop\n      jump\t// out\n        /* \"#utility.yul\":20278:20589   */\n    tag_301:\n        /* \"#utility.yul\":20355:20359   */\n      0x00\n        /* \"#utility.yul\":20445:20463   */\n      0xffffffffffffffff\n        /* \"#utility.yul\":20437:20443   */\n      dup3\n        /* \"#utility.yul\":20434:20464   */\n      gt\n        /* \"#utility.yul\":20431:20487   */\n      iszero\n      tag_513\n      jumpi\n        /* \"#utility.yul\":20467:20485   */\n      tag_514\n      tag_511\n      jump\t// in\n    tag_514:\n        /* \"#utility.yul\":20431:20487   */\n    tag_513:\n        /* \"#utility.yul\":20517:20521   */\n      0x20\n        /* \"#utility.yul\":20509:20515   */\n      dup3\n        /* \"#utility.yul\":20505:20522   */\n      mul\n        /* \"#utility.yul\":20497:20522   */\n      swap1\n      pop\n        /* \"#utility.yul\":20577:20581   */\n      0x20\n        /* \"#utility.yul\":20571:20575   */\n      dup2\n        /* \"#utility.yul\":20567:20582   */\n      add\n        /* \"#utility.yul\":20559:20582   */\n      swap1\n      pop\n        /* \"#utility.yul\":20278:20589   */\n      swap2\n      swap1\n      pop\n      jump\t// out\n        /* \"#utility.yul\":20595:20694   */\n    tag_372:\n        /* \"#utility.yul\":20647:20653   */\n      0x00\n        /* \"#utility.yul\":20681:20686   */\n      dup2\n        /* \"#utility.yul\":20675:20687   */\n      mload\n        /* \"#utility.yul\":20665:20687   */\n      swap1\n      pop\n        /* \"#utility.yul\":20595:20694   */\n      swap2\n      swap1\n      pop\n      jump\t// out\n        /* \"#utility.yul\":20700:20869   */\n    tag_374:\n        /* \"#utility.yul\":20784:20795   */\n      0x00\n        /* \"#utility.yul\":20818:20824   */\n      dup3\n        /* \"#utility.yul\":20813:20816   */\n      dup3\n        /* \"#utility.yul\":20806:20825   */\n      mstore\n        /* \"#utility.yul\":20858:20862   */\n      0x20\n        /* \"#utility.yul\":20853:20856   */\n      dup3\n        /* \"#utility.yul\":20849:20863   */\n      add\n        /* \"#utility.yul\":20834:20863   */\n      swap1\n      pop\n        /* \"#utility.yul\":20700:20869   */\n      swap3\n      swap2\n      pop\n      pop\n      jump\t// out\n        /* \"#utility.yul\":20875:21180   */\n    tag_131:\n        /* \"#utility.yul\":20915:20918   */\n      0x00\n        /* \"#utility.yul\":20934:20954   */\n      tag_518\n        /* \"#utility.yul\":20952:20953   */\n      dup3\n        /* \"#utility.yul\":20934:20954   */\n      tag_457\n      jump\t// in\n    tag_518:\n        /* \"#utility.yul\":20929:20954   */\n      swap2\n      pop\n        /* \"#utility.yul\":20968:20988   */\n      tag_519\n        /* \"#utility.yul\":20986:20987   */\n      dup4\n        /* \"#utility.yul\":20968:20988   */\n      tag_457\n      jump\t// in\n    tag_519:\n        /* \"#utility.yul\":20963:20988   */\n      swap3\n      pop\n        /* \"#utility.yul\":21122:21123   */\n      dup3\n        /* \"#utility.yul\":21054:21120   */\n      0xffffffffffffffffffffffffffffffffffffffffffffffffffffffffffffffff\n        /* \"#utility.yul\":21050:21124   */\n      sub\n        /* \"#utility.yul\":21047:21048   */\n      dup3\n        /* \"#utility.yul\":21044:21125   */\n      gt\n        /* \"#utility.yul\":21041:21148   */\n      iszero\n      tag_520\n      jumpi\n        /* \"#utility.yul\":21128:21146   */\n      tag_521\n      tag_522\n      jump\t// in\n    tag_521:\n        /* \"#utility.yul\":21041:21148   */\n    tag_520:\n        /* \"#utility.yul\":21172:21173   */\n      dup3\n        /* \"#utility.yul\":21169:21170   */\n      dup3\n        /* \"#utility.yul\":21165:21174   */\n      add\n        /* \"#utility.yul\":21158:21174   */\n      swap1\n      pop\n        /* \"#utility.yul\":20875:21180   */\n      swap3\n      swap2\n      pop\n      pop\n      jump\t// out\n        /* \"#utility.yul\":21186:21377   */\n    tag_263:\n        /* \"#utility.yul\":21226:21230   */\n      0x00\n        /* \"#utility.yul\":21246:21266   */\n      tag_524\n        /* \"#utility.yul\":21264:21265   */\n      dup3\n        /* \"#utility.yul\":21246:21266   */\n      tag_457\n      jump\t// in\n    tag_524:\n        /* \"#utility.yul\":21241:21266   */\n      swap2\n      pop\n        /* \"#utility.yul\":21280:21300   */\n      tag_525\n        /* \"#utility.yul\":21298:21299   */\n      dup4\n        /* \"#utility.yul\":21280:21300   */\n      tag_457\n      jump\t// in\n    tag_525:\n        /* \"#utility.yul\":21275:21300   */\n      swap3\n      pop\n        /* \"#utility.yul\":21319:21320   */\n      dup3\n        /* \"#utility.yul\":21316:21317   */\n      dup3\n        /* \"#utility.yul\":21313:21321   */\n      lt\n        /* \"#utility.yul\":21310:21344   */\n      iszero\n      tag_526\n      jumpi\n        /* \"#utility.yul\":21324:21342   */\n      tag_527\n      tag_522\n      jump\t// in\n    tag_527:\n        /* \"#utility.yul\":21310:21344   */\n    tag_526:\n        /* \"#utility.yul\":21369:21370   */\n      dup3\n        /* \"#utility.yul\":21366:21367   */\n      dup3\n        /* \"#utility.yul\":21362:21371   */\n      sub\n        /* \"#utility.yul\":21354:21371   */\n      swap1\n      pop\n        /* \"#utility.yul\":21186:21377   */\n      swap3\n      swap2\n      pop\n      pop\n      jump\t// out\n        /* \"#utility.yul\":21383:21479   */\n    tag_364:\n        /* \"#utility.yul\":21420:21427   */\n      0x00\n        /* \"#utility.yul\":21449:21473   */\n      tag_529\n        /* \"#utility.yul\":21467:21472   */\n      dup3\n        /* \"#utility.yul\":21449:21473   */\n      tag_530\n      jump\t// in\n    tag_529:\n        /* \"#utility.yul\":21438:21473   */\n      swap1\n      pop\n        /* \"#utility.yul\":21383:21479   */\n      swap2\n      swap1\n      pop\n      jump\t// out\n        /* \"#utility.yul\":21485:21575   */\n    tag_368:\n        /* \"#utility.yul\":21519:21526   */\n      0x00\n        /* \"#utility.yul\":21562:21567   */\n      dup2\n        /* \"#utility.yul\":21555:21568   */\n      iszero\n        /* \"#utility.yul\":21548:21569   */\n      iszero\n        /* \"#utility.yul\":21537:21569   */\n      swap1\n      pop\n        /* \"#utility.yul\":21485:21575   */\n      swap2\n      swap1\n      pop\n      jump\t// out\n        /* \"#utility.yul\":21581:21707   */\n    tag_530:\n        /* \"#utility.yul\":21618:21625   */\n      0x00\n        /* \"#utility.yul\":21658:21700   */\n      0xffffffffffffffffffffffffffffffffffffffff\n        /* \"#utility.yul\":21651:21656   */\n      dup3\n        /* \"#utility.yul\":21647:21701   */\n      and\n        /* \"#utility.yul\":21636:21701   */\n      swap1\n      pop\n        /* \"#utility.yul\":21581:21707   */\n      swap2\n      swap1\n      pop\n      jump\t// out\n        /* \"#utility.yul\":21713:21790   */\n    tag_457:\n        /* \"#utility.yul\":21750:21757   */\n      0x00\n        /* \"#utility.yul\":21779:21784   */\n      dup2\n        /* \"#utility.yul\":21768:21784   */\n      swap1\n      pop\n        /* \"#utility.yul\":21713:21790   */\n      swap2\n      swap1\n      pop\n      jump\t// out\n        /* \"#utility.yul\":21796:21882   */\n    tag_461:\n        /* \"#utility.yul\":21831:21838   */\n      0x00\n        /* \"#utility.yul\":21871:21875   */\n      0xff\n        /* \"#utility.yul\":21864:21869   */\n      dup3\n        /* \"#utility.yul\":21860:21876   */\n      and\n        /* \"#utility.yul\":21849:21876   */\n      swap1\n      pop\n        /* \"#utility.yul\":21796:21882   */\n      swap2\n      swap1\n      pop\n      jump\t// out\n        /* \"#utility.yul\":21888:22195   */\n    tag_376:\n        /* \"#utility.yul\":21956:21957   */\n      0x00\n        /* \"#utility.yul\":21966:22079   */\n    tag_536:\n        /* \"#utility.yul\":21980:21986   */\n      dup4\n        /* \"#utility.yul\":21977:21978   */\n      dup2\n        /* \"#utility.yul\":21974:21987   */\n      lt\n        /* \"#utility.yul\":21966:22079   */\n      iszero\n      tag_538\n      jumpi\n        /* \"#utility.yul\":22065:22066   */\n      dup1\n        /* \"#utility.yul\":22060:22063   */\n      dup3\n        /* \"#utility.yul\":22056:22067   */\n      add\n        /* \"#utility.yul\":22050:22068   */\n      mload\n        /* \"#utility.yul\":22046:22047   */\n      dup2\n        /* \"#utility.yul\":22041:22044   */\n      dup5\n        /* \"#utility.yul\":22037:22048   */\n      add\n        /* \"#utility.yul\":22030:22069   */\n      mstore\n        /* \"#utility.yul\":22002:22004   */\n      0x20\n        /* \"#utility.yul\":21999:22000   */\n      dup2\n        /* \"#utility.yul\":21995:22005   */\n      add\n        /* \"#utility.yul\":21990:22005   */\n      swap1\n      pop\n        /* \"#utility.yul\":21966:22079   */\n      jump(tag_536)\n    tag_538:\n        /* \"#utility.yul\":22097:22103   */\n      dup4\n        /* \"#utility.yul\":22094:22095   */\n      dup2\n        /* \"#utility.yul\":22091:22104   */\n      gt\n        /* \"#utility.yul\":22088:22189   */\n      iszero\n      tag_539\n      jumpi\n        /* \"#utility.yul\":22177:22178   */\n      0x00\n        /* \"#utility.yul\":22168:22174   */\n      dup5\n        /* \"#utility.yul\":22163:22166   */\n      dup5\n        /* \"#utility.yul\":22159:22175   */\n      add\n        /* \"#utility.yul\":22152:22179   */\n      mstore\n        /* \"#utility.yul\":22088:22189   */\n    tag_539:\n        /* \"#utility.yul\":21937:22195   */\n      pop\n        /* \"#utility.yul\":21888:22195   */\n      pop\n      pop\n      pop\n      jump\t// out\n        /* \"#utility.yul\":22201:22521   */\n    tag_105:\n        /* \"#utility.yul\":22245:22251   */\n      0x00\n        /* \"#utility.yul\":22282:22283   */\n      0x02\n        /* \"#utility.yul\":22276:22280   */\n      dup3\n        /* \"#utility.yul\":22272:22284   */\n      div\n        /* \"#utility.yul\":22262:22284   */\n      swap1\n      pop\n        /* \"#utility.yul\":22329:22330   */\n      0x01\n        /* \"#utility.yul\":22323:22327   */\n      dup3\n        /* \"#utility.yul\":22319:22331   */\n      and\n        /* \"#utility.yul\":22350:22368   */\n      dup1\n        /* \"#utility.yul\":22340:22421   */\n      tag_541\n      jumpi\n        /* \"#utility.yul\":22406:22410   */\n      0x7f\n        /* \"#utility.yul\":22398:22404   */\n      dup3\n        /* \"#utility.yul\":22394:22411   */\n      and\n        /* \"#utility.yul\":22384:22411   */\n      swap2\n      pop\n        /* \"#utility.yul\":22340:22421   */\n    tag_541:\n        /* \"#utility.yul\":22468:22470   */\n      0x20\n        /* \"#utility.yul\":22460:22466   */\n      dup3\n        /* \"#utility.yul\":22457:22471   */\n      lt\n        /* \"#utility.yul\":22437:22455   */\n      dup2\n        /* \"#utility.yul\":22434:22472   */\n      eq\n        /* \"#utility.yul\":22431:22515   */\n      iszero\n      tag_542\n      jumpi\n        /* \"#utility.yul\":22487:22505   */\n      tag_543\n      tag_544\n      jump\t// in\n    tag_543:\n        /* \"#utility.yul\":22431:22515   */\n    tag_542:\n        /* \"#utility.yul\":22252:22521   */\n      pop\n        /* \"#utility.yul\":22201:22521   */\n      swap2\n      swap1\n      pop\n      jump\t// out\n        /* \"#utility.yul\":22527:22808   */\n    tag_506:\n        /* \"#utility.yul\":22610:22637   */\n      tag_546\n        /* \"#utility.yul\":22632:22636   */\n      dup3\n        /* \"#utility.yul\":22610:22637   */\n      tag_378\n      jump\t// in\n    tag_546:\n        /* \"#utility.yul\":22602:22608   */\n      dup2\n        /* \"#utility.yul\":22598:22638   */\n      add\n        /* \"#utility.yul\":22740:22746   */\n      dup2\n        /* \"#utility.yul\":22728:22738   */\n      dup2\n        /* \"#utility.yul\":22725:22747   */\n      lt\n        /* \"#utility.yul\":22704:22722   */\n      0xffffffffffffffff\n        /* \"#utility.yul\":22692:22702   */\n      dup3\n        /* \"#utility.yul\":22689:22723   */\n      gt\n        /* \"#utility.yul\":22686:22748   */\n      or\n        /* \"#utility.yul\":22683:22771   */\n      iszero\n      tag_547\n      jumpi\n        /* \"#utility.yul\":22751:22769   */\n      tag_548\n      tag_511\n      jump\t// in\n    tag_548:\n        /* \"#utility.yul\":22683:22771   */\n    tag_547:\n        /* \"#utility.yul\":22791:22801   */\n      dup1\n        /* \"#utility.yul\":22787:22789   */\n      0x40\n        /* \"#utility.yul\":22780:22802   */\n      mstore\n        /* \"#utility.yul\":22570:22808   */\n      pop\n        /* \"#utility.yul\":22527:22808   */\n      pop\n      pop\n      jump\t// out\n        /* \"#utility.yul\":22814:23047   */\n    tag_208:\n        /* \"#utility.yul\":22853:22856   */\n      0x00\n        /* \"#utility.yul\":22876:22900   */\n      tag_550\n        /* \"#utility.yul\":22894:22899   */\n      dup3\n        /* \"#utility.yul\":22876:22900   */\n      tag_457\n      jump\t// in\n    tag_550:\n        /* \"#utility.yul\":22867:22900   */\n      swap2\n      pop\n        /* \"#utility.yul\":22922:22988   */\n      0xffffffffffffffffffffffffffffffffffffffffffffffffffffffffffffffff\n        /* \"#utility.yul\":22915:22920   */\n      dup3\n        /* \"#utility.yul\":22912:22989   */\n      eq\n        /* \"#utility.yul\":22909:23012   */\n      iszero\n      tag_551\n      jumpi\n        /* \"#utility.yul\":22992:23010   */\n      tag_552\n      tag_522\n      jump\t// in\n    tag_552:\n        /* \"#utility.yul\":22909:23012   */\n    tag_551:\n        /* \"#utility.yul\":23039:23040   */\n      0x01\n        /* \"#utility.yul\":23032:23037   */\n      dup3\n        /* \"#utility.yul\":23028:23041   */\n      add\n        /* \"#utility.yul\":23021:23041   */\n      swap1\n      pop\n        /* \"#utility.yul\":22814:23047   */\n      swap2\n      swap1\n      pop\n      jump\t// out\n        /* \"#utility.yul\":23053:23233   */\n    tag_522:\n        /* \"#utility.yul\":23101:23178   */\n      0x4e487b7100000000000000000000000000000000000000000000000000000000\n        /* \"#utility.yul\":23098:23099   */\n      0x00\n        /* \"#utility.yul\":23091:23179   */\n      mstore\n        /* \"#utility.yul\":23198:23202   */\n      0x11\n        /* \"#utility.yul\":23195:23196   */\n      0x04\n        /* \"#utility.yul\":23188:23203   */\n      mstore\n        /* \"#utility.yul\":23222:23226   */\n      0x24\n        /* \"#utility.yul\":23219:23220   */\n      0x00\n        /* \"#utility.yul\":23212:23227   */\n      revert\n        /* \"#utility.yul\":23239:23419   */\n    tag_544:\n        /* \"#utility.yul\":23287:23364   */\n      0x4e487b7100000000000000000000000000000000000000000000000000000000\n        /* \"#utility.yul\":23284:23285   */\n      0x00\n        /* \"#utility.yul\":23277:23365   */\n      mstore\n        /* \"#utility.yul\":23384:23388   */\n      0x22\n        /* \"#utility.yul\":23381:23382   */\n      0x04\n        /* \"#utility.yul\":23374:23389   */\n      mstore\n        /* \"#utility.yul\":23408:23412   */\n      0x24\n        /* \"#utility.yul\":23405:23406   */\n      0x00\n        /* \"#utility.yul\":23398:23413   */\n      revert\n        /* \"#utility.yul\":23425:23605   */\n    tag_204:\n        /* \"#utility.yul\":23473:23550   */\n      0x4e487b7100000000000000000000000000000000000000000000000000000000\n        /* \"#utility.yul\":23470:23471   */\n      0x00\n        /* \"#utility.yul\":23463:23551   */\n      mstore\n        /* \"#utility.yul\":23570:23574   */\n      0x32\n        /* \"#utility.yul\":23567:23568   */\n      0x04\n        /* \"#utility.yul\":23560:23575   */\n      mstore\n        /* \"#utility.yul\":23594:23598   */\n      0x24\n        /* \"#utility.yul\":23591:23592   */\n      0x00\n        /* \"#utility.yul\":23584:23599   */\n      revert\n        /* \"#utility.yul\":23611:23791   */\n    tag_511:\n        /* \"#utility.yul\":23659:23736   */\n      0x4e487b7100000000000000000000000000000000000000000000000000000000\n        /* \"#utility.yul\":23656:23657   */\n      0x00\n        /* \"#utility.yul\":23649:23737   */\n      mstore\n        /* \"#utility.yul\":23756:23760   */\n      0x41\n        /* \"#utility.yul\":23753:23754   */\n      0x04\n        /* \"#utility.yul\":23746:23761   */\n      mstore\n        /* \"#utility.yul\":23780:23784   */\n      0x24\n        /* \"#utility.yul\":23777:23778   */\n      0x00\n        /* \"#utility.yul\":23770:23785   */\n      revert\n        /* \"#utility.yul\":23797:23914   */\n    tag_316:\n        /* \"#utility.yul\":23906:23907   */\n      0x00\n        /* \"#utility.yul\":23903:23904   */\n      dup1\n        /* \"#utility.yul\":23896:23908   */\n      revert\n        /* \"#utility.yul\":23920:24037   */\n    tag_291:\n        /* \"#utility.yul\":24029:24030   */\n      0x00\n        /* \"#utility.yul\":24026:24027   */\n      dup1\n        /* \"#utility.yul\":24019:24031   */\n      revert\n        /* \"#utility.yul\":24043:24160   */\n    tag_352:\n        /* \"#utility.yul\":24152:24153   */\n      0x00\n        /* \"#utility.yul\":24149:24150   */\n      dup1\n        /* \"#utility.yul\":24142:24154   */\n      revert\n        /* \"#utility.yul\":24166:24283   */\n    tag_329:\n        /* \"#utility.yul\":24275:24276   */\n      0x00\n        /* \"#utility.yul\":24272:24273   */\n      dup1\n        /* \"#utility.yul\":24265:24277   */\n      revert\n        /* \"#utility.yul\":24289:24391   */\n    tag_378:\n        /* \"#utility.yul\":24330:24336   */\n      0x00\n        /* \"#utility.yul\":24381:24383   */\n      0x1f\n        /* \"#utility.yul\":24377:24384   */\n      not\n        /* \"#utility.yul\":24372:24374   */\n      0x1f\n        /* \"#utility.yul\":24365:24370   */\n      dup4\n        /* \"#utility.yul\":24361:24375   */\n      add\n        /* \"#utility.yul\":24357:24385   */\n      and\n        /* \"#utility.yul\":24347:24385   */\n      swap1\n      pop\n        /* \"#utility.yul\":24289:24391   */\n      swap2\n      swap1\n      pop\n      jump\t// out\n        /* \"#utility.yul\":24397:24619   */\n    tag_383:\n        /* \"#utility.yul\":24537:24571   */\n      0x45524332303a207472616e7366657220746f20746865207a65726f2061646472\n        /* \"#utility.yul\":24533:24534   */\n      0x00\n        /* \"#utility.yul\":24525:24531   */\n      dup3\n        /* \"#utility.yul\":24521:24535   */\n      add\n        /* \"#utility.yul\":24514:24572   */\n      mstore\n        /* \"#utility.yul\":24606:24611   */\n      0x6573730000000000000000000000000000000000000000000000000000000000\n        /* \"#utility.yul\":24601:24603   */\n      0x20\n        /* \"#utility.yul\":24593:24599   */\n      dup3\n        /* \"#utility.yul\":24589:24604   */\n      add\n        /* \"#utility.yul\":24582:24612   */\n      mstore\n        /* \"#utility.yul\":24397:24619   */\n      pop\n      jump\t// out\n        /* \"#utility.yul\":24625:24795   */\n    tag_388:\n        /* \"#utility.yul\":24765:24787   */\n      0x5061757361626c653a206e6f7420706175736564000000000000000000000000\n        /* \"#utility.yul\":24761:24762   */\n      0x00\n        /* \"#utility.yul\":24753:24759   */\n      dup3\n        /* \"#utility.yul\":24749:24763   */\n      add\n        /* \"#utility.yul\":24742:24788   */\n      mstore\n        /* \"#utility.yul\":24625:24795   */\n      pop\n      jump\t// out\n        /* \"#utility.yul\":24801:25022   */\n    tag_393:\n        /* \"#utility.yul\":24941:24975   */\n      0x45524332303a206275726e20616d6f756e7420657863656564732062616c616e\n        /* \"#utility.yul\":24937:24938   */\n      0x00\n        /* \"#utility.yul\":24929:24935   */\n      dup3\n        /* \"#utility.yul\":24925:24939   */\n      add\n        /* \"#utility.yul\":24918:24976   */\n      mstore\n        /* \"#utility.yul\":25010:25014   */\n      0x6365000000000000000000000000000000000000000000000000000000000000\n        /* \"#utility.yul\":25005:25007   */\n      0x20\n        /* \"#utility.yul\":24997:25003   */\n      dup3\n        /* \"#utility.yul\":24993:25008   */\n      add\n        /* \"#utility.yul\":24986:25015   */\n      mstore\n        /* \"#utility.yul\":24801:25022   */\n      pop\n      jump\t// out\n        /* \"#utility.yul\":25028:25253   */\n    tag_398:\n        /* \"#utility.yul\":25168:25202   */\n      0x4f776e61626c653a206e6577206f776e657220697320746865207a65726f2061\n        /* \"#utility.yul\":25164:25165   */\n      0x00\n        /* \"#utility.yul\":25156:25162   */\n      dup3\n        /* \"#utility.yul\":25152:25166   */\n      add\n        /* \"#utility.yul\":25145:25203   */\n      mstore\n        /* \"#utility.yul\":25237:25245   */\n      0x6464726573730000000000000000000000000000000000000000000000000000\n        /* \"#utility.yul\":25232:25234   */\n      0x20\n        /* \"#utility.yul\":25224:25230   */\n      dup3\n        /* \"#utility.yul\":25220:25235   */\n      add\n        /* \"#utility.yul\":25213:25246   */\n      mstore\n        /* \"#utility.yul\":25028:25253   */\n      pop\n      jump\t// out\n        /* \"#utility.yul\":25259:25480   */\n    tag_403:\n        /* \"#utility.yul\":25399:25433   */\n      0x45524332303a20617070726f766520746f20746865207a65726f206164647265\n        /* \"#utility.yul\":25395:25396   */\n      0x00\n        /* \"#utility.yul\":25387:25393   */\n      dup3\n        /* \"#utility.yul\":25383:25397   */\n      add\n        /* \"#utility.yul\":25376:25434   */\n      mstore\n        /* \"#utility.yul\":25468:25472   */\n      0x7373000000000000000000000000000000000000000000000000000000000000\n        /* \"#utility.yul\":25463:25465   */\n      0x20\n        /* \"#utility.yul\":25455:25461   */\n      dup3\n        /* \"#utility.yul\":25451:25466   */\n      add\n        /* \"#utility.yul\":25444:25473   */\n      mstore\n        /* \"#utility.yul\":25259:25480   */\n      pop\n      jump\t// out\n        /* \"#utility.yul\":25486:25711   */\n    tag_408:\n        /* \"#utility.yul\":25626:25660   */\n      0x45524332303a207472616e7366657220616d6f756e7420657863656564732062\n        /* \"#utility.yul\":25622:25623   */\n      0x00\n        /* \"#utility.yul\":25614:25620   */\n      dup3\n        /* \"#utility.yul\":25610:25624   */\n      add\n        /* \"#utility.yul\":25603:25661   */\n      mstore\n        /* \"#utility.yul\":25695:25703   */\n      0x616c616e63650000000000000000000000000000000000000000000000000000\n        /* \"#utility.yul\":25690:25692   */\n      0x20\n        /* \"#utility.yul\":25682:25688   */\n      dup3\n        /* \"#utility.yul\":25678:25693   */\n      add\n        /* \"#utility.yul\":25671:25704   */\n      mstore\n        /* \"#utility.yul\":25486:25711   */\n      pop\n      jump\t// out\n        /* \"#utility.yul\":25717:25886   */\n    tag_413:\n        /* \"#utility.yul\":25857:25878   */\n      0x546f6f206d616e7920726563697069656e747300000000000000000000000000\n        /* \"#utility.yul\":25853:25854   */\n      0x00\n        /* \"#utility.yul\":25845:25851   */\n      dup3\n        /* \"#utility.yul\":25841:25855   */\n      add\n        /* \"#utility.yul\":25834:25879   */\n      mstore\n        /* \"#utility.yul\":25717:25886   */\n      pop\n      jump\t// out\n        /* \"#utility.yul\":25892:26058   */\n    tag_418:\n        /* \"#utility.yul\":26032:26050   */\n      0x5061757361626c653a2070617573656400000000000000000000000000000000\n        /* \"#utility.yul\":26028:26029   */\n      0x00\n        /* \"#utility.yul\":26020:26026   */\n      dup3\n        /* \"#utility.yul\":26016:26030   */\n      add\n        /* \"#utility.yul\":26009:26051   */\n      mstore\n        /* \"#utility.yul\":25892:26058   */\n      pop\n      jump\t// out\n        /* \"#utility.yul\":26064:26291   */\n    tag_423:\n        /* \"#utility.yul\":26204:26238   */\n      0x45524332303a207472616e7366657220616d6f756e7420657863656564732061\n        /* \"#utility.yul\":26200:26201   */\n      0x00\n        /* \"#utility.yul\":26192:26198   */\n      dup3\n        /* \"#utility.yul\":26188:26202   */\n      add\n        /* \"#utility.yul\":26181:26239   */\n      mstore\n        /* \"#utility.yul\":26273:26283   */\n      0x6c6c6f77616e6365000000000000000000000000000000000000000000000000\n        /* \"#utility.yul\":26268:26270   */\n      0x20\n        /* \"#utility.yul\":26260:26266   */\n      dup3\n        /* \"#utility.yul\":26256:26271   */\n      add\n        /* \"#utility.yul\":26249:26284   */\n      mstore\n        /* \"#utility.yul\":26064:26291   */\n      pop\n      jump\t// out\n        /* \"#utility.yul\":26297:26479   */\n    tag_428:\n        /* \"#utility.yul\":26437:26471   */\n      0x4f776e61626c653a2063616c6c6572206973206e6f7420746865206f776e6572\n        /* \"#utility.yul\":26433:26434   */\n      0x00\n        /* \"#utility.yul\":26425:26431   */\n      dup3\n        /* \"#utility.yul\":26421:26435   */\n      add\n        /* \"#utility.yul\":26414:26472   */\n      mstore\n        /* \"#utility.yul\":26297:26479   */\n      pop\n      jump\t// out\n        /* \"#utility.yul\":26485:26708   */\n    tag_433:\n        /* \"#utility.yul\":26625:26659   */\n      0x45524332303a206275726e20616d6f756e74206578636565647320616c6c6f77\n        /* \"#utility.yul\":26621:26622   */\n      0x00\n        /* \"#utility.yul\":26613:26619   */\n      dup3\n        /* \"#utility.yul\":26609:26623   */\n      add\n        /* \"#utility.yul\":26602:26660   */\n      mstore\n        /* \"#utility.yul\":26694:26700   */\n      0x616e636500000000000000000000000000000000000000000000000000000000\n        /* \"#utility.yul\":26689:26691   */\n      0x20\n        /* \"#utility.yul\":26681:26687   */\n      dup3\n        /* \"#utility.yul\":26677:26692   */\n      add\n        /* \"#utility.yul\":26670:26701   */\n      mstore\n        /* \"#utility.yul\":26485:26708   */\n      pop\n      jump\t// out\n        /* \"#utility.yul\":26714:26934   */\n    tag_438:\n        /* \"#utility.yul\":26854:26888   */\n      0x45524332303a206275726e2066726f6d20746865207a65726f20616464726573\n        /* \"#utility.yul\":26850:26851   */\n      0x00\n        /* \"#utility.yul\":26842:26848   */\n      dup3\n        /* \"#utility.yul\":26838:26852   */\n      add\n        /* \"#utility.yul\":26831:26889   */\n      mstore\n        /* \"#utility.yul\":26923:26926   */\n      0x7300000000000000000000000000000000000000000000000000000000000000\n        /* \"#utility.yul\":26918:26920   */\n      0x20\n        /* \"#utility.yul\":26910:26916   */\n      dup3\n        /* \"#utility.yul\":26906:26921   */\n      add\n        /* \"#utility.yul\":26899:26927   */\n      mstore\n        /* \"#utility.yul\":26714:26934   */\n      pop\n      jump\t// out\n        /* \"#utility.yul\":26940:27164   */\n    tag_443:\n        /* \"#utility.yul\":27080:27114   */\n      0x45524332303a207472616e736665722066726f6d20746865207a65726f206164\n        /* \"#utility.yul\":27076:27077   */\n      0x00\n        /* \"#utility.yul\":27068:27074   */\n      dup3\n        /* \"#utility.yul\":27064:27078   */\n      add\n        /* \"#utility.yul\":27057:27115   */\n      mstore\n        /* \"#utility.yul\":27149:27156   */\n      0x6472657373000000000000000000000000000000000000000000000000000000\n        /* \"#utility.yul\":27144:27146   */\n      0x20\n        /* \"#utility.yul\":27136:27142   */\n      dup3\n        /* \"#utility.yul\":27132:27147   */\n      add\n        /* \"#utility.yul\":27125:27157   */\n      mstore\n        /* \"#utility.yul\":26940:27164   */\n      pop\n      jump\t// out\n        /* \"#utility.yul\":27170:27393   */\n    tag_448:\n        /* \"#utility.yul\":27310:27344   */\n      0x45524332303a20617070726f76652066726f6d20746865207a65726f20616464\n        /* \"#utility.yul\":27306:27307   */\n      0x00\n        /* \"#utility.yul\":27298:27304   */\n      dup3\n        /* \"#utility.yul\":27294:27308   */\n      add\n        /* \"#utility.yul\":27287:27345   */\n      mstore\n        /* \"#utility.yul\":27379:27385   */\n      0x7265737300000000000000000000000000000000000000000000000000000000\n        /* \"#utility.yul\":27374:27376   */\n      0x20\n        /* \"#utility.yul\":27366:27372   */\n      dup3\n        /* \"#utility.yul\":27362:27377   */\n      add\n        /* \"#utility.yul\":27355:27386   */\n      mstore\n        /* \"#utility.yul\":27170:27393   */\n      pop\n      jump\t// out\n        /* \"#utility.yul\":27399:27623   */\n    tag_453:\n        /* \"#utility.yul\":27539:27573   */\n      0x45524332303a2064656372656173656420616c6c6f77616e63652062656c6f77\n        /* \"#utility.yul\":27535:27536   */\n      0x00\n        /* \"#utility.yul\":27527:27533   */\n      dup3\n        /* \"#utility.yul\":27523:27537   */\n      add\n        /* \"#utility.yul\":27516:27574   */\n      mstore\n        /* \"#utility.yul\":27608:27615   */\n      0x207a65726f000000000000000000000000000000000000000000000000000000\n        /* \"#utility.yul\":27603:27605   */\n      0x20\n        /* \"#utility.yul\":27595:27601   */\n      dup3\n        /* \"#utility.yul\":27591:27606   */\n      add\n        /* \"#utility.yul\":27584:27616   */\n      mstore\n        /* \"#utility.yul\":27399:27623   */\n      pop\n      jump\t// out\n        /* \"#utility.yul\":27629:27751   */\n    tag_311:\n        /* \"#utility.yul\":27702:27726   */\n      tag_578\n        /* \"#utility.yul\":27720:27725   */\n      dup2\n        /* \"#utility.yul\":27702:27726   */\n      tag_364\n      jump\t// in\n    tag_578:\n        /* \"#utility.yul\":27695:27700   */\n      dup2\n        /* \"#utility.yul\":27692:27727   */\n      eq\n        /* \"#utility.yul\":27682:27745   */\n      tag_579\n      jumpi\n        /* \"#utility.yul\":27741:27742   */\n      0x00\n        /* \"#utility.yul\":27738:27739   */\n      dup1\n        /* \"#utility.yul\":27731:27743   */\n      revert\n        /* \"#utility.yul\":27682:27745   */\n    tag_579:\n        /* \"#utility.yul\":27629:27751   */\n      pop\n      jump\t// out\n        /* \"#utility.yul\":27757:27879   */\n    tag_325:\n        /* \"#utility.yul\":27830:27854   */\n      tag_581\n        /* \"#utility.yul\":27848:27853   */\n      dup2\n        /* \"#utility.yul\":27830:27854   */\n      tag_457\n      jump\t// in\n    tag_581:\n        /* \"#utility.yul\":27823:27828   */\n      dup2\n        /* \"#utility.yul\":27820:27855   */\n      eq\n        /* \"#utility.yul\":27810:27873   */\n      tag_582\n      jumpi\n        /* \"#utility.yul\":27869:27870   */\n      0x00\n        /* \"#utility.yul\":27866:27867   */\n      dup1\n        /* \"#utility.yul\":27859:27871   */\n      revert\n        /* \"#utility.yul\":27810:27873   */\n    tag_582:\n        /* \"#utility.yul\":27757:27879   */\n      pop\n      jump\t// out\n\n    auxdata: 0xa264697066735822122003ebe8903620a68b6e492cfef86789fa7874265f81fea287597d06920312ade264736f6c63430008070033\n}\n",
				"bytecode": {
					"linkReferences": {},
					"object": "60806040523480156200001157600080fd5b506040518060400160405280600881526020017f505643204d4554410000000000000000000000000000000000000000000000008152506040518060400160405280600381526020017f505643000000000000000000000000000000000000000000000000000000000081525081600390805190602001906200009692919062000414565b508060049080519060200190620000af92919062000414565b5050506000600560006101000a81548160ff021916908315150217905550620000ed620000e16200013360201b60201c565b6200013b60201b60201c565b6200012d33620001026200020160201b60201c565b600a6200011091906200064d565b6359682f006200012191906200078a565b6200020a60201b60201c565b620008f5565b600033905090565b6000600560019054906101000a900473ffffffffffffffffffffffffffffffffffffffff16905081600560016101000a81548173ffffffffffffffffffffffffffffffffffffffff021916908373ffffffffffffffffffffffffffffffffffffffff1602179055508173ffffffffffffffffffffffffffffffffffffffff168173ffffffffffffffffffffffffffffffffffffffff167f8be0079c531659141344cd1fd0a4f28419497f9722a3daafe3b4186f6b6457e060405160405180910390a35050565b60006009905090565b600073ffffffffffffffffffffffffffffffffffffffff168273ffffffffffffffffffffffffffffffffffffffff1614156200027d576040517f08c379a0000000000000000000000000000000000000000000000000000000008152600401620002749062000545565b60405180910390fd5b62000291600083836200038360201b60201c565b8060026000828254620002a5919062000595565b92505081905550806000808473ffffffffffffffffffffffffffffffffffffffff1673ffffffffffffffffffffffffffffffffffffffff1681526020019081526020016000206000828254620002fc919062000595565b925050819055508173ffffffffffffffffffffffffffffffffffffffff16600073ffffffffffffffffffffffffffffffffffffffff167fddf252ad1be2c89b69c2b068fc378daa952ba7f163c4a11628f55a4df523b3ef8360405162000363919062000567565b60405180910390a36200037f60008383620003f360201b60201c565b5050565b62000393620003f860201b60201c565b15620003d6576040517f08c379a0000000000000000000000000000000000000000000000000000000008152600401620003cd9062000523565b60405180910390fd5b620003ee8383836200040f60201b62000d351760201c565b505050565b505050565b6000600560009054906101000a900460ff16905090565b505050565b828054620004229062000802565b90600052602060002090601f01602090048101928262000446576000855562000492565b82601f106200046157805160ff191683800117855562000492565b8280016001018555821562000492579182015b828111156200049157825182559160200191906001019062000474565b5b509050620004a19190620004a5565b5090565b5b80821115620004c0576000816000905550600101620004a6565b5090565b6000620004d360108362000584565b9150620004e082620008a3565b602082019050919050565b6000620004fa601f8362000584565b91506200050782620008cc565b602082019050919050565b6200051d81620007eb565b82525050565b600060208201905081810360008301526200053e81620004c4565b9050919050565b600060208201905081810360008301526200056081620004eb565b9050919050565b60006020820190506200057e600083018462000512565b92915050565b600082825260208201905092915050565b6000620005a282620007eb565b9150620005af83620007eb565b9250827fffffffffffffffffffffffffffffffffffffffffffffffffffffffffffffffff03821115620005e757620005e662000838565b5b828201905092915050565b6000808291508390505b600185111562000644578086048111156200061c576200061b62000838565b5b60018516156200062c5780820291505b80810290506200063c8562000896565b9450620005fc565b94509492505050565b60006200065a82620007eb565b91506200066783620007f5565b9250620006967fffffffffffffffffffffffffffffffffffffffffffffffffffffffffffffffff84846200069e565b905092915050565b600082620006b0576001905062000783565b81620006c0576000905062000783565b8160018114620006d95760028114620006e4576200071a565b600191505062000783565b60ff841115620006f957620006f862000838565b5b8360020a91508482111562000713576200071262000838565b5b5062000783565b5060208310610133831016604e8410600b8410161715620007545782820a9050838111156200074e576200074d62000838565b5b62000783565b620007638484846001620005f2565b925090508184048111156200077d576200077c62000838565b5b81810290505b9392505050565b60006200079782620007eb565b9150620007a483620007eb565b9250817fffffffffffffffffffffffffffffffffffffffffffffffffffffffffffffffff0483118215151615620007e057620007df62000838565b5b828202905092915050565b6000819050919050565b600060ff82169050919050565b600060028204905060018216806200081b57607f821691505b6020821081141562000832576200083162000867565b5b50919050565b7f4e487b7100000000000000000000000000000000000000000000000000000000600052601160045260246000fd5b7f4e487b7100000000000000000000000000000000000000000000000000000000600052602260045260246000fd5b60008160011c9050919050565b7f5061757361626c653a2070617573656400000000000000000000000000000000600082015250565b7f45524332303a206d696e7420746f20746865207a65726f206164647265737300600082015250565b61256d80620009056000396000f3fe608060405234801561001057600080fd5b506004361061012c5760003560e01c8063715018a6116100ad578063a457c2d711610071578063a457c2d7146102fb578063a9059cbb1461032b578063a972f6731461035b578063dd62ed3e1461038b578063f2fde38b146103bb5761012c565b8063715018a61461028f57806379cc6790146102995780638456cb59146102b55780638da5cb5b146102bf57806395d89b41146102dd5761012c565b806339509351116100f457806339509351146101eb5780633f4ba83a1461021b57806342966c68146102255780635c975abb1461024157806370a082311461025f5761012c565b806306fdde0314610131578063095ea7b31461014f57806318160ddd1461017f57806323b872dd1461019d578063313ce567146101cd575b600080fd5b6101396103d7565b6040516101469190611b90565b60405180910390f35b610169600480360381019061016491906117f3565b610469565b6040516101769190611b75565b60405180910390f35b610187610487565b6040516101949190611d92565b60405180910390f35b6101b760048036038101906101b291906117a0565b610491565b6040516101c49190611b75565b60405180910390f35b6101d5610589565b6040516101e29190611dad565b60405180910390f35b610205600480360381019061020091906117f3565b610592565b6040516102129190611b75565b60405180910390f35b61022361063e565b005b61023f600480360381019061023a91906118ab565b6106c4565b005b6102496106d8565b6040516102569190611b75565b60405180910390f35b61027960048036038101906102749190611733565b6106ef565b6040516102869190611d92565b60405180910390f35b610297610737565b005b6102b360048036038101906102ae91906117f3565b6107bf565b005b6102bd61083a565b005b6102c76108c0565b6040516102d49190611b5a565b60405180910390f35b6102e56108ea565b6040516102f29190611b90565b60405180910390f35b610315600480360381019061031091906117f3565b61097c565b6040516103229190611b75565b60405180910390f35b610345600480360381019061034091906117f3565b610a67565b6040516103529190611b75565b60405180910390f35b61037560048036038101906103709190611833565b610a85565b6040516103829190611b75565b60405180910390f35b6103a560048036038101906103a09190611760565b610bb6565b6040516103b29190611d92565b60405180910390f35b6103d560048036038101906103d09190611733565b610c3d565b005b6060600380546103e690611f73565b80601f016020809104026020016040519081016040528092919081815260200182805461041290611f73565b801561045f5780601f106104345761010080835404028352916020019161045f565b820191906000526020600020905b81548152906001019060200180831161044257829003601f168201915b5050505050905090565b600061047d610476610d3a565b8484610d42565b6001905092915050565b6000600254905090565b600061049e848484610f0d565b6000600160008673ffffffffffffffffffffffffffffffffffffffff1673ffffffffffffffffffffffffffffffffffffffff16815260200190815260200160002060006104e9610d3a565b73ffffffffffffffffffffffffffffffffffffffff1673ffffffffffffffffffffffffffffffffffffffff16815260200190815260200160002054905082811015610569576040517f08c379a000000000000000000000000000000000000000000000000000000000815260040161056090611cb2565b60405180910390fd5b61057d85610575610d3a565b858403610d42565b60019150509392505050565b60006009905090565b600061063461059f610d3a565b8484600160006105ad610d3a565b73ffffffffffffffffffffffffffffffffffffffff1673ffffffffffffffffffffffffffffffffffffffff16815260200190815260200160002060008873ffffffffffffffffffffffffffffffffffffffff1673ffffffffffffffffffffffffffffffffffffffff1681526020019081526020016000205461062f9190611e61565b610d42565b6001905092915050565b610646610d3a565b73ffffffffffffffffffffffffffffffffffffffff166106646108c0565b73ffffffffffffffffffffffffffffffffffffffff16146106ba576040517f08c379a00000000000000000000000000000000000000000000000000000000081526004016106b190611cd2565b60405180910390fd5b6106c261118e565b565b6106d56106cf610d3a565b82611230565b50565b6000600560009054906101000a900460ff16905090565b60008060008373ffffffffffffffffffffffffffffffffffffffff1673ffffffffffffffffffffffffffffffffffffffff168152602001908152602001600020549050919050565b61073f610d3a565b73ffffffffffffffffffffffffffffffffffffffff1661075d6108c0565b73ffffffffffffffffffffffffffffffffffffffff16146107b3576040517f08c379a00000000000000000000000000000000000000000000000000000000081526004016107aa90611cd2565b60405180910390fd5b6107bd6000611407565b565b60006107d2836107cd610d3a565b610bb6565b905081811015610817576040517f08c379a000000000000000000000000000000000000000000000000000000000815260040161080e90611cf2565b60405180910390fd5b61082b83610823610d3a565b848403610d42565b6108358383611230565b505050565b610842610d3a565b73ffffffffffffffffffffffffffffffffffffffff166108606108c0565b73ffffffffffffffffffffffffffffffffffffffff16146108b6576040517f08c379a00000000000000000000000000000000000000000000000000000000081526004016108ad90611cd2565b60405180910390fd5b6108be6114cd565b565b6000600560019054906101000a900473ffffffffffffffffffffffffffffffffffffffff16905090565b6060600480546108f990611f73565b80601f016020809104026020016040519081016040528092919081815260200182805461092590611f73565b80156109725780601f1061094757610100808354040283529160200191610972565b820191906000526020600020905b81548152906001019060200180831161095557829003601f168201915b5050505050905090565b6000806001600061098b610d3a565b73ffffffffffffffffffffffffffffffffffffffff1673ffffffffffffffffffffffffffffffffffffffff16815260200190815260200160002060008573ffffffffffffffffffffffffffffffffffffffff1673ffffffffffffffffffffffffffffffffffffffff16815260200190815260200160002054905082811015610a48576040517f08c379a0000000000000000000000000000000000000000000000000000000008152600401610a3f90611d72565b60405180910390fd5b610a5c610a53610d3a565b85858403610d42565b600191505092915050565b6000610a7b610a74610d3a565b8484610f0d565b6001905092915050565b6000610a8f610d3a565b73ffffffffffffffffffffffffffffffffffffffff16610aad6108c0565b73ffffffffffffffffffffffffffffffffffffffff1614610b03576040517f08c379a0000000000000000000000000000000000000000000000000000000008152600401610afa90611cd2565b60405180910390fd5b6000835190506096811115610b4d576040517f08c379a0000000000000000000000000000000000000000000000000000000008152600401610b4490611c72565b60405180910390fd5b60005b81811015610baa57610b96858281518110610b6e57610b6d61207d565b5b6020026020010151858381518110610b8957610b8861207d565b5b6020026020010151610a67565b508080610ba290611fd6565b915050610b50565b50600191505092915050565b6000600160008473ffffffffffffffffffffffffffffffffffffffff1673ffffffffffffffffffffffffffffffffffffffff16815260200190815260200160002060008373ffffffffffffffffffffffffffffffffffffffff1673ffffffffffffffffffffffffffffffffffffffff16815260200190815260200160002054905092915050565b610c45610d3a565b73ffffffffffffffffffffffffffffffffffffffff16610c636108c0565b73ffffffffffffffffffffffffffffffffffffffff1614610cb9576040517f08c379a0000000000000000000000000000000000000000000000000000000008152600401610cb090611cd2565b60405180910390fd5b600073ffffffffffffffffffffffffffffffffffffffff168173ffffffffffffffffffffffffffffffffffffffff161415610d29576040517f08c379a0000000000000000000000000000000000000000000000000000000008152600401610d2090611c12565b60405180910390fd5b610d3281611407565b50565b505050565b600033905090565b600073ffffffffffffffffffffffffffffffffffffffff168373ffffffffffffffffffffffffffffffffffffffff161415610db2576040517f08c379a0000000000000000000000000000000000000000000000000000000008152600401610da990611d52565b60405180910390fd5b600073ffffffffffffffffffffffffffffffffffffffff168273ffffffffffffffffffffffffffffffffffffffff161415610e22576040517f08c379a0000000000000000000000000000000000000000000000000000000008152600401610e1990611c32565b60405180910390fd5b80600160008573ffffffffffffffffffffffffffffffffffffffff1673ffffffffffffffffffffffffffffffffffffffff16815260200190815260200160002060008473ffffffffffffffffffffffffffffffffffffffff1673ffffffffffffffffffffffffffffffffffffffff168152602001908152602001600020819055508173ffffffffffffffffffffffffffffffffffffffff168373ffffffffffffffffffffffffffffffffffffffff167f8c5be1e5ebec7d5bd14f71427d1e84f3dd0314c0f7b2291e5b200ac8c7c3b92583604051610f009190611d92565b60405180910390a3505050565b600073ffffffffffffffffffffffffffffffffffffffff168373ffffffffffffffffffffffffffffffffffffffff161415610f7d576040517f08c379a0000000000000000000000000000000000000000000000000000000008152600401610f7490611d32565b60405180910390fd5b600073ffffffffffffffffffffffffffffffffffffffff168273ffffffffffffffffffffffffffffffffffffffff161415610fed576040517f08c379a0000000000000000000000000000000000000000000000000000000008152600401610fe490611bb2565b60405180910390fd5b610ff8838383611570565b60008060008573ffffffffffffffffffffffffffffffffffffffff1673ffffffffffffffffffffffffffffffffffffffff1681526020019081526020016000205490508181101561107e576040517f08c379a000000000000000000000000000000000000000000000000000000000815260040161107590611c52565b60405180910390fd5b8181036000808673ffffffffffffffffffffffffffffffffffffffff1673ffffffffffffffffffffffffffffffffffffffff16815260200190815260200160002081905550816000808573ffffffffffffffffffffffffffffffffffffffff1673ffffffffffffffffffffffffffffffffffffffff16815260200190815260200160002060008282546111119190611e61565b925050819055508273ffffffffffffffffffffffffffffffffffffffff168473ffffffffffffffffffffffffffffffffffffffff167fddf252ad1be2c89b69c2b068fc378daa952ba7f163c4a11628f55a4df523b3ef846040516111759190611d92565b60405180910390a36111888484846115c8565b50505050565b6111966106d8565b6111d5576040517f08c379a00000000000000000000000000000000000000000000000000000000081526004016111cc90611bd2565b60405180910390fd5b6000600560006101000a81548160ff0219169083151502179055507f5db9ee0a495bf2e6ff9c91a7834c1ba4fdd244a5e8aa4e537bd38aeae4b073aa611219610d3a565b6040516112269190611b5a565b60405180910390a1565b600073ffffffffffffffffffffffffffffffffffffffff168273ffffffffffffffffffffffffffffffffffffffff1614156112a0576040517f08c379a000000000000000000000000000000000000000000000000000000000815260040161129790611d12565b60405180910390fd5b6112ac82600083611570565b60008060008473ffffffffffffffffffffffffffffffffffffffff1673ffffffffffffffffffffffffffffffffffffffff16815260200190815260200160002054905081811015611332576040517f08c379a000000000000000000000000000000000000000000000000000000000815260040161132990611bf2565b60405180910390fd5b8181036000808573ffffffffffffffffffffffffffffffffffffffff1673ffffffffffffffffffffffffffffffffffffffff1681526020019081526020016000208190555081600260008282546113899190611eb7565b92505081905550600073ffffffffffffffffffffffffffffffffffffffff168373ffffffffffffffffffffffffffffffffffffffff167fddf252ad1be2c89b69c2b068fc378daa952ba7f163c4a11628f55a4df523b3ef846040516113ee9190611d92565b60405180910390a3611402836000846115c8565b505050565b6000600560019054906101000a900473ffffffffffffffffffffffffffffffffffffffff16905081600560016101000a81548173ffffffffffffffffffffffffffffffffffffffff021916908373ffffffffffffffffffffffffffffffffffffffff1602179055508173ffffffffffffffffffffffffffffffffffffffff168173ffffffffffffffffffffffffffffffffffffffff167f8be0079c531659141344cd1fd0a4f28419497f9722a3daafe3b4186f6b6457e060405160405180910390a35050565b6114d56106d8565b15611515576040517f08c379a000000000000000000000000000000000000000000000000000000000815260040161150c90611c92565b60405180910390fd5b6001600560006101000a81548160ff0219169083151502179055507f62e78cea01bee320cd4e420270b5ea74000d11b0c9f74754ebdbfc544b05a258611559610d3a565b6040516115669190611b5a565b60405180910390a1565b6115786106d8565b156115b8576040517f08c379a00000000000000000000000000000000000000000000000000000000081526004016115af90611c92565b60405180910390fd5b6115c3838383610d35565b505050565b505050565b60006115e06115db84611ded565b611dc8565b90508083825260208201905082856020860282011115611603576116026120e0565b5b60005b85811015611633578161161988826116ad565b845260208401935060208301925050600181019050611606565b5050509392505050565b600061165061164b84611e19565b611dc8565b90508083825260208201905082856020860282011115611673576116726120e0565b5b60005b858110156116a35781611689888261171e565b845260208401935060208301925050600181019050611676565b5050509392505050565b6000813590506116bc81612509565b92915050565b600082601f8301126116d7576116d66120db565b5b81356116e78482602086016115cd565b91505092915050565b600082601f830112611705576117046120db565b5b813561171584826020860161163d565b91505092915050565b60008135905061172d81612520565b92915050565b600060208284031215611749576117486120ea565b5b6000611757848285016116ad565b91505092915050565b60008060408385031215611777576117766120ea565b5b6000611785858286016116ad565b9250506020611796858286016116ad565b9150509250929050565b6000806000606084860312156117b9576117b86120ea565b5b60006117c7868287016116ad565b93505060206117d8868287016116ad565b92505060406117e98682870161171e565b9150509250925092565b6000806040838503121561180a576118096120ea565b5b6000611818858286016116ad565b92505060206118298582860161171e565b9150509250929050565b6000806040838503121561184a576118496120ea565b5b600083013567ffffffffffffffff811115611868576118676120e5565b5b611874858286016116c2565b925050602083013567ffffffffffffffff811115611895576118946120e5565b5b6118a1858286016116f0565b9150509250929050565b6000602082840312156118c1576118c06120ea565b5b60006118cf8482850161171e565b91505092915050565b6118e181611eeb565b82525050565b6118f081611efd565b82525050565b600061190182611e45565b61190b8185611e50565b935061191b818560208601611f40565b611924816120ef565b840191505092915050565b600061193c602383611e50565b915061194782612100565b604082019050919050565b600061195f601483611e50565b915061196a8261214f565b602082019050919050565b6000611982602283611e50565b915061198d82612178565b604082019050919050565b60006119a5602683611e50565b91506119b0826121c7565b604082019050919050565b60006119c8602283611e50565b91506119d382612216565b604082019050919050565b60006119eb602683611e50565b91506119f682612265565b604082019050919050565b6000611a0e601383611e50565b9150611a19826122b4565b602082019050919050565b6000611a31601083611e50565b9150611a3c826122dd565b602082019050919050565b6000611a54602883611e50565b9150611a5f82612306565b604082019050919050565b6000611a77602083611e50565b9150611a8282612355565b602082019050919050565b6000611a9a602483611e50565b9150611aa58261237e565b604082019050919050565b6000611abd602183611e50565b9150611ac8826123cd565b604082019050919050565b6000611ae0602583611e50565b9150611aeb8261241c565b604082019050919050565b6000611b03602483611e50565b9150611b0e8261246b565b604082019050919050565b6000611b26602583611e50565b9150611b31826124ba565b604082019050919050565b611b4581611f29565b82525050565b611b5481611f33565b82525050565b6000602082019050611b6f60008301846118d8565b92915050565b6000602082019050611b8a60008301846118e7565b92915050565b60006020820190508181036000830152611baa81846118f6565b905092915050565b60006020820190508181036000830152611bcb8161192f565b9050919050565b60006020820190508181036000830152611beb81611952565b9050919050565b60006020820190508181036000830152611c0b81611975565b9050919050565b60006020820190508181036000830152611c2b81611998565b9050919050565b60006020820190508181036000830152611c4b816119bb565b9050919050565b60006020820190508181036000830152611c6b816119de565b9050919050565b60006020820190508181036000830152611c8b81611a01565b9050919050565b60006020820190508181036000830152611cab81611a24565b9050919050565b60006020820190508181036000830152611ccb81611a47565b9050919050565b60006020820190508181036000830152611ceb81611a6a565b9050919050565b60006020820190508181036000830152611d0b81611a8d565b9050919050565b60006020820190508181036000830152611d2b81611ab0565b9050919050565b60006020820190508181036000830152611d4b81611ad3565b9050919050565b60006020820190508181036000830152611d6b81611af6565b9050919050565b60006020820190508181036000830152611d8b81611b19565b9050919050565b6000602082019050611da76000830184611b3c565b92915050565b6000602082019050611dc26000830184611b4b565b92915050565b6000611dd2611de3565b9050611dde8282611fa5565b919050565b6000604051905090565b600067ffffffffffffffff821115611e0857611e076120ac565b5b602082029050602081019050919050565b600067ffffffffffffffff821115611e3457611e336120ac565b5b602082029050602081019050919050565b600081519050919050565b600082825260208201905092915050565b6000611e6c82611f29565b9150611e7783611f29565b9250827fffffffffffffffffffffffffffffffffffffffffffffffffffffffffffffffff03821115611eac57611eab61201f565b5b828201905092915050565b6000611ec282611f29565b9150611ecd83611f29565b925082821015611ee057611edf61201f565b5b828203905092915050565b6000611ef682611f09565b9050919050565b60008115159050919050565b600073ffffffffffffffffffffffffffffffffffffffff82169050919050565b6000819050919050565b600060ff82169050919050565b60005b83811015611f5e578082015181840152602081019050611f43565b83811115611f6d576000848401525b50505050565b60006002820490506001821680611f8b57607f821691505b60208210811415611f9f57611f9e61204e565b5b50919050565b611fae826120ef565b810181811067ffffffffffffffff82111715611fcd57611fcc6120ac565b5b80604052505050565b6000611fe182611f29565b91507fffffffffffffffffffffffffffffffffffffffffffffffffffffffffffffffff8214156120145761201361201f565b5b600182019050919050565b7f4e487b7100000000000000000000000000000000000000000000000000000000600052601160045260246000fd5b7f4e487b7100000000000000000000000000000000000000000000000000000000600052602260045260246000fd5b7f4e487b7100000000000000000000000000000000000000000000000000000000600052603260045260246000fd5b7f4e487b7100000000000000000000000000000000000000000000000000000000600052604160045260246000fd5b600080fd5b600080fd5b600080fd5b600080fd5b6000601f19601f8301169050919050565b7f45524332303a207472616e7366657220746f20746865207a65726f206164647260008201527f6573730000000000000000000000000000000000000000000000000000000000602082015250565b7f5061757361626c653a206e6f7420706175736564000000000000000000000000600082015250565b7f45524332303a206275726e20616d6f756e7420657863656564732062616c616e60008201527f6365000000000000000000000000000000000000000000000000000000000000602082015250565b7f4f776e61626c653a206e6577206f776e657220697320746865207a65726f206160008201527f6464726573730000000000000000000000000000000000000000000000000000602082015250565b7f45524332303a20617070726f766520746f20746865207a65726f20616464726560008201527f7373000000000000000000000000000000000000000000000000000000000000602082015250565b7f45524332303a207472616e7366657220616d6f756e742065786365656473206260008201527f616c616e63650000000000000000000000000000000000000000000000000000602082015250565b7f546f6f206d616e7920726563697069656e747300000000000000000000000000600082015250565b7f5061757361626c653a2070617573656400000000000000000000000000000000600082015250565b7f45524332303a207472616e7366657220616d6f756e742065786365656473206160008201527f6c6c6f77616e6365000000000000000000000000000000000000000000000000602082015250565b7f4f776e61626c653a2063616c6c6572206973206e6f7420746865206f776e6572600082015250565b7f45524332303a206275726e20616d6f756e74206578636565647320616c6c6f7760008201527f616e636500000000000000000000000000000000000000000000000000000000602082015250565b7f45524332303a206275726e2066726f6d20746865207a65726f2061646472657360008201527f7300000000000000000000000000000000000000000000000000000000000000602082015250565b7f45524332303a207472616e736665722066726f6d20746865207a65726f20616460008201527f6472657373000000000000000000000000000000000000000000000000000000602082015250565b7f45524332303a20617070726f76652066726f6d20746865207a65726f2061646460008201527f7265737300000000000000000000000000000000000000000000000000000000602082015250565b7f45524332303a2064656372656173656420616c6c6f77616e63652062656c6f7760008201527f207a65726f000000000000000000000000000000000000000000000000000000602082015250565b61251281611eeb565b811461251d57600080fd5b50565b61252981611f29565b811461253457600080fd5b5056fea264697066735822122003ebe8903620a68b6e492cfef86789fa7874265f81fea287597d06920312ade264736f6c63430008070033",
					"opcodes": "PUSH1 0x80 PUSH1 0x40 MSTORE CALLVALUE DUP1 ISZERO PUSH3 0x11 JUMPI PUSH1 0x0 DUP1 REVERT JUMPDEST POP PUSH1 0x40 MLOAD DUP1 PUSH1 0x40 ADD PUSH1 0x40 MSTORE DUP1 PUSH1 0x8 DUP2 MSTORE PUSH1 0x20 ADD PUSH32 0x505643204D455441000000000000000000000000000000000000000000000000 DUP2 MSTORE POP PUSH1 0x40 MLOAD DUP1 PUSH1 0x40 ADD PUSH1 0x40 MSTORE DUP1 PUSH1 0x3 DUP2 MSTORE PUSH1 0x20 ADD PUSH32 0x5056430000000000000000000000000000000000000000000000000000000000 DUP2 MSTORE POP DUP2 PUSH1 0x3 SWAP1 DUP1 MLOAD SWAP1 PUSH1 0x20 ADD SWAP1 PUSH3 0x96 SWAP3 SWAP2 SWAP1 PUSH3 0x414 JUMP JUMPDEST POP DUP1 PUSH1 0x4 SWAP1 DUP1 MLOAD SWAP1 PUSH1 0x20 ADD SWAP1 PUSH3 0xAF SWAP3 SWAP2 SWAP1 PUSH3 0x414 JUMP JUMPDEST POP POP POP PUSH1 0x0 PUSH1 0x5 PUSH1 0x0 PUSH2 0x100 EXP DUP2 SLOAD DUP2 PUSH1 0xFF MUL NOT AND SWAP1 DUP4 ISZERO ISZERO MUL OR SWAP1 SSTORE POP PUSH3 0xED PUSH3 0xE1 PUSH3 0x133 PUSH1 0x20 SHL PUSH1 0x20 SHR JUMP JUMPDEST PUSH3 0x13B PUSH1 0x20 SHL PUSH1 0x20 SHR JUMP JUMPDEST PUSH3 0x12D CALLER PUSH3 0x102 PUSH3 0x201 PUSH1 0x20 SHL PUSH1 0x20 SHR JUMP JUMPDEST PUSH1 0xA PUSH3 0x110 SWAP2 SWAP1 PUSH3 0x64D JUMP JUMPDEST PUSH4 0x59682F00 PUSH3 0x121 SWAP2 SWAP1 PUSH3 0x78A JUMP JUMPDEST PUSH3 0x20A PUSH1 0x20 SHL PUSH1 0x20 SHR JUMP JUMPDEST PUSH3 0x8F5 JUMP JUMPDEST PUSH1 0x0 CALLER SWAP1 POP SWAP1 JUMP JUMPDEST PUSH1 0x0 PUSH1 0x5 PUSH1 0x1 SWAP1 SLOAD SWAP1 PUSH2 0x100 EXP SWAP1 DIV PUSH20 0xFFFFFFFFFFFFFFFFFFFFFFFFFFFFFFFFFFFFFFFF AND SWAP1 POP DUP2 PUSH1 0x5 PUSH1 0x1 PUSH2 0x100 EXP DUP2 SLOAD DUP2 PUSH20 0xFFFFFFFFFFFFFFFFFFFFFFFFFFFFFFFFFFFFFFFF MUL NOT AND SWAP1 DUP4 PUSH20 0xFFFFFFFFFFFFFFFFFFFFFFFFFFFFFFFFFFFFFFFF AND MUL OR SWAP1 SSTORE POP DUP2 PUSH20 0xFFFFFFFFFFFFFFFFFFFFFFFFFFFFFFFFFFFFFFFF AND DUP2 PUSH20 0xFFFFFFFFFFFFFFFFFFFFFFFFFFFFFFFFFFFFFFFF AND PUSH32 0x8BE0079C531659141344CD1FD0A4F28419497F9722A3DAAFE3B4186F6B6457E0 PUSH1 0x40 MLOAD PUSH1 0x40 MLOAD DUP1 SWAP2 SUB SWAP1 LOG3 POP POP JUMP JUMPDEST PUSH1 0x0 PUSH1 0x9 SWAP1 POP SWAP1 JUMP JUMPDEST PUSH1 0x0 PUSH20 0xFFFFFFFFFFFFFFFFFFFFFFFFFFFFFFFFFFFFFFFF AND DUP3 PUSH20 0xFFFFFFFFFFFFFFFFFFFFFFFFFFFFFFFFFFFFFFFF AND EQ ISZERO PUSH3 0x27D JUMPI PUSH1 0x40 MLOAD PUSH32 0x8C379A000000000000000000000000000000000000000000000000000000000 DUP2 MSTORE PUSH1 0x4 ADD PUSH3 0x274 SWAP1 PUSH3 0x545 JUMP JUMPDEST PUSH1 0x40 MLOAD DUP1 SWAP2 SUB SWAP1 REVERT JUMPDEST PUSH3 0x291 PUSH1 0x0 DUP4 DUP4 PUSH3 0x383 PUSH1 0x20 SHL PUSH1 0x20 SHR JUMP JUMPDEST DUP1 PUSH1 0x2 PUSH1 0x0 DUP3 DUP3 SLOAD PUSH3 0x2A5 SWAP2 SWAP1 PUSH3 0x595 JUMP JUMPDEST SWAP3 POP POP DUP2 SWAP1 SSTORE POP DUP1 PUSH1 0x0 DUP1 DUP5 PUSH20 0xFFFFFFFFFFFFFFFFFFFFFFFFFFFFFFFFFFFFFFFF AND PUSH20 0xFFFFFFFFFFFFFFFFFFFFFFFFFFFFFFFFFFFFFFFF AND DUP2 MSTORE PUSH1 0x20 ADD SWAP1 DUP2 MSTORE PUSH1 0x20 ADD PUSH1 0x0 KECCAK256 PUSH1 0x0 DUP3 DUP3 SLOAD PUSH3 0x2FC SWAP2 SWAP1 PUSH3 0x595 JUMP JUMPDEST SWAP3 POP POP DUP2 SWAP1 SSTORE POP DUP2 PUSH20 0xFFFFFFFFFFFFFFFFFFFFFFFFFFFFFFFFFFFFFFFF AND PUSH1 0x0 PUSH20 0xFFFFFFFFFFFFFFFFFFFFFFFFFFFFFFFFFFFFFFFF AND PUSH32 0xDDF252AD1BE2C89B69C2B068FC378DAA952BA7F163C4A11628F55A4DF523B3EF DUP4 PUSH1 0x40 MLOAD PUSH3 0x363 SWAP2 SWAP1 PUSH3 0x567 JUMP JUMPDEST PUSH1 0x40 MLOAD DUP1 SWAP2 SUB SWAP1 LOG3 PUSH3 0x37F PUSH1 0x0 DUP4 DUP4 PUSH3 0x3F3 PUSH1 0x20 SHL PUSH1 0x20 SHR JUMP JUMPDEST POP POP JUMP JUMPDEST PUSH3 0x393 PUSH3 0x3F8 PUSH1 0x20 SHL PUSH1 0x20 SHR JUMP JUMPDEST ISZERO PUSH3 0x3D6 JUMPI PUSH1 0x40 MLOAD PUSH32 0x8C379A000000000000000000000000000000000000000000000000000000000 DUP2 MSTORE PUSH1 0x4 ADD PUSH3 0x3CD SWAP1 PUSH3 0x523 JUMP JUMPDEST PUSH1 0x40 MLOAD DUP1 SWAP2 SUB SWAP1 REVERT JUMPDEST PUSH3 0x3EE DUP4 DUP4 DUP4 PUSH3 0x40F PUSH1 0x20 SHL PUSH3 0xD35 OR PUSH1 0x20 SHR JUMP JUMPDEST POP POP POP JUMP JUMPDEST POP POP POP JUMP JUMPDEST PUSH1 0x0 PUSH1 0x5 PUSH1 0x0 SWAP1 SLOAD SWAP1 PUSH2 0x100 EXP SWAP1 DIV PUSH1 0xFF AND SWAP1 POP SWAP1 JUMP JUMPDEST POP POP POP JUMP JUMPDEST DUP3 DUP1 SLOAD PUSH3 0x422 SWAP1 PUSH3 0x802 JUMP JUMPDEST SWAP1 PUSH1 0x0 MSTORE PUSH1 0x20 PUSH1 0x0 KECCAK256 SWAP1 PUSH1 0x1F ADD PUSH1 0x20 SWAP1 DIV DUP2 ADD SWAP3 DUP3 PUSH3 0x446 JUMPI PUSH1 0x0 DUP6 SSTORE PUSH3 0x492 JUMP JUMPDEST DUP3 PUSH1 0x1F LT PUSH3 0x461 JUMPI DUP1 MLOAD PUSH1 0xFF NOT AND DUP4 DUP1 ADD OR DUP6 SSTORE PUSH3 0x492 JUMP JUMPDEST DUP3 DUP1 ADD PUSH1 0x1 ADD DUP6 SSTORE DUP3 ISZERO PUSH3 0x492 JUMPI SWAP2 DUP3 ADD JUMPDEST DUP3 DUP2 GT ISZERO PUSH3 0x491 JUMPI DUP3 MLOAD DUP3 SSTORE SWAP2 PUSH1 0x20 ADD SWAP2 SWAP1 PUSH1 0x1 ADD SWAP1 PUSH3 0x474 JUMP JUMPDEST JUMPDEST POP SWAP1 POP PUSH3 0x4A1 SWAP2 SWAP1 PUSH3 0x4A5 JUMP JUMPDEST POP SWAP1 JUMP JUMPDEST JUMPDEST DUP1 DUP3 GT ISZERO PUSH3 0x4C0 JUMPI PUSH1 0x0 DUP2 PUSH1 0x0 SWAP1 SSTORE POP PUSH1 0x1 ADD PUSH3 0x4A6 JUMP JUMPDEST POP SWAP1 JUMP JUMPDEST PUSH1 0x0 PUSH3 0x4D3 PUSH1 0x10 DUP4 PUSH3 0x584 JUMP JUMPDEST SWAP2 POP PUSH3 0x4E0 DUP3 PUSH3 0x8A3 JUMP JUMPDEST PUSH1 0x20 DUP3 ADD SWAP1 POP SWAP2 SWAP1 POP JUMP JUMPDEST PUSH1 0x0 PUSH3 0x4FA PUSH1 0x1F DUP4 PUSH3 0x584 JUMP JUMPDEST SWAP2 POP PUSH3 0x507 DUP3 PUSH3 0x8CC JUMP JUMPDEST PUSH1 0x20 DUP3 ADD SWAP1 POP SWAP2 SWAP1 POP JUMP JUMPDEST PUSH3 0x51D DUP2 PUSH3 0x7EB JUMP JUMPDEST DUP3 MSTORE POP POP JUMP JUMPDEST PUSH1 0x0 PUSH1 0x20 DUP3 ADD SWAP1 POP DUP2 DUP2 SUB PUSH1 0x0 DUP4 ADD MSTORE PUSH3 0x53E DUP2 PUSH3 0x4C4 JUMP JUMPDEST SWAP1 POP SWAP2 SWAP1 POP JUMP JUMPDEST PUSH1 0x0 PUSH1 0x20 DUP3 ADD SWAP1 POP DUP2 DUP2 SUB PUSH1 0x0 DUP4 ADD MSTORE PUSH3 0x560 DUP2 PUSH3 0x4EB JUMP JUMPDEST SWAP1 POP SWAP2 SWAP1 POP JUMP JUMPDEST PUSH1 0x0 PUSH1 0x20 DUP3 ADD SWAP1 POP PUSH3 0x57E PUSH1 0x0 DUP4 ADD DUP5 PUSH3 0x512 JUMP JUMPDEST SWAP3 SWAP2 POP POP JUMP JUMPDEST PUSH1 0x0 DUP3 DUP3 MSTORE PUSH1 0x20 DUP3 ADD SWAP1 POP SWAP3 SWAP2 POP POP JUMP JUMPDEST PUSH1 0x0 PUSH3 0x5A2 DUP3 PUSH3 0x7EB JUMP JUMPDEST SWAP2 POP PUSH3 0x5AF DUP4 PUSH3 0x7EB JUMP JUMPDEST SWAP3 POP DUP3 PUSH32 0xFFFFFFFFFFFFFFFFFFFFFFFFFFFFFFFFFFFFFFFFFFFFFFFFFFFFFFFFFFFFFFFF SUB DUP3 GT ISZERO PUSH3 0x5E7 JUMPI PUSH3 0x5E6 PUSH3 0x838 JUMP JUMPDEST JUMPDEST DUP3 DUP3 ADD SWAP1 POP SWAP3 SWAP2 POP POP JUMP JUMPDEST PUSH1 0x0 DUP1 DUP3 SWAP2 POP DUP4 SWAP1 POP JUMPDEST PUSH1 0x1 DUP6 GT ISZERO PUSH3 0x644 JUMPI DUP1 DUP7 DIV DUP2 GT ISZERO PUSH3 0x61C JUMPI PUSH3 0x61B PUSH3 0x838 JUMP JUMPDEST JUMPDEST PUSH1 0x1 DUP6 AND ISZERO PUSH3 0x62C JUMPI DUP1 DUP3 MUL SWAP2 POP JUMPDEST DUP1 DUP2 MUL SWAP1 POP PUSH3 0x63C DUP6 PUSH3 0x896 JUMP JUMPDEST SWAP5 POP PUSH3 0x5FC JUMP JUMPDEST SWAP5 POP SWAP5 SWAP3 POP POP POP JUMP JUMPDEST PUSH1 0x0 PUSH3 0x65A DUP3 PUSH3 0x7EB JUMP JUMPDEST SWAP2 POP PUSH3 0x667 DUP4 PUSH3 0x7F5 JUMP JUMPDEST SWAP3 POP PUSH3 0x696 PUSH32 0xFFFFFFFFFFFFFFFFFFFFFFFFFFFFFFFFFFFFFFFFFFFFFFFFFFFFFFFFFFFFFFFF DUP5 DUP5 PUSH3 0x69E JUMP JUMPDEST SWAP1 POP SWAP3 SWAP2 POP POP JUMP JUMPDEST PUSH1 0x0 DUP3 PUSH3 0x6B0 JUMPI PUSH1 0x1 SWAP1 POP PUSH3 0x783 JUMP JUMPDEST DUP2 PUSH3 0x6C0 JUMPI PUSH1 0x0 SWAP1 POP PUSH3 0x783 JUMP JUMPDEST DUP2 PUSH1 0x1 DUP2 EQ PUSH3 0x6D9 JUMPI PUSH1 0x2 DUP2 EQ PUSH3 0x6E4 JUMPI PUSH3 0x71A JUMP JUMPDEST PUSH1 0x1 SWAP2 POP POP PUSH3 0x783 JUMP JUMPDEST PUSH1 0xFF DUP5 GT ISZERO PUSH3 0x6F9 JUMPI PUSH3 0x6F8 PUSH3 0x838 JUMP JUMPDEST JUMPDEST DUP4 PUSH1 0x2 EXP SWAP2 POP DUP5 DUP3 GT ISZERO PUSH3 0x713 JUMPI PUSH3 0x712 PUSH3 0x838 JUMP JUMPDEST JUMPDEST POP PUSH3 0x783 JUMP JUMPDEST POP PUSH1 0x20 DUP4 LT PUSH2 0x133 DUP4 LT AND PUSH1 0x4E DUP5 LT PUSH1 0xB DUP5 LT AND OR ISZERO PUSH3 0x754 JUMPI DUP3 DUP3 EXP SWAP1 POP DUP4 DUP2 GT ISZERO PUSH3 0x74E JUMPI PUSH3 0x74D PUSH3 0x838 JUMP JUMPDEST JUMPDEST PUSH3 0x783 JUMP JUMPDEST PUSH3 0x763 DUP5 DUP5 DUP5 PUSH1 0x1 PUSH3 0x5F2 JUMP JUMPDEST SWAP3 POP SWAP1 POP DUP2 DUP5 DIV DUP2 GT ISZERO PUSH3 0x77D JUMPI PUSH3 0x77C PUSH3 0x838 JUMP JUMPDEST JUMPDEST DUP2 DUP2 MUL SWAP1 POP JUMPDEST SWAP4 SWAP3 POP POP POP JUMP JUMPDEST PUSH1 0x0 PUSH3 0x797 DUP3 PUSH3 0x7EB JUMP JUMPDEST SWAP2 POP PUSH3 0x7A4 DUP4 PUSH3 0x7EB JUMP JUMPDEST SWAP3 POP DUP2 PUSH32 0xFFFFFFFFFFFFFFFFFFFFFFFFFFFFFFFFFFFFFFFFFFFFFFFFFFFFFFFFFFFFFFFF DIV DUP4 GT DUP3 ISZERO ISZERO AND ISZERO PUSH3 0x7E0 JUMPI PUSH3 0x7DF PUSH3 0x838 JUMP JUMPDEST JUMPDEST DUP3 DUP3 MUL SWAP1 POP SWAP3 SWAP2 POP POP JUMP JUMPDEST PUSH1 0x0 DUP2 SWAP1 POP SWAP2 SWAP1 POP JUMP JUMPDEST PUSH1 0x0 PUSH1 0xFF DUP3 AND SWAP1 POP SWAP2 SWAP1 POP JUMP JUMPDEST PUSH1 0x0 PUSH1 0x2 DUP3 DIV SWAP1 POP PUSH1 0x1 DUP3 AND DUP1 PUSH3 0x81B JUMPI PUSH1 0x7F DUP3 AND SWAP2 POP JUMPDEST PUSH1 0x20 DUP3 LT DUP2 EQ ISZERO PUSH3 0x832 JUMPI PUSH3 0x831 PUSH3 0x867 JUMP JUMPDEST JUMPDEST POP SWAP2 SWAP1 POP JUMP JUMPDEST PUSH32 0x4E487B7100000000000000000000000000000000000000000000000000000000 PUSH1 0x0 MSTORE PUSH1 0x11 PUSH1 0x4 MSTORE PUSH1 0x24 PUSH1 0x0 REVERT JUMPDEST PUSH32 0x4E487B7100000000000000000000000000000000000000000000000000000000 PUSH1 0x0 MSTORE PUSH1 0x22 PUSH1 0x4 MSTORE PUSH1 0x24 PUSH1 0x0 REVERT JUMPDEST PUSH1 0x0 DUP2 PUSH1 0x1 SHR SWAP1 POP SWAP2 SWAP1 POP JUMP JUMPDEST PUSH32 0x5061757361626C653A2070617573656400000000000000000000000000000000 PUSH1 0x0 DUP3 ADD MSTORE POP JUMP JUMPDEST PUSH32 0x45524332303A206D696E7420746F20746865207A65726F206164647265737300 PUSH1 0x0 DUP3 ADD MSTORE POP JUMP JUMPDEST PUSH2 0x256D DUP1 PUSH3 0x905 PUSH1 0x0 CODECOPY PUSH1 0x0 RETURN INVALID PUSH1 0x80 PUSH1 0x40 MSTORE CALLVALUE DUP1 ISZERO PUSH2 0x10 JUMPI PUSH1 0x0 DUP1 REVERT JUMPDEST POP PUSH1 0x4 CALLDATASIZE LT PUSH2 0x12C JUMPI PUSH1 0x0 CALLDATALOAD PUSH1 0xE0 SHR DUP1 PUSH4 0x715018A6 GT PUSH2 0xAD JUMPI DUP1 PUSH4 0xA457C2D7 GT PUSH2 0x71 JUMPI DUP1 PUSH4 0xA457C2D7 EQ PUSH2 0x2FB JUMPI DUP1 PUSH4 0xA9059CBB EQ PUSH2 0x32B JUMPI DUP1 PUSH4 0xA972F673 EQ PUSH2 0x35B JUMPI DUP1 PUSH4 0xDD62ED3E EQ PUSH2 0x38B JUMPI DUP1 PUSH4 0xF2FDE38B EQ PUSH2 0x3BB JUMPI PUSH2 0x12C JUMP JUMPDEST DUP1 PUSH4 0x715018A6 EQ PUSH2 0x28F JUMPI DUP1 PUSH4 0x79CC6790 EQ PUSH2 0x299 JUMPI DUP1 PUSH4 0x8456CB59 EQ PUSH2 0x2B5 JUMPI DUP1 PUSH4 0x8DA5CB5B EQ PUSH2 0x2BF JUMPI DUP1 PUSH4 0x95D89B41 EQ PUSH2 0x2DD JUMPI PUSH2 0x12C JUMP JUMPDEST DUP1 PUSH4 0x39509351 GT PUSH2 0xF4 JUMPI DUP1 PUSH4 0x39509351 EQ PUSH2 0x1EB JUMPI DUP1 PUSH4 0x3F4BA83A EQ PUSH2 0x21B JUMPI DUP1 PUSH4 0x42966C68 EQ PUSH2 0x225 JUMPI DUP1 PUSH4 0x5C975ABB EQ PUSH2 0x241 JUMPI DUP1 PUSH4 0x70A08231 EQ PUSH2 0x25F JUMPI PUSH2 0x12C JUMP JUMPDEST DUP1 PUSH4 0x6FDDE03 EQ PUSH2 0x131 JUMPI DUP1 PUSH4 0x95EA7B3 EQ PUSH2 0x14F JUMPI DUP1 PUSH4 0x18160DDD EQ PUSH2 0x17F JUMPI DUP1 PUSH4 0x23B872DD EQ PUSH2 0x19D JUMPI DUP1 PUSH4 0x313CE567 EQ PUSH2 0x1CD JUMPI JUMPDEST PUSH1 0x0 DUP1 REVERT JUMPDEST PUSH2 0x139 PUSH2 0x3D7 JUMP JUMPDEST PUSH1 0x40 MLOAD PUSH2 0x146 SWAP2 SWAP1 PUSH2 0x1B90 JUMP JUMPDEST PUSH1 0x40 MLOAD DUP1 SWAP2 SUB SWAP1 RETURN JUMPDEST PUSH2 0x169 PUSH1 0x4 DUP1 CALLDATASIZE SUB DUP2 ADD SWAP1 PUSH2 0x164 SWAP2 SWAP1 PUSH2 0x17F3 JUMP JUMPDEST PUSH2 0x469 JUMP JUMPDEST PUSH1 0x40 MLOAD PUSH2 0x176 SWAP2 SWAP1 PUSH2 0x1B75 JUMP JUMPDEST PUSH1 0x40 MLOAD DUP1 SWAP2 SUB SWAP1 RETURN JUMPDEST PUSH2 0x187 PUSH2 0x487 JUMP JUMPDEST PUSH1 0x40 MLOAD PUSH2 0x194 SWAP2 SWAP1 PUSH2 0x1D92 JUMP JUMPDEST PUSH1 0x40 MLOAD DUP1 SWAP2 SUB SWAP1 RETURN JUMPDEST PUSH2 0x1B7 PUSH1 0x4 DUP1 CALLDATASIZE SUB DUP2 ADD SWAP1 PUSH2 0x1B2 SWAP2 SWAP1 PUSH2 0x17A0 JUMP JUMPDEST PUSH2 0x491 JUMP JUMPDEST PUSH1 0x40 MLOAD PUSH2 0x1C4 SWAP2 SWAP1 PUSH2 0x1B75 JUMP JUMPDEST PUSH1 0x40 MLOAD DUP1 SWAP2 SUB SWAP1 RETURN JUMPDEST PUSH2 0x1D5 PUSH2 0x589 JUMP JUMPDEST PUSH1 0x40 MLOAD PUSH2 0x1E2 SWAP2 SWAP1 PUSH2 0x1DAD JUMP JUMPDEST PUSH1 0x40 MLOAD DUP1 SWAP2 SUB SWAP1 RETURN JUMPDEST PUSH2 0x205 PUSH1 0x4 DUP1 CALLDATASIZE SUB DUP2 ADD SWAP1 PUSH2 0x200 SWAP2 SWAP1 PUSH2 0x17F3 JUMP JUMPDEST PUSH2 0x592 JUMP JUMPDEST PUSH1 0x40 MLOAD PUSH2 0x212 SWAP2 SWAP1 PUSH2 0x1B75 JUMP JUMPDEST PUSH1 0x40 MLOAD DUP1 SWAP2 SUB SWAP1 RETURN JUMPDEST PUSH2 0x223 PUSH2 0x63E JUMP JUMPDEST STOP JUMPDEST PUSH2 0x23F PUSH1 0x4 DUP1 CALLDATASIZE SUB DUP2 ADD SWAP1 PUSH2 0x23A SWAP2 SWAP1 PUSH2 0x18AB JUMP JUMPDEST PUSH2 0x6C4 JUMP JUMPDEST STOP JUMPDEST PUSH2 0x249 PUSH2 0x6D8 JUMP JUMPDEST PUSH1 0x40 MLOAD PUSH2 0x256 SWAP2 SWAP1 PUSH2 0x1B75 JUMP JUMPDEST PUSH1 0x40 MLOAD DUP1 SWAP2 SUB SWAP1 RETURN JUMPDEST PUSH2 0x279 PUSH1 0x4 DUP1 CALLDATASIZE SUB DUP2 ADD SWAP1 PUSH2 0x274 SWAP2 SWAP1 PUSH2 0x1733 JUMP JUMPDEST PUSH2 0x6EF JUMP JUMPDEST PUSH1 0x40 MLOAD PUSH2 0x286 SWAP2 SWAP1 PUSH2 0x1D92 JUMP JUMPDEST PUSH1 0x40 MLOAD DUP1 SWAP2 SUB SWAP1 RETURN JUMPDEST PUSH2 0x297 PUSH2 0x737 JUMP JUMPDEST STOP JUMPDEST PUSH2 0x2B3 PUSH1 0x4 DUP1 CALLDATASIZE SUB DUP2 ADD SWAP1 PUSH2 0x2AE SWAP2 SWAP1 PUSH2 0x17F3 JUMP JUMPDEST PUSH2 0x7BF JUMP JUMPDEST STOP JUMPDEST PUSH2 0x2BD PUSH2 0x83A JUMP JUMPDEST STOP JUMPDEST PUSH2 0x2C7 PUSH2 0x8C0 JUMP JUMPDEST PUSH1 0x40 MLOAD PUSH2 0x2D4 SWAP2 SWAP1 PUSH2 0x1B5A JUMP JUMPDEST PUSH1 0x40 MLOAD DUP1 SWAP2 SUB SWAP1 RETURN JUMPDEST PUSH2 0x2E5 PUSH2 0x8EA JUMP JUMPDEST PUSH1 0x40 MLOAD PUSH2 0x2F2 SWAP2 SWAP1 PUSH2 0x1B90 JUMP JUMPDEST PUSH1 0x40 MLOAD DUP1 SWAP2 SUB SWAP1 RETURN JUMPDEST PUSH2 0x315 PUSH1 0x4 DUP1 CALLDATASIZE SUB DUP2 ADD SWAP1 PUSH2 0x310 SWAP2 SWAP1 PUSH2 0x17F3 JUMP JUMPDEST PUSH2 0x97C JUMP JUMPDEST PUSH1 0x40 MLOAD PUSH2 0x322 SWAP2 SWAP1 PUSH2 0x1B75 JUMP JUMPDEST PUSH1 0x40 MLOAD DUP1 SWAP2 SUB SWAP1 RETURN JUMPDEST PUSH2 0x345 PUSH1 0x4 DUP1 CALLDATASIZE SUB DUP2 ADD SWAP1 PUSH2 0x340 SWAP2 SWAP1 PUSH2 0x17F3 JUMP JUMPDEST PUSH2 0xA67 JUMP JUMPDEST PUSH1 0x40 MLOAD PUSH2 0x352 SWAP2 SWAP1 PUSH2 0x1B75 JUMP JUMPDEST PUSH1 0x40 MLOAD DUP1 SWAP2 SUB SWAP1 RETURN JUMPDEST PUSH2 0x375 PUSH1 0x4 DUP1 CALLDATASIZE SUB DUP2 ADD SWAP1 PUSH2 0x370 SWAP2 SWAP1 PUSH2 0x1833 JUMP JUMPDEST PUSH2 0xA85 JUMP JUMPDEST PUSH1 0x40 MLOAD PUSH2 0x382 SWAP2 SWAP1 PUSH2 0x1B75 JUMP JUMPDEST PUSH1 0x40 MLOAD DUP1 SWAP2 SUB SWAP1 RETURN JUMPDEST PUSH2 0x3A5 PUSH1 0x4 DUP1 CALLDATASIZE SUB DUP2 ADD SWAP1 PUSH2 0x3A0 SWAP2 SWAP1 PUSH2 0x1760 JUMP JUMPDEST PUSH2 0xBB6 JUMP JUMPDEST PUSH1 0x40 MLOAD PUSH2 0x3B2 SWAP2 SWAP1 PUSH2 0x1D92 JUMP JUMPDEST PUSH1 0x40 MLOAD DUP1 SWAP2 SUB SWAP1 RETURN JUMPDEST PUSH2 0x3D5 PUSH1 0x4 DUP1 CALLDATASIZE SUB DUP2 ADD SWAP1 PUSH2 0x3D0 SWAP2 SWAP1 PUSH2 0x1733 JUMP JUMPDEST PUSH2 0xC3D JUMP JUMPDEST STOP JUMPDEST PUSH1 0x60 PUSH1 0x3 DUP1 SLOAD PUSH2 0x3E6 SWAP1 PUSH2 0x1F73 JUMP JUMPDEST DUP1 PUSH1 0x1F ADD PUSH1 0x20 DUP1 SWAP2 DIV MUL PUSH1 0x20 ADD PUSH1 0x40 MLOAD SWAP1 DUP2 ADD PUSH1 0x40 MSTORE DUP1 SWAP3 SWAP2 SWAP1 DUP2 DUP2 MSTORE PUSH1 0x20 ADD DUP3 DUP1 SLOAD PUSH2 0x412 SWAP1 PUSH2 0x1F73 JUMP JUMPDEST DUP1 ISZERO PUSH2 0x45F JUMPI DUP1 PUSH1 0x1F LT PUSH2 0x434 JUMPI PUSH2 0x100 DUP1 DUP4 SLOAD DIV MUL DUP4 MSTORE SWAP2 PUSH1 0x20 ADD SWAP2 PUSH2 0x45F JUMP JUMPDEST DUP3 ADD SWAP2 SWAP1 PUSH1 0x0 MSTORE PUSH1 0x20 PUSH1 0x0 KECCAK256 SWAP1 JUMPDEST DUP2 SLOAD DUP2 MSTORE SWAP1 PUSH1 0x1 ADD SWAP1 PUSH1 0x20 ADD DUP1 DUP4 GT PUSH2 0x442 JUMPI DUP3 SWAP1 SUB PUSH1 0x1F AND DUP3 ADD SWAP2 JUMPDEST POP POP POP POP POP SWAP1 POP SWAP1 JUMP JUMPDEST PUSH1 0x0 PUSH2 0x47D PUSH2 0x476 PUSH2 0xD3A JUMP JUMPDEST DUP5 DUP5 PUSH2 0xD42 JUMP JUMPDEST PUSH1 0x1 SWAP1 POP SWAP3 SWAP2 POP POP JUMP JUMPDEST PUSH1 0x0 PUSH1 0x2 SLOAD SWAP1 POP SWAP1 JUMP JUMPDEST PUSH1 0x0 PUSH2 0x49E DUP5 DUP5 DUP5 PUSH2 0xF0D JUMP JUMPDEST PUSH1 0x0 PUSH1 0x1 PUSH1 0x0 DUP7 PUSH20 0xFFFFFFFFFFFFFFFFFFFFFFFFFFFFFFFFFFFFFFFF AND PUSH20 0xFFFFFFFFFFFFFFFFFFFFFFFFFFFFFFFFFFFFFFFF AND DUP2 MSTORE PUSH1 0x20 ADD SWAP1 DUP2 MSTORE PUSH1 0x20 ADD PUSH1 0x0 KECCAK256 PUSH1 0x0 PUSH2 0x4E9 PUSH2 0xD3A JUMP JUMPDEST PUSH20 0xFFFFFFFFFFFFFFFFFFFFFFFFFFFFFFFFFFFFFFFF AND PUSH20 0xFFFFFFFFFFFFFFFFFFFFFFFFFFFFFFFFFFFFFFFF AND DUP2 MSTORE PUSH1 0x20 ADD SWAP1 DUP2 MSTORE PUSH1 0x20 ADD PUSH1 0x0 KECCAK256 SLOAD SWAP1 POP DUP3 DUP2 LT ISZERO PUSH2 0x569 JUMPI PUSH1 0x40 MLOAD PUSH32 0x8C379A000000000000000000000000000000000000000000000000000000000 DUP2 MSTORE PUSH1 0x4 ADD PUSH2 0x560 SWAP1 PUSH2 0x1CB2 JUMP JUMPDEST PUSH1 0x40 MLOAD DUP1 SWAP2 SUB SWAP1 REVERT JUMPDEST PUSH2 0x57D DUP6 PUSH2 0x575 PUSH2 0xD3A JUMP JUMPDEST DUP6 DUP5 SUB PUSH2 0xD42 JUMP JUMPDEST PUSH1 0x1 SWAP2 POP POP SWAP4 SWAP3 POP POP POP JUMP JUMPDEST PUSH1 0x0 PUSH1 0x9 SWAP1 POP SWAP1 JUMP JUMPDEST PUSH1 0x0 PUSH2 0x634 PUSH2 0x59F PUSH2 0xD3A JUMP JUMPDEST DUP5 DUP5 PUSH1 0x1 PUSH1 0x0 PUSH2 0x5AD PUSH2 0xD3A JUMP JUMPDEST PUSH20 0xFFFFFFFFFFFFFFFFFFFFFFFFFFFFFFFFFFFFFFFF AND PUSH20 0xFFFFFFFFFFFFFFFFFFFFFFFFFFFFFFFFFFFFFFFF AND DUP2 MSTORE PUSH1 0x20 ADD SWAP1 DUP2 MSTORE PUSH1 0x20 ADD PUSH1 0x0 KECCAK256 PUSH1 0x0 DUP9 PUSH20 0xFFFFFFFFFFFFFFFFFFFFFFFFFFFFFFFFFFFFFFFF AND PUSH20 0xFFFFFFFFFFFFFFFFFFFFFFFFFFFFFFFFFFFFFFFF AND DUP2 MSTORE PUSH1 0x20 ADD SWAP1 DUP2 MSTORE PUSH1 0x20 ADD PUSH1 0x0 KECCAK256 SLOAD PUSH2 0x62F SWAP2 SWAP1 PUSH2 0x1E61 JUMP JUMPDEST PUSH2 0xD42 JUMP JUMPDEST PUSH1 0x1 SWAP1 POP SWAP3 SWAP2 POP POP JUMP JUMPDEST PUSH2 0x646 PUSH2 0xD3A JUMP JUMPDEST PUSH20 0xFFFFFFFFFFFFFFFFFFFFFFFFFFFFFFFFFFFFFFFF AND PUSH2 0x664 PUSH2 0x8C0 JUMP JUMPDEST PUSH20 0xFFFFFFFFFFFFFFFFFFFFFFFFFFFFFFFFFFFFFFFF AND EQ PUSH2 0x6BA JUMPI PUSH1 0x40 MLOAD PUSH32 0x8C379A000000000000000000000000000000000000000000000000000000000 DUP2 MSTORE PUSH1 0x4 ADD PUSH2 0x6B1 SWAP1 PUSH2 0x1CD2 JUMP JUMPDEST PUSH1 0x40 MLOAD DUP1 SWAP2 SUB SWAP1 REVERT JUMPDEST PUSH2 0x6C2 PUSH2 0x118E JUMP JUMPDEST JUMP JUMPDEST PUSH2 0x6D5 PUSH2 0x6CF PUSH2 0xD3A JUMP JUMPDEST DUP3 PUSH2 0x1230 JUMP JUMPDEST POP JUMP JUMPDEST PUSH1 0x0 PUSH1 0x5 PUSH1 0x0 SWAP1 SLOAD SWAP1 PUSH2 0x100 EXP SWAP1 DIV PUSH1 0xFF AND SWAP1 POP SWAP1 JUMP JUMPDEST PUSH1 0x0 DUP1 PUSH1 0x0 DUP4 PUSH20 0xFFFFFFFFFFFFFFFFFFFFFFFFFFFFFFFFFFFFFFFF AND PUSH20 0xFFFFFFFFFFFFFFFFFFFFFFFFFFFFFFFFFFFFFFFF AND DUP2 MSTORE PUSH1 0x20 ADD SWAP1 DUP2 MSTORE PUSH1 0x20 ADD PUSH1 0x0 KECCAK256 SLOAD SWAP1 POP SWAP2 SWAP1 POP JUMP JUMPDEST PUSH2 0x73F PUSH2 0xD3A JUMP JUMPDEST PUSH20 0xFFFFFFFFFFFFFFFFFFFFFFFFFFFFFFFFFFFFFFFF AND PUSH2 0x75D PUSH2 0x8C0 JUMP JUMPDEST PUSH20 0xFFFFFFFFFFFFFFFFFFFFFFFFFFFFFFFFFFFFFFFF AND EQ PUSH2 0x7B3 JUMPI PUSH1 0x40 MLOAD PUSH32 0x8C379A000000000000000000000000000000000000000000000000000000000 DUP2 MSTORE PUSH1 0x4 ADD PUSH2 0x7AA SWAP1 PUSH2 0x1CD2 JUMP JUMPDEST PUSH1 0x40 MLOAD DUP1 SWAP2 SUB SWAP1 REVERT JUMPDEST PUSH2 0x7BD PUSH1 0x0 PUSH2 0x1407 JUMP JUMPDEST JUMP JUMPDEST PUSH1 0x0 PUSH2 0x7D2 DUP4 PUSH2 0x7CD PUSH2 0xD3A JUMP JUMPDEST PUSH2 0xBB6 JUMP JUMPDEST SWAP1 POP DUP2 DUP2 LT ISZERO PUSH2 0x817 JUMPI PUSH1 0x40 MLOAD PUSH32 0x8C379A000000000000000000000000000000000000000000000000000000000 DUP2 MSTORE PUSH1 0x4 ADD PUSH2 0x80E SWAP1 PUSH2 0x1CF2 JUMP JUMPDEST PUSH1 0x40 MLOAD DUP1 SWAP2 SUB SWAP1 REVERT JUMPDEST PUSH2 0x82B DUP4 PUSH2 0x823 PUSH2 0xD3A JUMP JUMPDEST DUP5 DUP5 SUB PUSH2 0xD42 JUMP JUMPDEST PUSH2 0x835 DUP4 DUP4 PUSH2 0x1230 JUMP JUMPDEST POP POP POP JUMP JUMPDEST PUSH2 0x842 PUSH2 0xD3A JUMP JUMPDEST PUSH20 0xFFFFFFFFFFFFFFFFFFFFFFFFFFFFFFFFFFFFFFFF AND PUSH2 0x860 PUSH2 0x8C0 JUMP JUMPDEST PUSH20 0xFFFFFFFFFFFFFFFFFFFFFFFFFFFFFFFFFFFFFFFF AND EQ PUSH2 0x8B6 JUMPI PUSH1 0x40 MLOAD PUSH32 0x8C379A000000000000000000000000000000000000000000000000000000000 DUP2 MSTORE PUSH1 0x4 ADD PUSH2 0x8AD SWAP1 PUSH2 0x1CD2 JUMP JUMPDEST PUSH1 0x40 MLOAD DUP1 SWAP2 SUB SWAP1 REVERT JUMPDEST PUSH2 0x8BE PUSH2 0x14CD JUMP JUMPDEST JUMP JUMPDEST PUSH1 0x0 PUSH1 0x5 PUSH1 0x1 SWAP1 SLOAD SWAP1 PUSH2 0x100 EXP SWAP1 DIV PUSH20 0xFFFFFFFFFFFFFFFFFFFFFFFFFFFFFFFFFFFFFFFF AND SWAP1 POP SWAP1 JUMP JUMPDEST PUSH1 0x60 PUSH1 0x4 DUP1 SLOAD PUSH2 0x8F9 SWAP1 PUSH2 0x1F73 JUMP JUMPDEST DUP1 PUSH1 0x1F ADD PUSH1 0x20 DUP1 SWAP2 DIV MUL PUSH1 0x20 ADD PUSH1 0x40 MLOAD SWAP1 DUP2 ADD PUSH1 0x40 MSTORE DUP1 SWAP3 SWAP2 SWAP1 DUP2 DUP2 MSTORE PUSH1 0x20 ADD DUP3 DUP1 SLOAD PUSH2 0x925 SWAP1 PUSH2 0x1F73 JUMP JUMPDEST DUP1 ISZERO PUSH2 0x972 JUMPI DUP1 PUSH1 0x1F LT PUSH2 0x947 JUMPI PUSH2 0x100 DUP1 DUP4 SLOAD DIV MUL DUP4 MSTORE SWAP2 PUSH1 0x20 ADD SWAP2 PUSH2 0x972 JUMP JUMPDEST DUP3 ADD SWAP2 SWAP1 PUSH1 0x0 MSTORE PUSH1 0x20 PUSH1 0x0 KECCAK256 SWAP1 JUMPDEST DUP2 SLOAD DUP2 MSTORE SWAP1 PUSH1 0x1 ADD SWAP1 PUSH1 0x20 ADD DUP1 DUP4 GT PUSH2 0x955 JUMPI DUP3 SWAP1 SUB PUSH1 0x1F AND DUP3 ADD SWAP2 JUMPDEST POP POP POP POP POP SWAP1 POP SWAP1 JUMP JUMPDEST PUSH1 0x0 DUP1 PUSH1 0x1 PUSH1 0x0 PUSH2 0x98B PUSH2 0xD3A JUMP JUMPDEST PUSH20 0xFFFFFFFFFFFFFFFFFFFFFFFFFFFFFFFFFFFFFFFF AND PUSH20 0xFFFFFFFFFFFFFFFFFFFFFFFFFFFFFFFFFFFFFFFF AND DUP2 MSTORE PUSH1 0x20 ADD SWAP1 DUP2 MSTORE PUSH1 0x20 ADD PUSH1 0x0 KECCAK256 PUSH1 0x0 DUP6 PUSH20 0xFFFFFFFFFFFFFFFFFFFFFFFFFFFFFFFFFFFFFFFF AND PUSH20 0xFFFFFFFFFFFFFFFFFFFFFFFFFFFFFFFFFFFFFFFF AND DUP2 MSTORE PUSH1 0x20 ADD SWAP1 DUP2 MSTORE PUSH1 0x20 ADD PUSH1 0x0 KECCAK256 SLOAD SWAP1 POP DUP3 DUP2 LT ISZERO PUSH2 0xA48 JUMPI PUSH1 0x40 MLOAD PUSH32 0x8C379A000000000000000000000000000000000000000000000000000000000 DUP2 MSTORE PUSH1 0x4 ADD PUSH2 0xA3F SWAP1 PUSH2 0x1D72 JUMP JUMPDEST PUSH1 0x40 MLOAD DUP1 SWAP2 SUB SWAP1 REVERT JUMPDEST PUSH2 0xA5C PUSH2 0xA53 PUSH2 0xD3A JUMP JUMPDEST DUP6 DUP6 DUP5 SUB PUSH2 0xD42 JUMP JUMPDEST PUSH1 0x1 SWAP2 POP POP SWAP3 SWAP2 POP POP JUMP JUMPDEST PUSH1 0x0 PUSH2 0xA7B PUSH2 0xA74 PUSH2 0xD3A JUMP JUMPDEST DUP5 DUP5 PUSH2 0xF0D JUMP JUMPDEST PUSH1 0x1 SWAP1 POP SWAP3 SWAP2 POP POP JUMP JUMPDEST PUSH1 0x0 PUSH2 0xA8F PUSH2 0xD3A JUMP JUMPDEST PUSH20 0xFFFFFFFFFFFFFFFFFFFFFFFFFFFFFFFFFFFFFFFF AND PUSH2 0xAAD PUSH2 0x8C0 JUMP JUMPDEST PUSH20 0xFFFFFFFFFFFFFFFFFFFFFFFFFFFFFFFFFFFFFFFF AND EQ PUSH2 0xB03 JUMPI PUSH1 0x40 MLOAD PUSH32 0x8C379A000000000000000000000000000000000000000000000000000000000 DUP2 MSTORE PUSH1 0x4 ADD PUSH2 0xAFA SWAP1 PUSH2 0x1CD2 JUMP JUMPDEST PUSH1 0x40 MLOAD DUP1 SWAP2 SUB SWAP1 REVERT JUMPDEST PUSH1 0x0 DUP4 MLOAD SWAP1 POP PUSH1 0x96 DUP2 GT ISZERO PUSH2 0xB4D JUMPI PUSH1 0x40 MLOAD PUSH32 0x8C379A000000000000000000000000000000000000000000000000000000000 DUP2 MSTORE PUSH1 0x4 ADD PUSH2 0xB44 SWAP1 PUSH2 0x1C72 JUMP JUMPDEST PUSH1 0x40 MLOAD DUP1 SWAP2 SUB SWAP1 REVERT JUMPDEST PUSH1 0x0 JUMPDEST DUP2 DUP2 LT ISZERO PUSH2 0xBAA JUMPI PUSH2 0xB96 DUP6 DUP3 DUP2 MLOAD DUP2 LT PUSH2 0xB6E JUMPI PUSH2 0xB6D PUSH2 0x207D JUMP JUMPDEST JUMPDEST PUSH1 0x20 MUL PUSH1 0x20 ADD ADD MLOAD DUP6 DUP4 DUP2 MLOAD DUP2 LT PUSH2 0xB89 JUMPI PUSH2 0xB88 PUSH2 0x207D JUMP JUMPDEST JUMPDEST PUSH1 0x20 MUL PUSH1 0x20 ADD ADD MLOAD PUSH2 0xA67 JUMP JUMPDEST POP DUP1 DUP1 PUSH2 0xBA2 SWAP1 PUSH2 0x1FD6 JUMP JUMPDEST SWAP2 POP POP PUSH2 0xB50 JUMP JUMPDEST POP PUSH1 0x1 SWAP2 POP POP SWAP3 SWAP2 POP POP JUMP JUMPDEST PUSH1 0x0 PUSH1 0x1 PUSH1 0x0 DUP5 PUSH20 0xFFFFFFFFFFFFFFFFFFFFFFFFFFFFFFFFFFFFFFFF AND PUSH20 0xFFFFFFFFFFFFFFFFFFFFFFFFFFFFFFFFFFFFFFFF AND DUP2 MSTORE PUSH1 0x20 ADD SWAP1 DUP2 MSTORE PUSH1 0x20 ADD PUSH1 0x0 KECCAK256 PUSH1 0x0 DUP4 PUSH20 0xFFFFFFFFFFFFFFFFFFFFFFFFFFFFFFFFFFFFFFFF AND PUSH20 0xFFFFFFFFFFFFFFFFFFFFFFFFFFFFFFFFFFFFFFFF AND DUP2 MSTORE PUSH1 0x20 ADD SWAP1 DUP2 MSTORE PUSH1 0x20 ADD PUSH1 0x0 KECCAK256 SLOAD SWAP1 POP SWAP3 SWAP2 POP POP JUMP JUMPDEST PUSH2 0xC45 PUSH2 0xD3A JUMP JUMPDEST PUSH20 0xFFFFFFFFFFFFFFFFFFFFFFFFFFFFFFFFFFFFFFFF AND PUSH2 0xC63 PUSH2 0x8C0 JUMP JUMPDEST PUSH20 0xFFFFFFFFFFFFFFFFFFFFFFFFFFFFFFFFFFFFFFFF AND EQ PUSH2 0xCB9 JUMPI PUSH1 0x40 MLOAD PUSH32 0x8C379A000000000000000000000000000000000000000000000000000000000 DUP2 MSTORE PUSH1 0x4 ADD PUSH2 0xCB0 SWAP1 PUSH2 0x1CD2 JUMP JUMPDEST PUSH1 0x40 MLOAD DUP1 SWAP2 SUB SWAP1 REVERT JUMPDEST PUSH1 0x0 PUSH20 0xFFFFFFFFFFFFFFFFFFFFFFFFFFFFFFFFFFFFFFFF AND DUP2 PUSH20 0xFFFFFFFFFFFFFFFFFFFFFFFFFFFFFFFFFFFFFFFF AND EQ ISZERO PUSH2 0xD29 JUMPI PUSH1 0x40 MLOAD PUSH32 0x8C379A000000000000000000000000000000000000000000000000000000000 DUP2 MSTORE PUSH1 0x4 ADD PUSH2 0xD20 SWAP1 PUSH2 0x1C12 JUMP JUMPDEST PUSH1 0x40 MLOAD DUP1 SWAP2 SUB SWAP1 REVERT JUMPDEST PUSH2 0xD32 DUP2 PUSH2 0x1407 JUMP JUMPDEST POP JUMP JUMPDEST POP POP POP JUMP JUMPDEST PUSH1 0x0 CALLER SWAP1 POP SWAP1 JUMP JUMPDEST PUSH1 0x0 PUSH20 0xFFFFFFFFFFFFFFFFFFFFFFFFFFFFFFFFFFFFFFFF AND DUP4 PUSH20 0xFFFFFFFFFFFFFFFFFFFFFFFFFFFFFFFFFFFFFFFF AND EQ ISZERO PUSH2 0xDB2 JUMPI PUSH1 0x40 MLOAD PUSH32 0x8C379A000000000000000000000000000000000000000000000000000000000 DUP2 MSTORE PUSH1 0x4 ADD PUSH2 0xDA9 SWAP1 PUSH2 0x1D52 JUMP JUMPDEST PUSH1 0x40 MLOAD DUP1 SWAP2 SUB SWAP1 REVERT JUMPDEST PUSH1 0x0 PUSH20 0xFFFFFFFFFFFFFFFFFFFFFFFFFFFFFFFFFFFFFFFF AND DUP3 PUSH20 0xFFFFFFFFFFFFFFFFFFFFFFFFFFFFFFFFFFFFFFFF AND EQ ISZERO PUSH2 0xE22 JUMPI PUSH1 0x40 MLOAD PUSH32 0x8C379A000000000000000000000000000000000000000000000000000000000 DUP2 MSTORE PUSH1 0x4 ADD PUSH2 0xE19 SWAP1 PUSH2 0x1C32 JUMP JUMPDEST PUSH1 0x40 MLOAD DUP1 SWAP2 SUB SWAP1 REVERT JUMPDEST DUP1 PUSH1 0x1 PUSH1 0x0 DUP6 PUSH20 0xFFFFFFFFFFFFFFFFFFFFFFFFFFFFFFFFFFFFFFFF AND PUSH20 0xFFFFFFFFFFFFFFFFFFFFFFFFFFFFFFFFFFFFFFFF AND DUP2 MSTORE PUSH1 0x20 ADD SWAP1 DUP2 MSTORE PUSH1 0x20 ADD PUSH1 0x0 KECCAK256 PUSH1 0x0 DUP5 PUSH20 0xFFFFFFFFFFFFFFFFFFFFFFFFFFFFFFFFFFFFFFFF AND PUSH20 0xFFFFFFFFFFFFFFFFFFFFFFFFFFFFFFFFFFFFFFFF AND DUP2 MSTORE PUSH1 0x20 ADD SWAP1 DUP2 MSTORE PUSH1 0x20 ADD PUSH1 0x0 KECCAK256 DUP2 SWAP1 SSTORE POP DUP2 PUSH20 0xFFFFFFFFFFFFFFFFFFFFFFFFFFFFFFFFFFFFFFFF AND DUP4 PUSH20 0xFFFFFFFFFFFFFFFFFFFFFFFFFFFFFFFFFFFFFFFF AND PUSH32 0x8C5BE1E5EBEC7D5BD14F71427D1E84F3DD0314C0F7B2291E5B200AC8C7C3B925 DUP4 PUSH1 0x40 MLOAD PUSH2 0xF00 SWAP2 SWAP1 PUSH2 0x1D92 JUMP JUMPDEST PUSH1 0x40 MLOAD DUP1 SWAP2 SUB SWAP1 LOG3 POP POP POP JUMP JUMPDEST PUSH1 0x0 PUSH20 0xFFFFFFFFFFFFFFFFFFFFFFFFFFFFFFFFFFFFFFFF AND DUP4 PUSH20 0xFFFFFFFFFFFFFFFFFFFFFFFFFFFFFFFFFFFFFFFF AND EQ ISZERO PUSH2 0xF7D JUMPI PUSH1 0x40 MLOAD PUSH32 0x8C379A000000000000000000000000000000000000000000000000000000000 DUP2 MSTORE PUSH1 0x4 ADD PUSH2 0xF74 SWAP1 PUSH2 0x1D32 JUMP JUMPDEST PUSH1 0x40 MLOAD DUP1 SWAP2 SUB SWAP1 REVERT JUMPDEST PUSH1 0x0 PUSH20 0xFFFFFFFFFFFFFFFFFFFFFFFFFFFFFFFFFFFFFFFF AND DUP3 PUSH20 0xFFFFFFFFFFFFFFFFFFFFFFFFFFFFFFFFFFFFFFFF AND EQ ISZERO PUSH2 0xFED JUMPI PUSH1 0x40 MLOAD PUSH32 0x8C379A000000000000000000000000000000000000000000000000000000000 DUP2 MSTORE PUSH1 0x4 ADD PUSH2 0xFE4 SWAP1 PUSH2 0x1BB2 JUMP JUMPDEST PUSH1 0x40 MLOAD DUP1 SWAP2 SUB SWAP1 REVERT JUMPDEST PUSH2 0xFF8 DUP4 DUP4 DUP4 PUSH2 0x1570 JUMP JUMPDEST PUSH1 0x0 DUP1 PUSH1 0x0 DUP6 PUSH20 0xFFFFFFFFFFFFFFFFFFFFFFFFFFFFFFFFFFFFFFFF AND PUSH20 0xFFFFFFFFFFFFFFFFFFFFFFFFFFFFFFFFFFFFFFFF AND DUP2 MSTORE PUSH1 0x20 ADD SWAP1 DUP2 MSTORE PUSH1 0x20 ADD PUSH1 0x0 KECCAK256 SLOAD SWAP1 POP DUP2 DUP2 LT ISZERO PUSH2 0x107E JUMPI PUSH1 0x40 MLOAD PUSH32 0x8C379A000000000000000000000000000000000000000000000000000000000 DUP2 MSTORE PUSH1 0x4 ADD PUSH2 0x1075 SWAP1 PUSH2 0x1C52 JUMP JUMPDEST PUSH1 0x40 MLOAD DUP1 SWAP2 SUB SWAP1 REVERT JUMPDEST DUP2 DUP2 SUB PUSH1 0x0 DUP1 DUP7 PUSH20 0xFFFFFFFFFFFFFFFFFFFFFFFFFFFFFFFFFFFFFFFF AND PUSH20 0xFFFFFFFFFFFFFFFFFFFFFFFFFFFFFFFFFFFFFFFF AND DUP2 MSTORE PUSH1 0x20 ADD SWAP1 DUP2 MSTORE PUSH1 0x20 ADD PUSH1 0x0 KECCAK256 DUP2 SWAP1 SSTORE POP DUP2 PUSH1 0x0 DUP1 DUP6 PUSH20 0xFFFFFFFFFFFFFFFFFFFFFFFFFFFFFFFFFFFFFFFF AND PUSH20 0xFFFFFFFFFFFFFFFFFFFFFFFFFFFFFFFFFFFFFFFF AND DUP2 MSTORE PUSH1 0x20 ADD SWAP1 DUP2 MSTORE PUSH1 0x20 ADD PUSH1 0x0 KECCAK256 PUSH1 0x0 DUP3 DUP3 SLOAD PUSH2 0x1111 SWAP2 SWAP1 PUSH2 0x1E61 JUMP JUMPDEST SWAP3 POP POP DUP2 SWAP1 SSTORE POP DUP3 PUSH20 0xFFFFFFFFFFFFFFFFFFFFFFFFFFFFFFFFFFFFFFFF AND DUP5 PUSH20 0xFFFFFFFFFFFFFFFFFFFFFFFFFFFFFFFFFFFFFFFF AND PUSH32 0xDDF252AD1BE2C89B69C2B068FC378DAA952BA7F163C4A11628F55A4DF523B3EF DUP5 PUSH1 0x40 MLOAD PUSH2 0x1175 SWAP2 SWAP1 PUSH2 0x1D92 JUMP JUMPDEST PUSH1 0x40 MLOAD DUP1 SWAP2 SUB SWAP1 LOG3 PUSH2 0x1188 DUP5 DUP5 DUP5 PUSH2 0x15C8 JUMP JUMPDEST POP POP POP POP JUMP JUMPDEST PUSH2 0x1196 PUSH2 0x6D8 JUMP JUMPDEST PUSH2 0x11D5 JUMPI PUSH1 0x40 MLOAD PUSH32 0x8C379A000000000000000000000000000000000000000000000000000000000 DUP2 MSTORE PUSH1 0x4 ADD PUSH2 0x11CC SWAP1 PUSH2 0x1BD2 JUMP JUMPDEST PUSH1 0x40 MLOAD DUP1 SWAP2 SUB SWAP1 REVERT JUMPDEST PUSH1 0x0 PUSH1 0x5 PUSH1 0x0 PUSH2 0x100 EXP DUP2 SLOAD DUP2 PUSH1 0xFF MUL NOT AND SWAP1 DUP4 ISZERO ISZERO MUL OR SWAP1 SSTORE POP PUSH32 0x5DB9EE0A495BF2E6FF9C91A7834C1BA4FDD244A5E8AA4E537BD38AEAE4B073AA PUSH2 0x1219 PUSH2 0xD3A JUMP JUMPDEST PUSH1 0x40 MLOAD PUSH2 0x1226 SWAP2 SWAP1 PUSH2 0x1B5A JUMP JUMPDEST PUSH1 0x40 MLOAD DUP1 SWAP2 SUB SWAP1 LOG1 JUMP JUMPDEST PUSH1 0x0 PUSH20 0xFFFFFFFFFFFFFFFFFFFFFFFFFFFFFFFFFFFFFFFF AND DUP3 PUSH20 0xFFFFFFFFFFFFFFFFFFFFFFFFFFFFFFFFFFFFFFFF AND EQ ISZERO PUSH2 0x12A0 JUMPI PUSH1 0x40 MLOAD PUSH32 0x8C379A000000000000000000000000000000000000000000000000000000000 DUP2 MSTORE PUSH1 0x4 ADD PUSH2 0x1297 SWAP1 PUSH2 0x1D12 JUMP JUMPDEST PUSH1 0x40 MLOAD DUP1 SWAP2 SUB SWAP1 REVERT JUMPDEST PUSH2 0x12AC DUP3 PUSH1 0x0 DUP4 PUSH2 0x1570 JUMP JUMPDEST PUSH1 0x0 DUP1 PUSH1 0x0 DUP5 PUSH20 0xFFFFFFFFFFFFFFFFFFFFFFFFFFFFFFFFFFFFFFFF AND PUSH20 0xFFFFFFFFFFFFFFFFFFFFFFFFFFFFFFFFFFFFFFFF AND DUP2 MSTORE PUSH1 0x20 ADD SWAP1 DUP2 MSTORE PUSH1 0x20 ADD PUSH1 0x0 KECCAK256 SLOAD SWAP1 POP DUP2 DUP2 LT ISZERO PUSH2 0x1332 JUMPI PUSH1 0x40 MLOAD PUSH32 0x8C379A000000000000000000000000000000000000000000000000000000000 DUP2 MSTORE PUSH1 0x4 ADD PUSH2 0x1329 SWAP1 PUSH2 0x1BF2 JUMP JUMPDEST PUSH1 0x40 MLOAD DUP1 SWAP2 SUB SWAP1 REVERT JUMPDEST DUP2 DUP2 SUB PUSH1 0x0 DUP1 DUP6 PUSH20 0xFFFFFFFFFFFFFFFFFFFFFFFFFFFFFFFFFFFFFFFF AND PUSH20 0xFFFFFFFFFFFFFFFFFFFFFFFFFFFFFFFFFFFFFFFF AND DUP2 MSTORE PUSH1 0x20 ADD SWAP1 DUP2 MSTORE PUSH1 0x20 ADD PUSH1 0x0 KECCAK256 DUP2 SWAP1 SSTORE POP DUP2 PUSH1 0x2 PUSH1 0x0 DUP3 DUP3 SLOAD PUSH2 0x1389 SWAP2 SWAP1 PUSH2 0x1EB7 JUMP JUMPDEST SWAP3 POP POP DUP2 SWAP1 SSTORE POP PUSH1 0x0 PUSH20 0xFFFFFFFFFFFFFFFFFFFFFFFFFFFFFFFFFFFFFFFF AND DUP4 PUSH20 0xFFFFFFFFFFFFFFFFFFFFFFFFFFFFFFFFFFFFFFFF AND PUSH32 0xDDF252AD1BE2C89B69C2B068FC378DAA952BA7F163C4A11628F55A4DF523B3EF DUP5 PUSH1 0x40 MLOAD PUSH2 0x13EE SWAP2 SWAP1 PUSH2 0x1D92 JUMP JUMPDEST PUSH1 0x40 MLOAD DUP1 SWAP2 SUB SWAP1 LOG3 PUSH2 0x1402 DUP4 PUSH1 0x0 DUP5 PUSH2 0x15C8 JUMP JUMPDEST POP POP POP JUMP JUMPDEST PUSH1 0x0 PUSH1 0x5 PUSH1 0x1 SWAP1 SLOAD SWAP1 PUSH2 0x100 EXP SWAP1 DIV PUSH20 0xFFFFFFFFFFFFFFFFFFFFFFFFFFFFFFFFFFFFFFFF AND SWAP1 POP DUP2 PUSH1 0x5 PUSH1 0x1 PUSH2 0x100 EXP DUP2 SLOAD DUP2 PUSH20 0xFFFFFFFFFFFFFFFFFFFFFFFFFFFFFFFFFFFFFFFF MUL NOT AND SWAP1 DUP4 PUSH20 0xFFFFFFFFFFFFFFFFFFFFFFFFFFFFFFFFFFFFFFFF AND MUL OR SWAP1 SSTORE POP DUP2 PUSH20 0xFFFFFFFFFFFFFFFFFFFFFFFFFFFFFFFFFFFFFFFF AND DUP2 PUSH20 0xFFFFFFFFFFFFFFFFFFFFFFFFFFFFFFFFFFFFFFFF AND PUSH32 0x8BE0079C531659141344CD1FD0A4F28419497F9722A3DAAFE3B4186F6B6457E0 PUSH1 0x40 MLOAD PUSH1 0x40 MLOAD DUP1 SWAP2 SUB SWAP1 LOG3 POP POP JUMP JUMPDEST PUSH2 0x14D5 PUSH2 0x6D8 JUMP JUMPDEST ISZERO PUSH2 0x1515 JUMPI PUSH1 0x40 MLOAD PUSH32 0x8C379A000000000000000000000000000000000000000000000000000000000 DUP2 MSTORE PUSH1 0x4 ADD PUSH2 0x150C SWAP1 PUSH2 0x1C92 JUMP JUMPDEST PUSH1 0x40 MLOAD DUP1 SWAP2 SUB SWAP1 REVERT JUMPDEST PUSH1 0x1 PUSH1 0x5 PUSH1 0x0 PUSH2 0x100 EXP DUP2 SLOAD DUP2 PUSH1 0xFF MUL NOT AND SWAP1 DUP4 ISZERO ISZERO MUL OR SWAP1 SSTORE POP PUSH32 0x62E78CEA01BEE320CD4E420270B5EA74000D11B0C9F74754EBDBFC544B05A258 PUSH2 0x1559 PUSH2 0xD3A JUMP JUMPDEST PUSH1 0x40 MLOAD PUSH2 0x1566 SWAP2 SWAP1 PUSH2 0x1B5A JUMP JUMPDEST PUSH1 0x40 MLOAD DUP1 SWAP2 SUB SWAP1 LOG1 JUMP JUMPDEST PUSH2 0x1578 PUSH2 0x6D8 JUMP JUMPDEST ISZERO PUSH2 0x15B8 JUMPI PUSH1 0x40 MLOAD PUSH32 0x8C379A000000000000000000000000000000000000000000000000000000000 DUP2 MSTORE PUSH1 0x4 ADD PUSH2 0x15AF SWAP1 PUSH2 0x1C92 JUMP JUMPDEST PUSH1 0x40 MLOAD DUP1 SWAP2 SUB SWAP1 REVERT JUMPDEST PUSH2 0x15C3 DUP4 DUP4 DUP4 PUSH2 0xD35 JUMP JUMPDEST POP POP POP JUMP JUMPDEST POP POP POP JUMP JUMPDEST PUSH1 0x0 PUSH2 0x15E0 PUSH2 0x15DB DUP5 PUSH2 0x1DED JUMP JUMPDEST PUSH2 0x1DC8 JUMP JUMPDEST SWAP1 POP DUP1 DUP4 DUP3 MSTORE PUSH1 0x20 DUP3 ADD SWAP1 POP DUP3 DUP6 PUSH1 0x20 DUP7 MUL DUP3 ADD GT ISZERO PUSH2 0x1603 JUMPI PUSH2 0x1602 PUSH2 0x20E0 JUMP JUMPDEST JUMPDEST PUSH1 0x0 JUMPDEST DUP6 DUP2 LT ISZERO PUSH2 0x1633 JUMPI DUP2 PUSH2 0x1619 DUP9 DUP3 PUSH2 0x16AD JUMP JUMPDEST DUP5 MSTORE PUSH1 0x20 DUP5 ADD SWAP4 POP PUSH1 0x20 DUP4 ADD SWAP3 POP POP PUSH1 0x1 DUP2 ADD SWAP1 POP PUSH2 0x1606 JUMP JUMPDEST POP POP POP SWAP4 SWAP3 POP POP POP JUMP JUMPDEST PUSH1 0x0 PUSH2 0x1650 PUSH2 0x164B DUP5 PUSH2 0x1E19 JUMP JUMPDEST PUSH2 0x1DC8 JUMP JUMPDEST SWAP1 POP DUP1 DUP4 DUP3 MSTORE PUSH1 0x20 DUP3 ADD SWAP1 POP DUP3 DUP6 PUSH1 0x20 DUP7 MUL DUP3 ADD GT ISZERO PUSH2 0x1673 JUMPI PUSH2 0x1672 PUSH2 0x20E0 JUMP JUMPDEST JUMPDEST PUSH1 0x0 JUMPDEST DUP6 DUP2 LT ISZERO PUSH2 0x16A3 JUMPI DUP2 PUSH2 0x1689 DUP9 DUP3 PUSH2 0x171E JUMP JUMPDEST DUP5 MSTORE PUSH1 0x20 DUP5 ADD SWAP4 POP PUSH1 0x20 DUP4 ADD SWAP3 POP POP PUSH1 0x1 DUP2 ADD SWAP1 POP PUSH2 0x1676 JUMP JUMPDEST POP POP POP SWAP4 SWAP3 POP POP POP JUMP JUMPDEST PUSH1 0x0 DUP2 CALLDATALOAD SWAP1 POP PUSH2 0x16BC DUP2 PUSH2 0x2509 JUMP JUMPDEST SWAP3 SWAP2 POP POP JUMP JUMPDEST PUSH1 0x0 DUP3 PUSH1 0x1F DUP4 ADD SLT PUSH2 0x16D7 JUMPI PUSH2 0x16D6 PUSH2 0x20DB JUMP JUMPDEST JUMPDEST DUP2 CALLDATALOAD PUSH2 0x16E7 DUP5 DUP3 PUSH1 0x20 DUP7 ADD PUSH2 0x15CD JUMP JUMPDEST SWAP2 POP POP SWAP3 SWAP2 POP POP JUMP JUMPDEST PUSH1 0x0 DUP3 PUSH1 0x1F DUP4 ADD SLT PUSH2 0x1705 JUMPI PUSH2 0x1704 PUSH2 0x20DB JUMP JUMPDEST JUMPDEST DUP2 CALLDATALOAD PUSH2 0x1715 DUP5 DUP3 PUSH1 0x20 DUP7 ADD PUSH2 0x163D JUMP JUMPDEST SWAP2 POP POP SWAP3 SWAP2 POP POP JUMP JUMPDEST PUSH1 0x0 DUP2 CALLDATALOAD SWAP1 POP PUSH2 0x172D DUP2 PUSH2 0x2520 JUMP JUMPDEST SWAP3 SWAP2 POP POP JUMP JUMPDEST PUSH1 0x0 PUSH1 0x20 DUP3 DUP5 SUB SLT ISZERO PUSH2 0x1749 JUMPI PUSH2 0x1748 PUSH2 0x20EA JUMP JUMPDEST JUMPDEST PUSH1 0x0 PUSH2 0x1757 DUP5 DUP3 DUP6 ADD PUSH2 0x16AD JUMP JUMPDEST SWAP2 POP POP SWAP3 SWAP2 POP POP JUMP JUMPDEST PUSH1 0x0 DUP1 PUSH1 0x40 DUP4 DUP6 SUB SLT ISZERO PUSH2 0x1777 JUMPI PUSH2 0x1776 PUSH2 0x20EA JUMP JUMPDEST JUMPDEST PUSH1 0x0 PUSH2 0x1785 DUP6 DUP3 DUP7 ADD PUSH2 0x16AD JUMP JUMPDEST SWAP3 POP POP PUSH1 0x20 PUSH2 0x1796 DUP6 DUP3 DUP7 ADD PUSH2 0x16AD JUMP JUMPDEST SWAP2 POP POP SWAP3 POP SWAP3 SWAP1 POP JUMP JUMPDEST PUSH1 0x0 DUP1 PUSH1 0x0 PUSH1 0x60 DUP5 DUP7 SUB SLT ISZERO PUSH2 0x17B9 JUMPI PUSH2 0x17B8 PUSH2 0x20EA JUMP JUMPDEST JUMPDEST PUSH1 0x0 PUSH2 0x17C7 DUP7 DUP3 DUP8 ADD PUSH2 0x16AD JUMP JUMPDEST SWAP4 POP POP PUSH1 0x20 PUSH2 0x17D8 DUP7 DUP3 DUP8 ADD PUSH2 0x16AD JUMP JUMPDEST SWAP3 POP POP PUSH1 0x40 PUSH2 0x17E9 DUP7 DUP3 DUP8 ADD PUSH2 0x171E JUMP JUMPDEST SWAP2 POP POP SWAP3 POP SWAP3 POP SWAP3 JUMP JUMPDEST PUSH1 0x0 DUP1 PUSH1 0x40 DUP4 DUP6 SUB SLT ISZERO PUSH2 0x180A JUMPI PUSH2 0x1809 PUSH2 0x20EA JUMP JUMPDEST JUMPDEST PUSH1 0x0 PUSH2 0x1818 DUP6 DUP3 DUP7 ADD PUSH2 0x16AD JUMP JUMPDEST SWAP3 POP POP PUSH1 0x20 PUSH2 0x1829 DUP6 DUP3 DUP7 ADD PUSH2 0x171E JUMP JUMPDEST SWAP2 POP POP SWAP3 POP SWAP3 SWAP1 POP JUMP JUMPDEST PUSH1 0x0 DUP1 PUSH1 0x40 DUP4 DUP6 SUB SLT ISZERO PUSH2 0x184A JUMPI PUSH2 0x1849 PUSH2 0x20EA JUMP JUMPDEST JUMPDEST PUSH1 0x0 DUP4 ADD CALLDATALOAD PUSH8 0xFFFFFFFFFFFFFFFF DUP2 GT ISZERO PUSH2 0x1868 JUMPI PUSH2 0x1867 PUSH2 0x20E5 JUMP JUMPDEST JUMPDEST PUSH2 0x1874 DUP6 DUP3 DUP7 ADD PUSH2 0x16C2 JUMP JUMPDEST SWAP3 POP POP PUSH1 0x20 DUP4 ADD CALLDATALOAD PUSH8 0xFFFFFFFFFFFFFFFF DUP2 GT ISZERO PUSH2 0x1895 JUMPI PUSH2 0x1894 PUSH2 0x20E5 JUMP JUMPDEST JUMPDEST PUSH2 0x18A1 DUP6 DUP3 DUP7 ADD PUSH2 0x16F0 JUMP JUMPDEST SWAP2 POP POP SWAP3 POP SWAP3 SWAP1 POP JUMP JUMPDEST PUSH1 0x0 PUSH1 0x20 DUP3 DUP5 SUB SLT ISZERO PUSH2 0x18C1 JUMPI PUSH2 0x18C0 PUSH2 0x20EA JUMP JUMPDEST JUMPDEST PUSH1 0x0 PUSH2 0x18CF DUP5 DUP3 DUP6 ADD PUSH2 0x171E JUMP JUMPDEST SWAP2 POP POP SWAP3 SWAP2 POP POP JUMP JUMPDEST PUSH2 0x18E1 DUP2 PUSH2 0x1EEB JUMP JUMPDEST DUP3 MSTORE POP POP JUMP JUMPDEST PUSH2 0x18F0 DUP2 PUSH2 0x1EFD JUMP JUMPDEST DUP3 MSTORE POP POP JUMP JUMPDEST PUSH1 0x0 PUSH2 0x1901 DUP3 PUSH2 0x1E45 JUMP JUMPDEST PUSH2 0x190B DUP2 DUP6 PUSH2 0x1E50 JUMP JUMPDEST SWAP4 POP PUSH2 0x191B DUP2 DUP6 PUSH1 0x20 DUP7 ADD PUSH2 0x1F40 JUMP JUMPDEST PUSH2 0x1924 DUP2 PUSH2 0x20EF JUMP JUMPDEST DUP5 ADD SWAP2 POP POP SWAP3 SWAP2 POP POP JUMP JUMPDEST PUSH1 0x0 PUSH2 0x193C PUSH1 0x23 DUP4 PUSH2 0x1E50 JUMP JUMPDEST SWAP2 POP PUSH2 0x1947 DUP3 PUSH2 0x2100 JUMP JUMPDEST PUSH1 0x40 DUP3 ADD SWAP1 POP SWAP2 SWAP1 POP JUMP JUMPDEST PUSH1 0x0 PUSH2 0x195F PUSH1 0x14 DUP4 PUSH2 0x1E50 JUMP JUMPDEST SWAP2 POP PUSH2 0x196A DUP3 PUSH2 0x214F JUMP JUMPDEST PUSH1 0x20 DUP3 ADD SWAP1 POP SWAP2 SWAP1 POP JUMP JUMPDEST PUSH1 0x0 PUSH2 0x1982 PUSH1 0x22 DUP4 PUSH2 0x1E50 JUMP JUMPDEST SWAP2 POP PUSH2 0x198D DUP3 PUSH2 0x2178 JUMP JUMPDEST PUSH1 0x40 DUP3 ADD SWAP1 POP SWAP2 SWAP1 POP JUMP JUMPDEST PUSH1 0x0 PUSH2 0x19A5 PUSH1 0x26 DUP4 PUSH2 0x1E50 JUMP JUMPDEST SWAP2 POP PUSH2 0x19B0 DUP3 PUSH2 0x21C7 JUMP JUMPDEST PUSH1 0x40 DUP3 ADD SWAP1 POP SWAP2 SWAP1 POP JUMP JUMPDEST PUSH1 0x0 PUSH2 0x19C8 PUSH1 0x22 DUP4 PUSH2 0x1E50 JUMP JUMPDEST SWAP2 POP PUSH2 0x19D3 DUP3 PUSH2 0x2216 JUMP JUMPDEST PUSH1 0x40 DUP3 ADD SWAP1 POP SWAP2 SWAP1 POP JUMP JUMPDEST PUSH1 0x0 PUSH2 0x19EB PUSH1 0x26 DUP4 PUSH2 0x1E50 JUMP JUMPDEST SWAP2 POP PUSH2 0x19F6 DUP3 PUSH2 0x2265 JUMP JUMPDEST PUSH1 0x40 DUP3 ADD SWAP1 POP SWAP2 SWAP1 POP JUMP JUMPDEST PUSH1 0x0 PUSH2 0x1A0E PUSH1 0x13 DUP4 PUSH2 0x1E50 JUMP JUMPDEST SWAP2 POP PUSH2 0x1A19 DUP3 PUSH2 0x22B4 JUMP JUMPDEST PUSH1 0x20 DUP3 ADD SWAP1 POP SWAP2 SWAP1 POP JUMP JUMPDEST PUSH1 0x0 PUSH2 0x1A31 PUSH1 0x10 DUP4 PUSH2 0x1E50 JUMP JUMPDEST SWAP2 POP PUSH2 0x1A3C DUP3 PUSH2 0x22DD JUMP JUMPDEST PUSH1 0x20 DUP3 ADD SWAP1 POP SWAP2 SWAP1 POP JUMP JUMPDEST PUSH1 0x0 PUSH2 0x1A54 PUSH1 0x28 DUP4 PUSH2 0x1E50 JUMP JUMPDEST SWAP2 POP PUSH2 0x1A5F DUP3 PUSH2 0x2306 JUMP JUMPDEST PUSH1 0x40 DUP3 ADD SWAP1 POP SWAP2 SWAP1 POP JUMP JUMPDEST PUSH1 0x0 PUSH2 0x1A77 PUSH1 0x20 DUP4 PUSH2 0x1E50 JUMP JUMPDEST SWAP2 POP PUSH2 0x1A82 DUP3 PUSH2 0x2355 JUMP JUMPDEST PUSH1 0x20 DUP3 ADD SWAP1 POP SWAP2 SWAP1 POP JUMP JUMPDEST PUSH1 0x0 PUSH2 0x1A9A PUSH1 0x24 DUP4 PUSH2 0x1E50 JUMP JUMPDEST SWAP2 POP PUSH2 0x1AA5 DUP3 PUSH2 0x237E JUMP JUMPDEST PUSH1 0x40 DUP3 ADD SWAP1 POP SWAP2 SWAP1 POP JUMP JUMPDEST PUSH1 0x0 PUSH2 0x1ABD PUSH1 0x21 DUP4 PUSH2 0x1E50 JUMP JUMPDEST SWAP2 POP PUSH2 0x1AC8 DUP3 PUSH2 0x23CD JUMP JUMPDEST PUSH1 0x40 DUP3 ADD SWAP1 POP SWAP2 SWAP1 POP JUMP JUMPDEST PUSH1 0x0 PUSH2 0x1AE0 PUSH1 0x25 DUP4 PUSH2 0x1E50 JUMP JUMPDEST SWAP2 POP PUSH2 0x1AEB DUP3 PUSH2 0x241C JUMP JUMPDEST PUSH1 0x40 DUP3 ADD SWAP1 POP SWAP2 SWAP1 POP JUMP JUMPDEST PUSH1 0x0 PUSH2 0x1B03 PUSH1 0x24 DUP4 PUSH2 0x1E50 JUMP JUMPDEST SWAP2 POP PUSH2 0x1B0E DUP3 PUSH2 0x246B JUMP JUMPDEST PUSH1 0x40 DUP3 ADD SWAP1 POP SWAP2 SWAP1 POP JUMP JUMPDEST PUSH1 0x0 PUSH2 0x1B26 PUSH1 0x25 DUP4 PUSH2 0x1E50 JUMP JUMPDEST SWAP2 POP PUSH2 0x1B31 DUP3 PUSH2 0x24BA JUMP JUMPDEST PUSH1 0x40 DUP3 ADD SWAP1 POP SWAP2 SWAP1 POP JUMP JUMPDEST PUSH2 0x1B45 DUP2 PUSH2 0x1F29 JUMP JUMPDEST DUP3 MSTORE POP POP JUMP JUMPDEST PUSH2 0x1B54 DUP2 PUSH2 0x1F33 JUMP JUMPDEST DUP3 MSTORE POP POP JUMP JUMPDEST PUSH1 0x0 PUSH1 0x20 DUP3 ADD SWAP1 POP PUSH2 0x1B6F PUSH1 0x0 DUP4 ADD DUP5 PUSH2 0x18D8 JUMP JUMPDEST SWAP3 SWAP2 POP POP JUMP JUMPDEST PUSH1 0x0 PUSH1 0x20 DUP3 ADD SWAP1 POP PUSH2 0x1B8A PUSH1 0x0 DUP4 ADD DUP5 PUSH2 0x18E7 JUMP JUMPDEST SWAP3 SWAP2 POP POP JUMP JUMPDEST PUSH1 0x0 PUSH1 0x20 DUP3 ADD SWAP1 POP DUP2 DUP2 SUB PUSH1 0x0 DUP4 ADD MSTORE PUSH2 0x1BAA DUP2 DUP5 PUSH2 0x18F6 JUMP JUMPDEST SWAP1 POP SWAP3 SWAP2 POP POP JUMP JUMPDEST PUSH1 0x0 PUSH1 0x20 DUP3 ADD SWAP1 POP DUP2 DUP2 SUB PUSH1 0x0 DUP4 ADD MSTORE PUSH2 0x1BCB DUP2 PUSH2 0x192F JUMP JUMPDEST SWAP1 POP SWAP2 SWAP1 POP JUMP JUMPDEST PUSH1 0x0 PUSH1 0x20 DUP3 ADD SWAP1 POP DUP2 DUP2 SUB PUSH1 0x0 DUP4 ADD MSTORE PUSH2 0x1BEB DUP2 PUSH2 0x1952 JUMP JUMPDEST SWAP1 POP SWAP2 SWAP1 POP JUMP JUMPDEST PUSH1 0x0 PUSH1 0x20 DUP3 ADD SWAP1 POP DUP2 DUP2 SUB PUSH1 0x0 DUP4 ADD MSTORE PUSH2 0x1C0B DUP2 PUSH2 0x1975 JUMP JUMPDEST SWAP1 POP SWAP2 SWAP1 POP JUMP JUMPDEST PUSH1 0x0 PUSH1 0x20 DUP3 ADD SWAP1 POP DUP2 DUP2 SUB PUSH1 0x0 DUP4 ADD MSTORE PUSH2 0x1C2B DUP2 PUSH2 0x1998 JUMP JUMPDEST SWAP1 POP SWAP2 SWAP1 POP JUMP JUMPDEST PUSH1 0x0 PUSH1 0x20 DUP3 ADD SWAP1 POP DUP2 DUP2 SUB PUSH1 0x0 DUP4 ADD MSTORE PUSH2 0x1C4B DUP2 PUSH2 0x19BB JUMP JUMPDEST SWAP1 POP SWAP2 SWAP1 POP JUMP JUMPDEST PUSH1 0x0 PUSH1 0x20 DUP3 ADD SWAP1 POP DUP2 DUP2 SUB PUSH1 0x0 DUP4 ADD MSTORE PUSH2 0x1C6B DUP2 PUSH2 0x19DE JUMP JUMPDEST SWAP1 POP SWAP2 SWAP1 POP JUMP JUMPDEST PUSH1 0x0 PUSH1 0x20 DUP3 ADD SWAP1 POP DUP2 DUP2 SUB PUSH1 0x0 DUP4 ADD MSTORE PUSH2 0x1C8B DUP2 PUSH2 0x1A01 JUMP JUMPDEST SWAP1 POP SWAP2 SWAP1 POP JUMP JUMPDEST PUSH1 0x0 PUSH1 0x20 DUP3 ADD SWAP1 POP DUP2 DUP2 SUB PUSH1 0x0 DUP4 ADD MSTORE PUSH2 0x1CAB DUP2 PUSH2 0x1A24 JUMP JUMPDEST SWAP1 POP SWAP2 SWAP1 POP JUMP JUMPDEST PUSH1 0x0 PUSH1 0x20 DUP3 ADD SWAP1 POP DUP2 DUP2 SUB PUSH1 0x0 DUP4 ADD MSTORE PUSH2 0x1CCB DUP2 PUSH2 0x1A47 JUMP JUMPDEST SWAP1 POP SWAP2 SWAP1 POP JUMP JUMPDEST PUSH1 0x0 PUSH1 0x20 DUP3 ADD SWAP1 POP DUP2 DUP2 SUB PUSH1 0x0 DUP4 ADD MSTORE PUSH2 0x1CEB DUP2 PUSH2 0x1A6A JUMP JUMPDEST SWAP1 POP SWAP2 SWAP1 POP JUMP JUMPDEST PUSH1 0x0 PUSH1 0x20 DUP3 ADD SWAP1 POP DUP2 DUP2 SUB PUSH1 0x0 DUP4 ADD MSTORE PUSH2 0x1D0B DUP2 PUSH2 0x1A8D JUMP JUMPDEST SWAP1 POP SWAP2 SWAP1 POP JUMP JUMPDEST PUSH1 0x0 PUSH1 0x20 DUP3 ADD SWAP1 POP DUP2 DUP2 SUB PUSH1 0x0 DUP4 ADD MSTORE PUSH2 0x1D2B DUP2 PUSH2 0x1AB0 JUMP JUMPDEST SWAP1 POP SWAP2 SWAP1 POP JUMP JUMPDEST PUSH1 0x0 PUSH1 0x20 DUP3 ADD SWAP1 POP DUP2 DUP2 SUB PUSH1 0x0 DUP4 ADD MSTORE PUSH2 0x1D4B DUP2 PUSH2 0x1AD3 JUMP JUMPDEST SWAP1 POP SWAP2 SWAP1 POP JUMP JUMPDEST PUSH1 0x0 PUSH1 0x20 DUP3 ADD SWAP1 POP DUP2 DUP2 SUB PUSH1 0x0 DUP4 ADD MSTORE PUSH2 0x1D6B DUP2 PUSH2 0x1AF6 JUMP JUMPDEST SWAP1 POP SWAP2 SWAP1 POP JUMP JUMPDEST PUSH1 0x0 PUSH1 0x20 DUP3 ADD SWAP1 POP DUP2 DUP2 SUB PUSH1 0x0 DUP4 ADD MSTORE PUSH2 0x1D8B DUP2 PUSH2 0x1B19 JUMP JUMPDEST SWAP1 POP SWAP2 SWAP1 POP JUMP JUMPDEST PUSH1 0x0 PUSH1 0x20 DUP3 ADD SWAP1 POP PUSH2 0x1DA7 PUSH1 0x0 DUP4 ADD DUP5 PUSH2 0x1B3C JUMP JUMPDEST SWAP3 SWAP2 POP POP JUMP JUMPDEST PUSH1 0x0 PUSH1 0x20 DUP3 ADD SWAP1 POP PUSH2 0x1DC2 PUSH1 0x0 DUP4 ADD DUP5 PUSH2 0x1B4B JUMP JUMPDEST SWAP3 SWAP2 POP POP JUMP JUMPDEST PUSH1 0x0 PUSH2 0x1DD2 PUSH2 0x1DE3 JUMP JUMPDEST SWAP1 POP PUSH2 0x1DDE DUP3 DUP3 PUSH2 0x1FA5 JUMP JUMPDEST SWAP2 SWAP1 POP JUMP JUMPDEST PUSH1 0x0 PUSH1 0x40 MLOAD SWAP1 POP SWAP1 JUMP JUMPDEST PUSH1 0x0 PUSH8 0xFFFFFFFFFFFFFFFF DUP3 GT ISZERO PUSH2 0x1E08 JUMPI PUSH2 0x1E07 PUSH2 0x20AC JUMP JUMPDEST JUMPDEST PUSH1 0x20 DUP3 MUL SWAP1 POP PUSH1 0x20 DUP2 ADD SWAP1 POP SWAP2 SWAP1 POP JUMP JUMPDEST PUSH1 0x0 PUSH8 0xFFFFFFFFFFFFFFFF DUP3 GT ISZERO PUSH2 0x1E34 JUMPI PUSH2 0x1E33 PUSH2 0x20AC JUMP JUMPDEST JUMPDEST PUSH1 0x20 DUP3 MUL SWAP1 POP PUSH1 0x20 DUP2 ADD SWAP1 POP SWAP2 SWAP1 POP JUMP JUMPDEST PUSH1 0x0 DUP2 MLOAD SWAP1 POP SWAP2 SWAP1 POP JUMP JUMPDEST PUSH1 0x0 DUP3 DUP3 MSTORE PUSH1 0x20 DUP3 ADD SWAP1 POP SWAP3 SWAP2 POP POP JUMP JUMPDEST PUSH1 0x0 PUSH2 0x1E6C DUP3 PUSH2 0x1F29 JUMP JUMPDEST SWAP2 POP PUSH2 0x1E77 DUP4 PUSH2 0x1F29 JUMP JUMPDEST SWAP3 POP DUP3 PUSH32 0xFFFFFFFFFFFFFFFFFFFFFFFFFFFFFFFFFFFFFFFFFFFFFFFFFFFFFFFFFFFFFFFF SUB DUP3 GT ISZERO PUSH2 0x1EAC JUMPI PUSH2 0x1EAB PUSH2 0x201F JUMP JUMPDEST JUMPDEST DUP3 DUP3 ADD SWAP1 POP SWAP3 SWAP2 POP POP JUMP JUMPDEST PUSH1 0x0 PUSH2 0x1EC2 DUP3 PUSH2 0x1F29 JUMP JUMPDEST SWAP2 POP PUSH2 0x1ECD DUP4 PUSH2 0x1F29 JUMP JUMPDEST SWAP3 POP DUP3 DUP3 LT ISZERO PUSH2 0x1EE0 JUMPI PUSH2 0x1EDF PUSH2 0x201F JUMP JUMPDEST JUMPDEST DUP3 DUP3 SUB SWAP1 POP SWAP3 SWAP2 POP POP JUMP JUMPDEST PUSH1 0x0 PUSH2 0x1EF6 DUP3 PUSH2 0x1F09 JUMP JUMPDEST SWAP1 POP SWAP2 SWAP1 POP JUMP JUMPDEST PUSH1 0x0 DUP2 ISZERO ISZERO SWAP1 POP SWAP2 SWAP1 POP JUMP JUMPDEST PUSH1 0x0 PUSH20 0xFFFFFFFFFFFFFFFFFFFFFFFFFFFFFFFFFFFFFFFF DUP3 AND SWAP1 POP SWAP2 SWAP1 POP JUMP JUMPDEST PUSH1 0x0 DUP2 SWAP1 POP SWAP2 SWAP1 POP JUMP JUMPDEST PUSH1 0x0 PUSH1 0xFF DUP3 AND SWAP1 POP SWAP2 SWAP1 POP JUMP JUMPDEST PUSH1 0x0 JUMPDEST DUP4 DUP2 LT ISZERO PUSH2 0x1F5E JUMPI DUP1 DUP3 ADD MLOAD DUP2 DUP5 ADD MSTORE PUSH1 0x20 DUP2 ADD SWAP1 POP PUSH2 0x1F43 JUMP JUMPDEST DUP4 DUP2 GT ISZERO PUSH2 0x1F6D JUMPI PUSH1 0x0 DUP5 DUP5 ADD MSTORE JUMPDEST POP POP POP POP JUMP JUMPDEST PUSH1 0x0 PUSH1 0x2 DUP3 DIV SWAP1 POP PUSH1 0x1 DUP3 AND DUP1 PUSH2 0x1F8B JUMPI PUSH1 0x7F DUP3 AND SWAP2 POP JUMPDEST PUSH1 0x20 DUP3 LT DUP2 EQ ISZERO PUSH2 0x1F9F JUMPI PUSH2 0x1F9E PUSH2 0x204E JUMP JUMPDEST JUMPDEST POP SWAP2 SWAP1 POP JUMP JUMPDEST PUSH2 0x1FAE DUP3 PUSH2 0x20EF JUMP JUMPDEST DUP2 ADD DUP2 DUP2 LT PUSH8 0xFFFFFFFFFFFFFFFF DUP3 GT OR ISZERO PUSH2 0x1FCD JUMPI PUSH2 0x1FCC PUSH2 0x20AC JUMP JUMPDEST JUMPDEST DUP1 PUSH1 0x40 MSTORE POP POP POP JUMP JUMPDEST PUSH1 0x0 PUSH2 0x1FE1 DUP3 PUSH2 0x1F29 JUMP JUMPDEST SWAP2 POP PUSH32 0xFFFFFFFFFFFFFFFFFFFFFFFFFFFFFFFFFFFFFFFFFFFFFFFFFFFFFFFFFFFFFFFF DUP3 EQ ISZERO PUSH2 0x2014 JUMPI PUSH2 0x2013 PUSH2 0x201F JUMP JUMPDEST JUMPDEST PUSH1 0x1 DUP3 ADD SWAP1 POP SWAP2 SWAP1 POP JUMP JUMPDEST PUSH32 0x4E487B7100000000000000000000000000000000000000000000000000000000 PUSH1 0x0 MSTORE PUSH1 0x11 PUSH1 0x4 MSTORE PUSH1 0x24 PUSH1 0x0 REVERT JUMPDEST PUSH32 0x4E487B7100000000000000000000000000000000000000000000000000000000 PUSH1 0x0 MSTORE PUSH1 0x22 PUSH1 0x4 MSTORE PUSH1 0x24 PUSH1 0x0 REVERT JUMPDEST PUSH32 0x4E487B7100000000000000000000000000000000000000000000000000000000 PUSH1 0x0 MSTORE PUSH1 0x32 PUSH1 0x4 MSTORE PUSH1 0x24 PUSH1 0x0 REVERT JUMPDEST PUSH32 0x4E487B7100000000000000000000000000000000000000000000000000000000 PUSH1 0x0 MSTORE PUSH1 0x41 PUSH1 0x4 MSTORE PUSH1 0x24 PUSH1 0x0 REVERT JUMPDEST PUSH1 0x0 DUP1 REVERT JUMPDEST PUSH1 0x0 DUP1 REVERT JUMPDEST PUSH1 0x0 DUP1 REVERT JUMPDEST PUSH1 0x0 DUP1 REVERT JUMPDEST PUSH1 0x0 PUSH1 0x1F NOT PUSH1 0x1F DUP4 ADD AND SWAP1 POP SWAP2 SWAP1 POP JUMP JUMPDEST PUSH32 0x45524332303A207472616E7366657220746F20746865207A65726F2061646472 PUSH1 0x0 DUP3 ADD MSTORE PUSH32 0x6573730000000000000000000000000000000000000000000000000000000000 PUSH1 0x20 DUP3 ADD MSTORE POP JUMP JUMPDEST PUSH32 0x5061757361626C653A206E6F7420706175736564000000000000000000000000 PUSH1 0x0 DUP3 ADD MSTORE POP JUMP JUMPDEST PUSH32 0x45524332303A206275726E20616D6F756E7420657863656564732062616C616E PUSH1 0x0 DUP3 ADD MSTORE PUSH32 0x6365000000000000000000000000000000000000000000000000000000000000 PUSH1 0x20 DUP3 ADD MSTORE POP JUMP JUMPDEST PUSH32 0x4F776E61626C653A206E6577206F776E657220697320746865207A65726F2061 PUSH1 0x0 DUP3 ADD MSTORE PUSH32 0x6464726573730000000000000000000000000000000000000000000000000000 PUSH1 0x20 DUP3 ADD MSTORE POP JUMP JUMPDEST PUSH32 0x45524332303A20617070726F766520746F20746865207A65726F206164647265 PUSH1 0x0 DUP3 ADD MSTORE PUSH32 0x7373000000000000000000000000000000000000000000000000000000000000 PUSH1 0x20 DUP3 ADD MSTORE POP JUMP JUMPDEST PUSH32 0x45524332303A207472616E7366657220616D6F756E7420657863656564732062 PUSH1 0x0 DUP3 ADD MSTORE PUSH32 0x616C616E63650000000000000000000000000000000000000000000000000000 PUSH1 0x20 DUP3 ADD MSTORE POP JUMP JUMPDEST PUSH32 0x546F6F206D616E7920726563697069656E747300000000000000000000000000 PUSH1 0x0 DUP3 ADD MSTORE POP JUMP JUMPDEST PUSH32 0x5061757361626C653A2070617573656400000000000000000000000000000000 PUSH1 0x0 DUP3 ADD MSTORE POP JUMP JUMPDEST PUSH32 0x45524332303A207472616E7366657220616D6F756E7420657863656564732061 PUSH1 0x0 DUP3 ADD MSTORE PUSH32 0x6C6C6F77616E6365000000000000000000000000000000000000000000000000 PUSH1 0x20 DUP3 ADD MSTORE POP JUMP JUMPDEST PUSH32 0x4F776E61626C653A2063616C6C6572206973206E6F7420746865206F776E6572 PUSH1 0x0 DUP3 ADD MSTORE POP JUMP JUMPDEST PUSH32 0x45524332303A206275726E20616D6F756E74206578636565647320616C6C6F77 PUSH1 0x0 DUP3 ADD MSTORE PUSH32 0x616E636500000000000000000000000000000000000000000000000000000000 PUSH1 0x20 DUP3 ADD MSTORE POP JUMP JUMPDEST PUSH32 0x45524332303A206275726E2066726F6D20746865207A65726F20616464726573 PUSH1 0x0 DUP3 ADD MSTORE PUSH32 0x7300000000000000000000000000000000000000000000000000000000000000 PUSH1 0x20 DUP3 ADD MSTORE POP JUMP JUMPDEST PUSH32 0x45524332303A207472616E736665722066726F6D20746865207A65726F206164 PUSH1 0x0 DUP3 ADD MSTORE PUSH32 0x6472657373000000000000000000000000000000000000000000000000000000 PUSH1 0x20 DUP3 ADD MSTORE POP JUMP JUMPDEST PUSH32 0x45524332303A20617070726F76652066726F6D20746865207A65726F20616464 PUSH1 0x0 DUP3 ADD MSTORE PUSH32 0x7265737300000000000000000000000000000000000000000000000000000000 PUSH1 0x20 DUP3 ADD MSTORE POP JUMP JUMPDEST PUSH32 0x45524332303A2064656372656173656420616C6C6F77616E63652062656C6F77 PUSH1 0x0 DUP3 ADD MSTORE PUSH32 0x207A65726F000000000000000000000000000000000000000000000000000000 PUSH1 0x20 DUP3 ADD MSTORE POP JUMP JUMPDEST PUSH2 0x2512 DUP2 PUSH2 0x1EEB JUMP JUMPDEST DUP2 EQ PUSH2 0x251D JUMPI PUSH1 0x0 DUP1 REVERT JUMPDEST POP JUMP JUMPDEST PUSH2 0x2529 DUP2 PUSH2 0x1F29 JUMP JUMPDEST DUP2 EQ PUSH2 0x2534 JUMPI PUSH1 0x0 DUP1 REVERT JUMPDEST POP JUMP INVALID LOG2 PUSH5 0x6970667358 0x22 SLT KECCAK256 SUB 0xEB 0xE8 SWAP1 CALLDATASIZE KECCAK256 0xA6 DUP12 PUSH15 0x492CFEF86789FA7874265F81FEA287 MSIZE PUSH30 0x6920312ADE264736F6C6343000807003300000000000000000000000000 "
				},
				"gasEstimates": {
					"creation": {
						"codeDepositCost": "1916200",
						"executionCost": "infinite",
						"totalCost": "infinite"
					},
					"external": {
						"airdropACTIVE(address[],uint256[])": "infinite",
						"allowance(address,address)": "infinite",
						"approve(address,uint256)": "infinite",
						"balanceOf(address)": "2952",
						"burn(uint256)": "infinite",
						"burnFrom(address,uint256)": "infinite",
						"decimals()": "455",
						"decreaseAllowance(address,uint256)": "infinite",
						"increaseAllowance(address,uint256)": "infinite",
						"name()": "infinite",
						"owner()": "2661",
						"pause()": "infinite",
						"paused()": "2568",
						"renounceOwnership()": "30547",
						"symbol()": "infinite",
						"totalSupply()": "2505",
						"transfer(address,uint256)": "infinite",
						"transferFrom(address,address,uint256)": "infinite",
						"transferOwnership(address)": "30983",
						"unpause()": "infinite"
					},
					"internal": {
						"_beforeTokenTransfer(address,address,uint256)": "infinite"
					}
				},
				"methodIdentifiers": {
					"airdropACTIVE(address[],uint256[])": "a972f673",
					"allowance(address,address)": "dd62ed3e",
					"approve(address,uint256)": "095ea7b3",
					"balanceOf(address)": "70a08231",
					"burn(uint256)": "42966c68",
					"burnFrom(address,uint256)": "79cc6790",
					"decimals()": "313ce567",
					"decreaseAllowance(address,uint256)": "a457c2d7",
					"increaseAllowance(address,uint256)": "39509351",
					"name()": "06fdde03",
					"owner()": "8da5cb5b",
					"pause()": "8456cb59",
					"paused()": "5c975abb",
					"renounceOwnership()": "715018a6",
					"symbol()": "95d89b41",
					"totalSupply()": "18160ddd",
					"transfer(address,uint256)": "a9059cbb",
					"transferFrom(address,address,uint256)": "23b872dd",
					"transferOwnership(address)": "f2fde38b",
					"unpause()": "3f4ba83a"
				}
			},
			"storageLayout": {
				"storage": [
					{
						"astId": 223,
						"contract": "contracts/PVCMeta.sol:PVCMETA",
						"label": "_balances",
						"offset": 0,
						"slot": "0",
						"type": "t_mapping(t_address,t_uint256)"
					},
					{
						"astId": 229,
						"contract": "contracts/PVCMeta.sol:PVCMETA",
						"label": "_allowances",
						"offset": 0,
						"slot": "1",
						"type": "t_mapping(t_address,t_mapping(t_address,t_uint256))"
					},
					{
						"astId": 231,
						"contract": "contracts/PVCMeta.sol:PVCMETA",
						"label": "_totalSupply",
						"offset": 0,
						"slot": "2",
						"type": "t_uint256"
					},
					{
						"astId": 233,
						"contract": "contracts/PVCMeta.sol:PVCMETA",
						"label": "_name",
						"offset": 0,
						"slot": "3",
						"type": "t_string_storage"
					},
					{
						"astId": 235,
						"contract": "contracts/PVCMeta.sol:PVCMETA",
						"label": "_symbol",
						"offset": 0,
						"slot": "4",
						"type": "t_string_storage"
					},
					{
						"astId": 114,
						"contract": "contracts/PVCMeta.sol:PVCMETA",
						"label": "_paused",
						"offset": 0,
						"slot": "5",
						"type": "t_bool"
					},
					{
						"astId": 818,
						"contract": "contracts/PVCMeta.sol:PVCMETA",
						"label": "_owner",
						"offset": 1,
						"slot": "5",
						"type": "t_address"
					}
				],
				"types": {
					"t_address": {
						"encoding": "inplace",
						"label": "address",
						"numberOfBytes": "20"
					},
					"t_bool": {
						"encoding": "inplace",
						"label": "bool",
						"numberOfBytes": "1"
					},
					"t_mapping(t_address,t_mapping(t_address,t_uint256))": {
						"encoding": "mapping",
						"key": "t_address",
						"label": "mapping(address => mapping(address => uint256))",
						"numberOfBytes": "32",
						"value": "t_mapping(t_address,t_uint256)"
					},
					"t_mapping(t_address,t_uint256)": {
						"encoding": "mapping",
						"key": "t_address",
						"label": "mapping(address => uint256)",
						"numberOfBytes": "32",
						"value": "t_uint256"
					},
					"t_string_storage": {
						"encoding": "bytes",
						"label": "string",
						"numberOfBytes": "32"
					},
					"t_uint256": {
						"encoding": "inplace",
						"label": "uint256",
						"numberOfBytes": "32"
					}
				}
			},
			"userdoc": {
				"kind": "user",
				"methods": {
					"airdropACTIVE(address[],uint256[])": {
						"notice": "Run an ACTIVE Air-Drop It requires an array of all the addresses and amount of tokens to distribute It will only process first 150 recipients. That limit is fixed to prevent gas limit"
					}
				},
				"version": 1
			}
		}
	}
}